:020000040800F2
:1000000068C70020C1010008C9010008E501000817
:10001000CD010008CF010008D10100080000000058
:100020000000000000000000000000000185000842
:10003000D501000800000000A1570008098A000847
:10004000DB010008DB010008DB010008DB01000820
:10005000DB010008DB010008DB010008DB01000810
:10006000DB010008DB010008DB010008DB01000800
:10007000DB010008DB01000815130008211300084C
:10008000DB010008DB010008DB010008DB010008E0
:10009000DB010008DB010008DB010008DB010008D0
:1000A000DB010008DB010008DB010008DB010008C0
:1000B000DB010008DB010008DB010008DB010008B0
:1000C000DB010008DB010008DB010008DB010008A0
:1000D000DB010008DB010008DB010008DB01000890
:1000E000DB010008DB010008DB010008DB01000880
:1000F000DB010008DB010008DB010008DB01000870
:10010000DB0100082D5E0008DB010008DB010008B0
:10011000DB010008DB010008498C0008DB01000856
:10012000DB0100082D130008DB010008391300086B
:10013000DB01000865130008DB010008DB01000893
:10014000DB010008DB010008DB01000805550008A1
:100150004913000855130008DB010008DB01000803
:10016000DB010008DB010008DB010008DB010008FF
:10017000DB010008DB010008DB01000800000000D3
:10018000DB010008DB010008DB010008DB010008DF
:10019000DB010008DB010008DB010008DB010008CF
:1001A000DB010008DB010008DB010008DFF80CD0F0
:1001B00000F0D6FC004800479D90020868C7002068
:1001C0000648804706480047FEE7FEE7FEE7FEE7F1
:1001D000FEE7FEE7FEE7FEE7FEE7FEE78D8B0008A1
:1001E000AD010008704669460DF000FDFFF7FEFF07
:1001F0002DE9F05F0546002092469B46884606465C
:10020000814640241BE0284641464746224600F0EE
:10021000F7FB53465A46C01A914110D3114618466F
:10022000224600F0DEFB2D1A67EB01084F462246FE
:100230000120002100F0D5FB17EB00094E41201EE4
:10024000A4F10104DFDC484631462A464346BDE8B6
:10025000F09F2DE9F0410024061B254671F10006B0
:1002600005DA01240027D0EB070067EB0101161E19
:1002700073F1000605DA0027D2EB0702012567EBD0
:100280000303FFF7B5FF86460E4617469C46AC4271
:1002900004D00025D0EB050E65EB010624B100204B
:1002A000D2EB000760EB030C704631463A466346DA
:1002B000BDE8F0810048704774780A08A0F1610138
:1002C000192900D820387047A0F14101192900D818
:1002D000203070470649074A0868504343F2390204
:1002E00010440860400870470149086070470000EA
:1002F000000000C06D4EC64110B5431A934209D2AA
:100300008318881803E010F8011D03F8011D521E20
:10031000F9D210BD40EA01039B0703D009E008C9E8
:10032000121F08C0042AFAD203E011F8013B00F8BA
:10033000013B521EF9D210BDD2B201E000F8012BF0
:10034000491EFBD270470022F6E710B513460A4655
:1003500004461946FFF7F0FF204610BD10B50446CD
:1003600004E00B7800F8013B03B1491C521EF8D29F
:10037000204610BDCAB2401E10F8011F8A4202D0AA
:100380000029F9D100207047421C10F8011B0029F8
:10039000FBD1801A704710B5002200E0521C835C2C
:1003A0008C5CA34201D1002BF8D1D8B2E1B2401A43
:1003B00010BDCBB203E00178994203D0401C521E1D
:1003C000F9D20020704730B504460020034600E013
:1003D0005B1C934203D2E05CCD5C401BF8D030BD87
:1003E000034611F8012B00F8012B002AF9D1184619
:1003F000704730B505460020034600E05B1C934281
:1004000005D2EC5CC85C201A01D1002CF6D130BDBD
:1004100007280FD2DFE800F00406080E0E0C0A00D1
:1004200005A070470AA0704713A070471DA0704731
:1004300022A070472BA070474E6F206572726F72BA
:1004400020286572726E6F203D2030290000000068
:1004500045444F4D202D2066756E6374696F6E2084
:10046000617267756D656E74206F7574206F66209C
:1004700072616E67650000004552414E4745202D70
:100480002066756E6374696F6E20726573756C7427
:10049000206E6F7420726570726573656E74616230
:1004A0006C650000454E4F4D454D202D206F7574F5
:1004B000206F66206D656D6F7279000045494E565C
:1004C000414C202D20696E76616C696420617267F1
:1004D000756D656E7420746F2066756E6374696FD8
:1004E0006E000000556E6B6E6F776E206572726FD6
:1004F000720000002DE9F0410E460546002400E0A0
:10050000641C285DFFF7E0FE0746305DFFF7DCFE68
:10051000381A02D1295D0029F2D1BDE8F0812DE918
:10052000F0410546002090460E46044600E0641C5B
:1005300044450BD2285DFFF7C7FE0746305DFFF745
:10054000C3FE381A02D1295D0029F0D1BDE8F0813F
:100550002DE9FE4F804681EA0300C00F0C46009053
:1005600021F0004123F00045B8EB0200A94105D27B
:100570004046214690461C460B46024623F000406A
:10058000104347D0270DC7F30A00C3F30A51029066
:10059000401A019040286BDAC3F3130040F4801B2B
:1005A0000098924620B10023D2EB030A63EB0B0BB9
:1005B00001985946C0F14002504600F012FA064632
:1005C0000D4650465946019A00F02AFA10EB0800F1
:1005D0006141002487EA115284EAE7731A4340D04C
:1005E000009A62B3019A012A4FEA075215DC001BF8
:1005F00061EB02014FF0004202EA0752CDE90042EE
:10060000001C41F5801132462B4600F02AFA03B057
:10061000BDE8F08F40462146F9E7001B61EB02017F
:10062000001C41F5801300185B412018A2F500174B
:1006300047EB030140EAD570B6196D4111E06D0832
:100640004FEA360645EAC0754FEA0752001B61EBD8
:100650000201001C41F5801149084FEA30000019E1
:10066000514132462B4603B0BDE8F04F00F0EAB9E5
:100670000098012240000023D0EB020263EBE073FC
:10068000009821464FEAE074B8EB000061EB0401EA
:10069000E9E783F000435BE781F0004158E72DE98B
:1006A000FE4F81EA030404F0004421F0004100946D
:1006B0004FF0000B23F0004350EA01045ED052EAF1
:1006C00003045BD0C3F30A54C1F30A552C44A4F2CB
:1006D000F3340194A0FB0254C1F3130141F48011DF
:1006E000C3F3130343F4801301FB024400FB034EE6
:1006F000840A970A44EA815447EA8357A4FB0768AF
:1007000002958D0A05FB07854FEA932C04FB0C54D8
:100710002705029D4FEA065847EA1637B5EB08054C
:100720006EEB070C870E920E47EA811742EA83129E
:10073000A7FB0201B6EB0B0164EB00042B0D43EAAF
:100740000C335E1844EB1C50DA465146E7FB0201BD
:10075000C5F313044FEA0B3343EA14534FEA043250
:10076000019C43EA0603A4F10C040294009CCDE929
:1007700000B400F076F903B0BDE8F08F0020014628
:10078000F9E72DE9F04D81EA030404F0004B21F074
:10079000004514464FF0000A23F0004150EA0502DC
:1007A00020D054EA01021DD0C5F30A570246C5F312
:1007B0001303C1F31300C1F30A5640F4801543F448
:1007C0008013A7EB0608101BD64608F2FD3873EB22
:1007D000050002D308F1010801E092185B41B8F16D
:1007E000000F03DA00200146BDE8F08D00204FF431
:1007F0008011064684460EE0171B73EB050705D3F0
:10080000121B63EB050306434CEA010C49084FEA4F
:10081000300092185B4150EA0107EDD152EA030023
:1008200012D082EA040083EA0501084305D0101BB8
:10083000AB4106D20122002306E000224FF0004324
:1008400002E06FF0010253101AEB06004CEB085166
:1008500010EB0A0041EB0B01BDE8F04D00F0F2B8DF
:1008600030B5041E71F1000404DB4FF00044404237
:1008700064EB0101141E73F1000405DB1C464FF00C
:100880000043524263EB0403101A8B4101D2012052
:1008900030BD002030BD30B5041E71F1000404DB12
:1008A0004FF00044404264EB0101141E73F1000458
:1008B00005DB1C464FF00043524263EB0403801AF1
:1008C000994101D2012030BD002030BD0EB5C10FCD
:1008D00080EAE0700844CA07002140F233438DE803
:1008E0000E000A460B4600F0BCF803B000BD0EB582
:1008F00040F2334102910021CDE900110A460B4636
:1009000000F0AFF803B000BD70B5C1F30A5201F0BA
:1009100000450024C1F3130140F2FF3341F480117C
:100920009A4201DA002070BD40F233439A42A2F2AB
:10093000334203DC524200F063F800E090402C4365
:10094000F1D0404270BDC1F30A5210B5C1F313019A
:1009500040F2FF3341F480119A4201DA002010BDC9
:1009600040F233439A42A2F2334203DC524200F097
:1009700047F810BD904010BDA0E8004FF0C040F80F
:1009800004DB01B5AFF30080BDE8024001C10020E7
:10099000704700F12C080C4658F8040DAFF30080A6
:1009A00058F8040D8546200008BF012038E9F00002
:1009B00018E9004F704730B50B4601460020202251
:1009C000012409E021FA02F59D4205D303FA02F55C
:1009D000491B04FA02F52844151EA2F10102F1DCBC
:1009E00030BD202A04DB203A00FA02F100207047D3
:1009F0009140C2F1200320FA03F31943904070475D
:100A0000202A04DB203A21FA02F00021704721FA63
:100A100002F3D040C2F120029140084319467047CA
:100A2000202A06DBCB17203A41FA02F043EAE073B2
:100A300006E041FA02F3D040C2F12002914008439F
:100A40001946704710B5141E73F1000408DA401CF3
:100A500041F1000192185B411A4301D120F00100DD
:100A600010BD2DE9F04D92469B4611B1B1FA81F2CD
:100A700002E0B0FA80F220329046FFF7B2FF04465F
:100A80000F4640EA0A0041EA0B0153465A46084322
:100A900013D0114653EA010019D0C8F14002504664
:100AA000FFF7AEFF05460E46504659464246FFF751
:100AB00098FF084305D0012004E020463946BDE8F0
:100AC000F08D0020054346EAE0762C4337430A9830
:100AD0006305E40AA0EB08000022FD0A44EA47543B
:100AE0000A3002D500200146E9E7010510196941E5
:100AF000DDE9084500196941BDE8F04DA2E7C1F301
:100B00000A52C1F3130140F2FF3341F480119A42BB
:100B100002DA00200146704740F233439A42A2F2C3
:100B2000334202DC5242FFF76BBFFFF75ABF0000AF
:100B300030B5041E71F1000404DB4FF00044404264
:100B400064EB0101141E73F1000405DB1C464FF039
:100B50000043524263EB0403994208BF904230BD08
:100B6000064C074D06E0E06840F0010394E80700FA
:100B700098471034AC42F6D3FFF71CFB94C90C081D
:100B8000D4C90C0870B58C1810F8015B15F0070378
:100B900001D110F8013B2A1106D110F8012B03E016
:100BA00010F8016B01F8016B5B1EF9D12B0705D41E
:100BB0000023521E0DD401F8013BFAE710F8013B67
:100BC000CB1A921C03E013F8015B01F8015B521E83
:100BD000F9D5A142D8D3002070BD000002F0F2B8D0
:100BE00070B540F2F8160546C2F2000600200C4629
:100BF000C6E90000C6E90200C6E90400C6E906002D
:100C0000062004210022A4F0A9FC70610120A4F0B8
:100C10002BFC30614FF4F0508BF09EFD306018B12A
:100C20004FF4F051FFF78FFB4FF4A06070602DB1CF
:100C3000062004210022A4F091FCF0610020C6E906
:100C40000800C6E90A00C6E90C00C6E90E00042047
:100C500004210022A4F082FC70630120A4F004FCB3
:100C600030634FF4F0508BF077FD306218B14FF4E1
:100C7000F051FFF768FB4FF4A06070622CB10620C2
:100C800004210022A4F06AFCF063A4F075F9D6E90F
:100C900004123068B2FA82F2B1FA81F152094909BC
:100CA000B0FA80F0114340090843D6E90C21336AB9
:100CB000B1FA81F149090843B2FA82F149090843BE
:100CC000B3FA83F14909084370BD00002DE9F04FE4
:100CD00081B040F2F815C2F200050746286B0E46B7
:100CE0004FF0000A4FF0FF3198469346C2F800A03B
:100CF000A5F09EF856B305F12C0915E0AA6AAB6A77
:100D00001144C41AB442C8BF344638462246FFF7DD
:100D1000F3FAA86A361B2044A862DBF800002744D7
:100D20002044CBF8000011D0686AA96A814202D041
:100D3000E96A0029E2D1686B49464246A4F074FF93
:100D400020B1C5F828A0686AE96AD7E7286B0021B6
:100D500000220023A4F098FC002001B0BDE8F08F31
:100D60002DE9F04F81B040F2F815C2F200050746B8
:100D700028690E464FF0000A4FF0FF31984693461F
:100D8000C2F800A0A5F054F856B305F10C0915E01F
:100D9000AA68AB681044CC1AB44288BF34463946BE
:100DA0002246FFF7A9FAA868361B2044A860DBF8A2
:100DB000000027442044CBF8000011D06968A868DF
:100DC000884202D0E8680028E2D168694946424674
:100DD000A4F02AFF20B1C5F808A06968E868D7E741
:100DE0002869002100220023A4F04EFC002001B05D
:100DF000BDE8F08F80B533200721A3F045FF3720F1
:100E0000A4F0E4F83C20A4F0F1F83C20A4F0FEF8B3
:100E1000002010210222A3F0EDFE4FF47A5004F0DE
:100E2000F1FC4FF47A5004F009FE41F62C2041F613
:100E30002C71C2F20000C2F200014FF420720123B3
:100E400004F090FD41F22C0041F22C51C2F200005E
:100E5000C2F200014FF42072012304F019FD0120B9
:100E60000E2104F02BFF01200E21BDE8804004F08C
:100E70009FBE000070B584B04CF27315044600208C
:100E8000C0F60B05039001904EF62170294640F202
:100E90009D1200F0B7FA4EF60170294640F29F12FB
:100EA00000F0B0FA40F2F815C2F20005686BA4F049
:100EB000B3FE20B1686B02A903AAA4F065FF2E6AF5
:100EC000A86B4FF4A0623044002C07BF41F22C0104
:100ED000C2F2000141F22C51C2F20001FFF70CFAFC
:100EE000686BA96B03AA3144029102A90023002474
:100EF000A4F0FEFCA86B00F5A060A863A86BB0F599
:100F0000F05FA8BFAC63E86B68B1A4F085FE20B1C8
:100F1000E86B02A903AAA4F037FFE86B01A903AAB2
:100F20000023A4F0E5FC039804B070BD70B584B054
:100F30004CF2731504460020C0F60B050390019097
:100F40004EF62070294640F25D1200F05BFA4FF435
:100F50006F40294640F25F1200F054FA40F2F81553
:100F6000C2F200056869A4F057FE48B1686902A999
:100F700003AAA4F009FF02984FF4A061FFF7E3F978
:100F80002E68A8694FF4A0623118002C07BF41F603
:100F90002C20C2F2000041F62C70C2F20000FFF7D4
:100FA000ABF96869A96903AA3144029102A9002337
:100FB0000024A4F09DFCA86900F5A060A861A869C0
:100FC000B0F5F05FA8BFAC61E86968B1A4F024FE99
:100FD00020B1E86902A903AAA4F0D6FEE86901A934
:100FE00003AA0023A4F084FC039804B070BD0000A1
:100FF00080B504F021FE04F0B1FEBDE88040A3F00E
:10100000D1BF00007047000001464AF24400C2F21E
:10101000000002F0A1BF000080B54AF24400C2F215
:10102000000002F0ABFF043818BF012080BD0000B3
:1010300010B582B04AF2440042F60041C2F200000C
:10104000C4F201010022C0E90012C0E90222C0E995
:101050000422826101208DF807009DF80710012904
:1010600019D14AF24404C2F200042046002100F0E3
:1010700015F8204603F0E8F810B1012002B010BDC9
:101080004AF24400C2F200004FF4006102F00AFE8E
:10109000002818BF012002B010BD00002DE9F04F5C
:1010A00085B0002743F630010097C4F202014A6977
:1010B000044642F400624A614A6940F6000502F4BF
:1010C00000620092009A00970A68C4F2020542F496
:1010D00080020A600A686E4602F480020092009A5A
:1010E00000970A6842F004020A600A6802F00402EB
:1010F0000092009A00970A6842F008020A600968A4
:1011000001F0080000900098022001900120029058
:10111000032003900C2004904FF4F85000902846D0
:10112000314601F055FD0420009005F58060314600
:101130004FF0040901F04CFD31200E21002201F096
:10114000F1FE312001F0DEFE40F2743546F25846E1
:10115000C2F200054FF000604FF4403BC4F20206BB
:101160004FF4806C4FF480514FF4804220234FF4B1
:1011700000084FF4001AC5E908B94FF00309C5E9A2
:1011800000602846C5E90A98C5F830A0C5E902778D
:10119000C5E904C1C5E906232564AC6301F0DAFAA8
:1011A000284601F0FFFB40F2D435C2F200050421CD
:1011B000C5E9091906F14801402029604FF0006196
:1011C000C5E901104FF4806028614FF480506861D8
:1011D0004FF48040A8612020E8612846C5F820B07F
:1011E000C5E90B8AEF60E563AC6301F0B3FA28460A
:1011F00001F0D8FB3B200F21002201F093FE3B20A1
:1012000001F080FE45200F21002201F08BFE4520D9
:1012100001F078FE05B0BDE8F08F000080B5134600
:101220000A4601464AF24400C2F2000003F042F9C5
:10123000002818BF012080BD80B582B00020019039
:101240000120ADF8020040F20860C2F20000EFF3A6
:1012500005810068B1B10DF1020101AA0023A4F0DB
:1012600047FB012815D1019898B14EF60450CEF2F3
:1012700000004FF080510160BFF34F8FBFF36F8FBD
:1012800002B080BD0DF102014FF0FF320023A4F047
:10129000FBF902B080BD000080B513460A46014646
:1012A0004AF24400C2F2000003F0A6F9002818BF79
:1012B000012080BD80B582B0002001900220ADF8F1
:1012C000020040F20860C2F20000EFF305810068FE
:1012D000B1B10DF1020101AA0023A4F009FB01281C
:1012E00015D1019898B14EF60450CEF200004FF09F
:1012F00080510160BFF34F8FBFF36F8F02B080BD8D
:101300000DF102014FF0FF320023A4F0BDF902B04D
:1013100080BD000040F62470C2F2000001F062BA05
:1013200040F68470C2F2000001F05CBA40F2A850AE
:10133000C2F2000001F056BA4AF24400C2F20000C4
:10134000006C01F04FBA000040F24850C2F20000B9
:1013500001F048BA4AF24400C2F20000C06B01F04A
:1013600041BA000070B549F21405C4F202052E68B6
:10137000F00711D00120286040F23820C2F20000AE
:1013800041680968002907D40068543032F030FE03
:101390000446700615D502E00024700611D54020E1
:1013A000286040F23820C2F2000000680121C0F835
:1013B000AC1042F24C40C2F20000583032F018FE3D
:1013C00004434FF48030002C286008BF70BD4EF6F7
:1013D0000450CEF200004FF080510160BFF34F8FF8
:1013E000BFF36F8F70BD000002A0A6F0EFF900BF41
:1013F000FEE700BF4572726F725F48616E646C6594
:10140000720D00002DE9F04743F64057C2F2000785
:1014100090463A78002A37D0894643F6C041824642
:10142000C0F3C620C2F20001085CCAF30221C84022
:10143000C00729D040F24064C2F2000407F1180648
:1014400008E000BF56E8000F46E8001202B1F9E7D5
:1014500085421DD0BD6900F0E3FF0146A842F1D2EC
:101460000123D4E84F0FC4E8423F02B1F9E7000678
:10147000E8D13869002301303861D4E84F0FC4E85F
:10148000423F02B1F9E7DDE70120BDE8F08700BF88
:101490005246C0F20802EFF30580002808BF1FFA89
:1014A0008AF202F140704A464346BDE8F04700F038
:1014B000D3B800002DE9F04F83B0814600294FF0EA
:1014C000000000F0C6809046B2F5807F00F2C18037
:1014D00043F64056C2F200063078002838D08A46DB
:1014E00043F6C041C9F3C620C2F20001085CC9F34B
:1014F0000221C840C0072BD040F2406BC2F2000B63
:1015000006F1180708E000BF57E8000F47E8004160
:1015100001B1F9E785421FD0B56900F081FF0446AB
:10152000A842F1D25A460123D2E84F0FC2E8413F08
:1015300001B1F9E70006E7D130695A460130306160
:101540000023D2E84F0FC2E8413F01B1F9E7DBE7E2
:10155000012003B0BDE8F08F4D46EFF30580C0F2E7
:101560000805002808BF1FFA89F5B8F1000F11D04F
:10157000B8F1080F18D80020CDE9000068465146A0
:101580004246FEF7B9FE08F0070045EA004000F1C8
:1015900040704FE0284621460022002303B0BDE8FA
:1015A000F04F00F059B800BF701CD0E84F1F4A1C24
:1015B000C0E8432F03B1F8E74FF4E02000EA01460A
:1015C000DAF80020DAF8043045EA060000F180700D
:1015D000214600F041F8A8B34FF60170A8F10808C1
:1015E00046EA0009B8F1090F0AF1080611D300BF55
:1015F00037687568484621463A462B4600F02CF875
:1016000020B3A8F108080836B8F1090F09F101095B
:10161000EED20020CDE90000684631464246FEF792
:101620006BFEFF20C7F6FF5000EA090040EA0820E1
:1016300040F00070009A019B214603B0BDE8F04FD6
:1016400000F00AB8002003B0BDE8F08F0020CDE91B
:10165000007503B0BDE8F08F2DE9F0474FF08057DB
:1016600007EAD1074FF0005643F6405C06EA9206BF
:101670004FF080453843C2F2000C924605EA53050C
:1016800030430CF1040252E8004F671C42E8007638
:1016900006B1F8E742F6C04E40EA0509E0B204F4AC
:1016A0007067C2F2000E49EA07370EEB0014984645
:1016B00047F040660C3454E8007FBB0103D3BFF30E
:1016C0002F8F002706E007F00047374344E80075F6
:1016D00005B1F0E77B0100F1D18052E8003F581CD2
:1016E00042E8000404B1F8E7D8B203F4706349EAB1
:1016F00003330EEB001443F040630C3454E8007FD6
:10170000BE0103D3BFF32F8F002706E007F0004789
:101710001F4344E8007505B1F0E77B0100F1AE809E
:1017200052E8003F581C42E8000404B1F8E7D8B280
:1017300003F4706349EA03330EEB001443F0406393
:101740000C3454E8007FBE0103D3BFF32F8F002772
:1017500006E007F000471F4344E8007505B1F0E7D5
:101760007B0100F18B8052E8003F581C42E80004E6
:1017700004B1F8E7D8B203F4706349EA03330EEB1F
:10178000001443F040630C3454E8007FBE0103D3DF
:10179000BFF32F8F002706E007F000471F4344E800
:1017A000007505B1F0E77B0100F1688052E8003F69
:1017B000581C42E8000404B1F8E7D8B203F470639F
:1017C00049EA03330EEB001443F040630C3454E851
:1017D000007FBE0103D3BFF32F8F002706E007F081
:1017E00000471F4344E8007505B1F0E77B0100F1B5
:1017F000458052E8003F581C42E8000404B1F8E775
:10180000D8B203F4706349EA03330EEB001443F0DB
:1018100040630C3454E8007FBE0103D3BFF32F8F25
:10182000002706E007F000471F4344E8007505B1B4
:10183000F0E77B0122D452E8003F581C42E8000444
:1018400004B1F8E7D8B203F4706249EA02320EEB51
:10185000001342F0406203F10C0454E8007FBD0124
:1018600003D3BFF32F8F002706E007F0004717438D
:1018700044E8007303B1F0E77A012DD587F0044204
:1018800002F0004321F0004119440EEB0015000165
:101890004EF800102AF0004028F000411844194486
:1018A000C5E9010154E8001F890103D2BFF32F8F5E
:1018B000002004E044E8002303B1F3E7012058B11D
:1018C0000CF1080050E8001F4A1C40E8002303B157
:1018D000F8E70120BDE8F0870CF10C0050E8001F8C
:1018E0004A1C40E8002303B1F8E70020BDE8F08778
:1018F0002DE9F04F81B043F6405A43F6C045834688
:10190000C2F2000A0020C2F2000588468AF80000F0
:1019100028468021FEF717FD47F68060C0F60A00D2
:10192000033818214FF6FF7341F2210210F8037FAC
:1019300083EA07231FB282EA4304B7F1FF3FC8BF1F
:101940005C0023B282EA4407B3F1FF3FC8BF6700DF
:101950003BB282EA4704B3F1FF3FC8BF7C0023B229
:1019600082EA4407B3F1FF3FC8BF67003BB282EA97
:101970004704B3F1FF3FC8BF7C0023B282EA4407AB
:10198000B3F1FF3FC8BF67003BB282EA4704B3F13F
:10199000FF3FC8BF7C0023B282EA4407B3F1FF3F98
:1019A000C8BF67004478837887EA04273CB282EA9C
:1019B0004706B4F1FF3FC8BF7E0037B282EA460453
:1019C000B7F1FF3FC8BF740027B282EA4406B7F1FF
:1019D000FF3FC8BF660037B282EA4604B7F1FF3F57
:1019E000C8BF740027B282EA4406B7F1FF3FC8BF00
:1019F000660037B282EA4604B7F1FF3FC8BF740001
:101A000027B282EA4406B7F1FF3FC8BF660037B28B
:101A100082EA4604B7F1FF3FC8BF740084EA03239B
:101A20001FB282EA4306B7F1FF3FC8BF5E0033B280
:101A300082EA4607B3F1FF3FC8BF77003BB282EAB4
:101A40004706B3F1FF3FC8BF7E0033B282EA4607C4
:101A5000B3F1FF3FC8BF77003BB282EA4706B3F15C
:101A6000FF3FC8BF7E0033B282EA4607B3F1FF3FB3
:101A7000C8BF77003BB282EA4706B3F1FF3FC8BF59
:101A80007E0037B282EA4603B7F1FF3FC8BF73005A
:101A900003397FF44BAFDAF8201042F26B70CEF2CC
:101AA000A510814240F09480BAF8020099B28842B1
:101AB00040F09080DAF81C00411C0028CAF81C1085
:101AC00000F08D8042F6C040C2F20000002100BF4D
:101AD0004218D36801F580715F0144BF23F0406371
:101AE000D360D3695F0144BF23F04063D361D36AFD
:101AF0005F0144BF23F04063D362D36B5F0144BFF7
:101B000023F04063D363D36C5F0144BF23F0406391
:101B1000D364D36D5F0144BF23F04063D365D36EBC
:101B20005F0144BF23F04063D366D36F5F0144BFBE
:101B300023F04063D367D2F88C305F0144BF23F0B9
:101B40004063C2F88C30D2F89C305F0144BF23F070
:101B50004063C2F89C30D2F8AC305F0144BF23F040
:101B60004063C2F8AC30D2F8BC305F0144BF23F010
:101B70004063C2F8BC30D2F8CC305F0144BF23F0E0
:101B80004063C2F8CC30D2F8DC305F0144BF23F0B0
:101B90004063C2F8DC30D2F8EC305F0144BF23F080
:101BA0004063C2F8EC30D2F8FC305F0144BF23F050
:101BB0004063C2F8FC30B1F5805F89D100F036FC9B
:101BC0008146B9F1000F2ED1484601B0BDE8F08F33
:101BD000CAF820000120AAF80230CAF81C0042F618
:101BE000C04040F240640026C2F200004FF4805131
:101BF000C2F200048AF80160CAE90166CAF80C6002
:101C0000FEF7A1FB00F012FC814600281CBF49F240
:101C10000050C0F6BA20CAE90460CAF818602670FD
:101C2000B9F1000FD0D05FEACB7000F0A0800020A7
:101C3000012100BFC30800F00702EF5C01FA02F2C5
:101C40001743EF54431C03F00707DB08EE5C01FA6F
:101C500007F73743EF54831C03F00707DB08EE5CFC
:101C600001FA07F73743EF54C31C03F00707DB08FB
:101C7000EE5C01FA07F73743EF54031D03F0070743
:101C8000DB08EE5C01FA07F73743EF54431D03F01E
:101C90000707DB08EE5C01FA07F73743EF54831DB3
:101CA00003F00707DB08EE5C01FA07F73743EF5450
:101CB000C31D03F00707DB08EE5C01FA07F73743A3
:101CC000EF5400F10803DB08EF5C1743EF5400F119
:101CD000090303F00707DB08EE5C01FA07F7374357
:101CE000EF5400F10A0303F00707DB08EE5C01FA8A
:101CF00007F73743EF5400F10B0303F00707DB0846
:101D0000EE5C01FA07F73743EF5400F10C0303F0E0
:101D10000707DB08EE5C01FA07F73743EF5400F1E1
:101D20000D0303F00707DB08EE5C01FA07F7374302
:101D3000EF5400F10E0303F00707DB08EE5C01FA35
:101D400007F73743EF5400F10F0303F00707DB08F1
:101D5000EE5C01FA07F73743EF5400F11003DB089C
:101D6000EF5C11303A43FF28EA547FF463AF5FEA37
:101D70008B7040F1D3800020012100BF05EBD00320
:101D800000F0070293F8207001FA02F2174383F87B
:101D90002070431C03F0070705EBD30393F8206082
:101DA00001FA07F7374383F82070831C03F0070715
:101DB00005EBD30393F8206001FA07F7374383F864
:101DC0002070C31C03F0070705EBD30393F82060D2
:101DD00001FA07F7374383F82070031D03F0070764
:101DE00005EBD30393F8206001FA07F7374383F834
:101DF0002070431D03F0070705EBD30393F8206021
:101E000001FA07F7374383F82070831D03F00707B3
:101E100005EBD30393F8206001FA07F7374383F803
:101E20002070C31D03F0070705EBD30393F8206070
:101E300001FA07F7374383F8207000F1080305EB38
:101E4000D30393F82070174383F8207000F109033F
:101E500003F0070705EBD30393F8206001FA07F7B7
:101E6000374383F8207000F10A0303F0070705EBFE
:101E7000D30393F8206001FA07F7374383F8207003
:101E800000F10B0303F0070705EBD30393F8206081
:101E900001FA07F7374383F8207000F10C0303F0D1
:101EA000070705EBD30393F8206001FA07F73743E0
:101EB00083F8207000F10D0303F0070705EBD3034F
:101EC00093F8206001FA07F7374383F8207000F198
:101ED0000E0303F0070705EBD30393F8206001FA24
:101EE00007F7374383F8207000F10F0303F007076B
:101EF00005EBD30393F8206001FA07F7374383F823
:101F0000207000F1100305EBD30393F8207011301B
:101F10003A43FF2883F820207FF430AF5FEA4B700C
:101F200040F1D2800020012105EBD00300F0070230
:101F300093F8407001FA02F2174383F84070431C93
:101F400003F0070705EBD30393F8406001FA07F7A6
:101F5000374383F84070831C03F0070705EBD30376
:101F600093F8406001FA07F7374383F84070C31CC9
:101F700003F0070705EBD30393F8406001FA07F776
:101F8000374383F84070031D03F0070705EBD303C5
:101F900093F8406001FA07F7374383F84070431D18
:101FA00003F0070705EBD30393F8406001FA07F746
:101FB000374383F84070831D03F0070705EBD30315
:101FC00093F8406001FA07F7374383F84070C31D68
:101FD00003F0070705EBD30393F8406001FA07F716
:101FE000374383F8407000F1080305EBD30393F8FF
:101FF0004070174383F8407000F1090303F00707AE
:1020000005EBD30393F8406001FA07F7374383F8F1
:10201000407000F10A0303F0070705EBD30393F8C0
:10202000406001FA07F7374383F8407000F10B0373
:1020300003F0070705EBD30393F8406001FA07F7B5
:10204000374383F8407000F10C0303F0070705EBFA
:10205000D30393F8406001FA07F7374383F84070E1
:1020600000F10D0303F0070705EBD30393F840607D
:1020700001FA07F7374383F8407000F10E0303F0CD
:10208000070705EBD30393F8406001FA07F73743DE
:1020900083F8407000F10F0303F0070705EBD3034B
:1020A00093F8406001FA07F7374383F8407000F176
:1020B000100305EBD30393F8407011303A43FF2827
:1020C00083F840207FF430AF5FEA0B7040F1D2809C
:1020D0000020012105EBD00300F0070293F86070A7
:1020E00001FA02F2174383F86070431C03F00707FC
:1020F00005EBD30393F8606001FA07F7374383F8E1
:102100006070831C03F0070705EBD30393F860604E
:1021100001FA07F7374383F86070C31C03F0070721
:1021200005EBD30393F8606001FA07F7374383F8B0
:102130006070031D03F0070705EBD30393F860609D
:1021400001FA07F7374383F86070431D03F0070770
:1021500005EBD30393F8606001FA07F7374383F880
:102160006070831D03F0070705EBD30393F86060ED
:1021700001FA07F7374383F86070C31D03F00707C0
:1021800005EBD30393F8606001FA07F7374383F850
:10219000607000F1080305EBD30393F860701743F8
:1021A00083F8607000F1090303F0070705EBD30320
:1021B00093F8606001FA07F7374383F8607000F125
:1021C0000A0303F0070705EBD30393F8606001FAF5
:1021D00007F7374383F8607000F10B0303F007073C
:1021E00005EBD30393F8606001FA07F7374383F8F0
:1021F000607000F10C0303F0070705EBD30393F8BD
:10220000606001FA07F7374383F8607000F10D034F
:1022100003F0070705EBD30393F8606001FA07F7B3
:10222000374383F8607000F10E0303F0070705EBF6
:10223000D30393F8606001FA07F7374383F86070BF
:1022400000F10F0303F0070705EBD30393F8606079
:1022500001FA07F7374383F8607000F1100305EBCC
:10226000D30393F8607011303A43FF2883F860205D
:102270007FF430AF687F95F83D1095F85D2040F011
:102280008000687741F0800095F87D1095F85F3008
:1022900085F83D0042F0800085F85D0041F0800047
:1022A00085F87D0043F0400085F85F0040F240650E
:1022B000C2F2000501270AF1180607E056E8000FF0
:1022C00046E8001202B1F9E784421BD0DAF8184060
:1022D00000F0A6F80146A042F0D2D5E84F0FC5E8BD
:1022E000427F02B1F9E70006E8D1DAF810000023D6
:1022F0000130CAF81000D5E84F0FC5E8423F02B1DF
:10230000F9E7DBE74FF6007BDAF81430DAF81C2047
:10231000C0F2003B5846FFF79FF9B8F1000F3FF4B9
:1023200053AC9AF8000000287FF44EAC40F24064B1
:102330000127C2F200048AF8007007E056E8000F97
:1023400046E8001202B1F9E785421BD0DAF81850CE
:1023500000F066F80146A842F0D2D4E84F0FC4E876
:10236000427F02B1F9E70006E8D1DAF81000002355
:102370000130CAF81000D4E84F0FC4E8423F02B160
:10238000F9E7DBE70BF1010000220023FFF764F916
:10239000484601B0BDE8F08FF0B581B043F6405437
:1023A000C2F20004207818B1012001B0F0BD00BFD6
:1023B00040F240660120C2F2000604F118072070C6
:1023C00008E000BF57E8000F47E8001202B1F9E744
:1023D000854219D0A56900F023F80146A842F1D240
:1023E0000123D6E84F0FC6E8423F02B1F9E70006E5
:1023F000E8D12069002301302061D6E84F0FC6E8FC
:10240000423F02B1F9E7DDE74FF60170C0F200305C
:1024100000220023FFF720F9012001B0F0BD0000E9
:1024200041F20400CEF20000006870474EF6FC5006
:10243000CEF20000016841F08071016041F20001BC
:10244000CEF20001086840F0010201200A607047E6
:1024500040F68432C2F20002537A13B9537AD35C45
:1024600013B10120704700BF537A02EB8303586019
:10247000507A13180020187292F809C00CF1010369
:1024800053720CF130020A7042F63A72A1F8012040
:10249000C87070472DE9F0410B680268012B1FD10D
:1024A000D1E9073422F4F842D1E901E7D1E9036523
:1024B000D1E9058C496A1A4322431143426847F621
:1024C000FF739A4342EA0E023A4332432A4342EAF6
:1024D000080242EA0C02016042600020BDE8F0817F
:1024E00047F6FF7322EA030CD1E90132D1E903E494
:1024F00043EA0C0301F114081A4398E8E00142EAA8
:102500000E0222432A433243496A3A4342EA08020E
:10251000114301600020BDE8F081000002464069DF
:1025200040EA41010020516170470000F0B581B0E0
:1025300000240094164691E88C00C9681A436FF095
:102540001F0303EB47131A4342EA4121009100990C
:102550000546016100F022FCA969890602D42046E3
:1025600001B0F0BDD6B10746701C12D1A869800633
:1025700018D5A869800615D5A869800612D5A8695E
:102580008006F3D40024204601B0F0BDA86980067F
:1025900008D500F003FCC01BB042F7D90324204645
:1025A00001B0F0BD0024204601B0F0BD2DE9F0419E
:1025B0008368012A38D140F6FF72CFF60F721A40B5
:1025C000CB684FF20006CFF6FF764F6906EB033378
:1025D0000026CFF6F07606EB07571A43C36842EAA7
:1025E000070CD1E900768D686FF00F0203F070439D
:1025F00002EB06126FF0FF06013F0C6906EB0526A1
:1026000000253B43CFF6FF7589691A4305EB044566
:10261000324301392A4342EA0161C0F808C0C1606F
:102620000020BDE8F08100BF03F0704CD1E900321A
:10263000D1E902E401F110084FF20001013B6FF013
:102640000F07CFF6FF7198E8600107EB02126FF0F9
:10265000FF0701EB0431002443EA0C0307EB0E27CC
:10266000CFF6FF741A4304EB054500243A43CFF636
:10267000F074114304EB06562943A8F101043143D9
:1026800041EA046181600020BDE8F081002804BFB8
:102690000120704710B50446407918B101206071DF
:1026A000002010BD00202071204600F005F8012018
:1026B0006071002010BD000070470000B0B5D0F878
:1026C00008E0BEF1800F05D14FF480714165012013
:1026D000B0BD00BF90F834C0BCF1010F04BF0220B0
:1026E000B0BD4FF0010C80F834C090F835C0BCF19B
:1026F000010F4FF0020C18D180F835C00068049D1E
:10270000D0F800C0BEF1400F4CF480240460036197
:102710000B46456004BF13460A468360C2600168E9
:102720004FF0000C41F0010101606046B0BD0000B7
:1027300090F83510022909D1052180F8351000687C
:10274000016821F00101016000207047802141658E
:1027500001207047B0B5002840D090F8351002290C
:1027600004BF0220B0BD02686FF00F034AF6AB2130
:10277000D2F800C053FA82F5CAF6AA21A5FB011EC1
:102780002CF0010111600021212311605160916042
:10279000D1601161536142F6BC134FEA1E1CC0F6B2
:1027A0000B0313F80C3040F2FF34A2435F2D4FF0BF
:1027B0003F0588BF0432C0E9162305FA03F3C0E9D8
:1027C0000F11C0E91111C0E913119360416580F840
:1027D000351080F834100846B0BD00BF0120B0BDF0
:1027E000406D7047F0B581B004460020009040F283
:1027F0001000C2F200000268D4E9166048F2B51376
:1028000037680821C1F64E3381403942A2FB0325C7
:102810000CD0226813685B0708D5136823F0040303
:102820001360B160616D41F001016165012181407A
:10283000394208D022685269120604D5B160616D30
:1028400041F00201616504218140394208D02268CB
:102850001268920704D5B160616D41F004016165B1
:1028600010218140394217D020680268120713D521
:10287000B16002680168520308D4C90508D4016830
:1028800021F008010160216C21B905E008033FD463
:10289000216C09B120468847E16D202000FA01F241
:1028A0003A4241D020680368DB063DD5B26094F817
:1028B00035300268052B1BD122F0160202604269F6
:1028C00022F080024261226C0AB9A26C1AB102683D
:1028D00022F0080202603F208840B060002084F8A7
:1028E0003400012084F83500216D002952D157E0D1
:1028F0000168520310D4C90512D4016821F01001F7
:102900000160002084F83400012084F8350007E0DD
:10291000A16C0029BED1BFE7080301D4616C00E0BF
:10292000E16B09B120468847606DC8B3606DC00790
:102930002ED0052084F835002068A90A026822F00C
:1029400001020260009A01328A4200921AD802689B
:10295000D20717D0009A01328A42009212D8026838
:10296000D2070FD0009A01328A4200920AD8026838
:10297000D20707D0009A01328A42009202D8026838
:10298000D207DFD1002084F83400012084F835001C
:10299000E16C29B1204601B0BDE8F040084700BF16
:1029A00001B0F0BD2DE9F041044600F0F7F9002C2C
:1029B0004ED00546002084F83400022084F835000B
:1029C0002168086820F0010008600868C00708D086
:1029D00000F0E4F9401B05286CD821680868C0079E
:1029E000F6D1086848F23F02CFF21002D4E901356F
:1029F000024004F10C0E9EE8C1511A432A431043D1
:102A00003043384340EA0800626A40EA0C00042A76
:102A100040EA0E0320D1D4E90A5E206B4EEA03029D
:102A2000104308604869BEF1000F20F0030040EA3F
:102A3000050040F0040C15D0B8F5005F42D0B8F1A5
:102A4000000F51D1022D52D0012D47D055B94EE083
:102A50000120BDE8F08100BF0B60486920F007004D
:102A600040EA020C6FF00F004AF6AB2250FA81F0F8
:102A7000CAF6AA22A0FB02231A0942F6BC13C0F62A
:102A80000B039A5C40F2FF335F284FF03F00C1F820
:102A900014C021EA030100FA02F088BF0431C4E93E
:102AA00016128860002301220020636584F8352017
:102AB000BDE8F081032220230320636584F83520DC
:102AC000BDE8F081032DCDD8012240230120DFE8AD
:102AD00005F0030E030500BFE7E700BFAEF1C070CD
:102AE000B0FA80F0400904E0032D04D3BAD1CEF34C
:102AF00000600028B6D0012240230120636584F8DD
:102B00003520BDE8F081000070B590F834C0BCF10C
:102B1000010F46D04FF0010C80F834C0D0F858E0D7
:102B200090F835C0BCF1010F38D14FF0020C80F89D
:102B300035C04FF0000CC0F854C0D0F800C0846815
:102B4000056CC06DDCF80060402C26F48026CCF8C3
:102B50000060CCF804300B4604BF13460A463F2100
:102B600001FA00F0CCF80830CCF80C20CEF80800C0
:102B7000DCF8000040F01600CCF800002DB1DCF8C5
:102B8000000040F00800CCF80000DCF8000040F045
:102B90000100CCF80000002070BD00BF002180F8CB
:102BA0003410022070BD0000B0B5044600F0F6F805
:102BB000054640F20400C2F200000078611C18BF14
:102BC000044400BF00F0EAF8401BA042FAD3B0BDB5
:102BD0002DE9F04F82B000F13E4242F2004502F191
:102BE000FF77C4F202050A224FEAB726A84208BFBF
:102BF0000922092E38BF4FEAB7224FF0010E0026F6
:102C000000274FF00008009208E000BF023708F1EB
:102C10000108202F06F1040600F0B4800C680EFABB
:102C200008F914EA090FF1D0D1F804A00AF0030B57
:102C3000ABF10104012C19D80322846802FA07FEC3
:102C4000CA6824EA0E04BA40224382604268CAF38A
:102C5000001522EA090205FA08F54FEA480C6FEA66
:102C60000E044FF0010E2A4342600BE00322BA40EB
:102C7000D443BBF1030FBC4604D1BC464FF0030B59
:102C800024E000BFC2688D68224005FA0CF52A4393
:102C9000BBF1020FC26019D16FF0030202EA5802C1
:102CA000024406F01C030F25D2F820E005FA03FACF
:102CB0000D692EEA0A0E05FA03F343EA0E031362C6
:102CC000D1F804A04FF0010E0AF0030B02680BFAD2
:102CD0000CF322401A435FEACA03026096D5002231
:102CE00043F644030192C4F202031A6843F6004C0F
:102CF00042F480421A601A68C4F2010C02F4804265
:102D00000192019A28F003024FF6084A6244CFF676
:102D1000FF7A52F80A3006F00C050F24AC40A343AA
:102D2000009C04FA05F52B4342F80A30DCF8002039
:102D30004B6842EA0905DC0358BF22EA0905CCF8D2
:102D40000050DCF804209C0342EA090558BF22EA3F
:102D50000905CCF80450DCF80820DC0242EA090539
:102D600043F60C4458BF22EA0905CCF80850C4F2D7
:102D7000010422689B0242EA090558BF22EA0905BC
:102D8000256043E702B0BDE8F08F000042F200008A
:102D9000CEF204000068000C704700004AF26C108C
:102DA000C2F200000068704740F204004AF26C1161
:102DB000C2F20000C2F2000100780A681044086004
:102DC0007047000080B543F60040C4F2020001687D
:102DD00041F400710160016841F4806101600320E9
:102DE00000F0CCF80F2000F005F800F04BF80020C0
:102DF00080BD000010B586B03620002100220024DE
:102E000000F090F8362000F07DF843F64000019481
:102E1000C4F20200016841F01001016000686946D7
:102E200000F010000190019801A800F0C9FA00F02C
:102E3000E7FA4DF683614000C4F21B31A0FB0101AB
:102E40004FF0FF3000EB914140F6E47041F2000298
:102E5000C2F20000C4F2000240F2E733C0E90021F0
:102E6000C0E90243046101F069FC18B1012006B019
:102E700010BD00BF40F6E470C2F2000001F08EFC0D
:102E800006B010BD82B0002043F640010190C4F2AC
:102E900002014A6842F480424A604A6802F4804271
:102EA0000192019A0090086840F08050086008681C
:102EB00000F080500090009802B07047002848BF92
:102EC000704700F01F01012202FA01F14EF2802248
:102ED0004009CEF2000242F820107047002848BF97
:102EE000704700F01F01012202FA01F14EF2801238
:102EF0004009CEF2000242F82010BFF34F8FBFF31B
:102F00006F8F7047002848BF704700F01F010122F3
:102F100002FA01F14EF200124009CEF2000242F82C
:102F20002010704710B54EF60C5CCEF2000CDCF8A9
:102F30000030C3F3022E8EF00704042C28BF0424B3
:102F4000BEF103034FF0FF3E0EFA04F438BF002336
:102F5000A14399400EFA03F39A43114300F00F0284
:102F6000043A624409010C3200F16043B0F1FF3FC2
:102F7000C8BF03F56442117010BD00004EF60C513D
:102F8000CEF200010A684FF6FF031A4060F30A22EE
:102F900042F0806040F0FD700860704770B582B00C
:102FA0000020019043F64000C4F202000168402670
:102FB00041F0805101600068C4F20E2600F080509C
:102FC0000190019847F204050120C4F20005306029
:102FD000FFF7E4FE044600BF2868C00306D4FFF7ED
:102FE000DDFE001BB0F57A7FF6D90EE0012070609F
:102FF000FFF7D4FE044600BF2868800308D4FFF71B
:10300000CDFE001BB0F57A7FF6D9032002B070BD6B
:10301000002002B070BD0000F0B581B00446006829
:1030200043F6700610F0430FC4F2020633D068274F
:10303000C4F2472700203860FFF7B0FE054600BF06
:1030400056F8700C000105D5FFF7A8FE401B0228BA
:10305000F6D9AFE02068C1076AD1810771D4400674
:1030600008D5E168D4E90102090641EA801040EA86
:103070000270706101203860FFF790FE054600BFC6
:1030800056F8700C000105D4FFF788FE401B02289B
:10309000F6D98FE0206810F00C0F68D06827C4F2D2
:1030A00047270020B860FFF779FE054656F8700CF8
:1030B000800005D5FFF772FE401B0228F6D979E0A3
:1030C0002068410713D5B169D4E9042301F0E04138
:1030D00041EA821141EA0361256AB161F1696FF049
:1030E000FF0221F4F85102EB05221143F1610007C0
:1030F0000FD5B069216900F07060A26940EA8110C3
:1031000040EA0270636AB061F06920F4403018430D
:10311000F0610120B860FFF741FE054656F8700CDB
:10312000800023D4FFF73AFE401B0228F6D941E085
:10313000D4E90121090741EA8211716181077FF514
:103140008EAF7169626801F0E041E36841EA821183
:1031500041EA0361E5697161F1696A1E21F01F01AD
:103160001143F16140063FF57CAF83E7206881069B
:1031700054D50020009056F8300C47F2000740F07C
:10318000805046F8300C56F8300CC4F2000700F0BE
:10319000805000900098386840F480703860FFF7E5
:1031A000FDFD05463868C00508D4FFF7F7FD401B54
:1031B0000228F7D9032001B0F0BD00BF306810F439
:1031C000407013D0A16A01F4407188420ED030687B
:1031D00040F64061C4F24721012220F440700A60A9
:1031E00000220A6030603068C00729D12068A16AD7
:1031F00056F8682C4FF6FF4701F4407322F4F8129A
:10320000C0F6FF770F40B3F5407F08BF3A4346F85A
:10321000682C32686FF31F3111433160C00603D44C
:10322000002001B0F0BD00BF94F82C0040F64061D2
:10323000C4F24721C1F8A003002001B0F0BD00BFD7
:10324000FFF7ACFD054641F2883730688007CDD4E2
:10325000FFF7A4FD401BB8424FF00300F5D9ECE79F
:103260002DE9F041002800F08B8043F60808C4F2F5
:1032700002080446D8F8F8030D4600F00F00884213
:1032800007D288F8F853D8F8F80300F00F00A842E6
:1032900076D12068810717D5410705D5D8F80010E9
:1032A00041F4E051C8F80010010705D5D8F8001026
:1032B00041F46041C8F80010D8F80010A26821F06D
:1032C000F0011143C8F80010C0073FD1D8F8F80347
:1032D00000F00F00A84207D988F8F853D8F8F8038F
:1032E00000F00F00A8424BD12068410707D5D8F85D
:1032F0000010E26821F4E0511143C8F80010000703
:1033000008D5D8F80000216920F4604040EAC100E7
:10331000C8F8000000F088F8D8F8001047F64062BE
:10332000C1F30311C0F60A02515C40F2100220FA08
:1033300001F140F20800C2F200000068C2F200028F
:103340001160FFF757FD0020BDE8F0816068811E25
:10335000022907D258F8081C89015CBF0120BDE88A
:10336000F08111E0012807D158F8081C89035CBFDF
:103370000120BDE8F08107E058F8081C890703D454
:103380000120BDE8F08100BFD8F8001021F0030152
:103390000843C8F80000FFF701FD064641F28837F0
:1033A000D8F80000616800F00C00B0EB810F8DD000
:1033B000FFF7F4FC801BB842F2D90320BDE8F0818E
:1033C0000F22026043F60802C4F20202136803F0FF
:1033D00003034360136803F0F0038360136803F48E
:1033E000E053C360D2F800C04FF4E05303EADC03BB
:1033F0000361D2F8F80300F00F0008607047000086
:1034000040F2100043F60801C2F20000C4F20201CB
:103410000068096847F65062C1F38221C0F60A02CB
:10342000515CC8407047000010B543F60404C4F274
:103430000204606800F00C0008280BD0042819BFB3
:1034400042F20040C0F2F40047F64000C0F27D10A6
:1034500010BD00BF206821682368490247F640017B
:10346000C0F27D1100F03F02C3F388105CBF42F24E
:103470000041C0F2F401A1FB00010023FCF7B8FEFB
:1034800021680222C1F3014102EB4101B0FBF1F0DE
:1034900010BD00002DE9F04182B000286AD004463A
:1034A000007843F60006C007C4F202060BD0B068ED
:1034B00000F00C00042840F0A1803068800302D5A1
:1034C0006068002856D0207880071AD5B06810F0C0
:1034D0000C0F09D0B06800F00C00082840F0A8805C
:1034E0007068400200F1A4803068800702D5E0686F
:1034F00001283FD13068216920F0F80040EAC1007E
:1035000030602078000739D4207840074ED4A56970
:103510005DB3B06800F00C00082840F0BD80012DBC
:1035200028D07068E16900F480028A4222D1216AC1
:1035300000F03F028A421DD147F6C071626A014025
:10354000B1EB821F16D1A26A0023CFF6FF7303EB03
:10355000C23200F440316FF30F0291420AD1E16AA6
:1035600000F07060B0EB016F04D1002002B0BDE844
:10357000F08100BF012002B0BDE8F0816069002841
:1035800040F20000C4F2472076D00121C0F8801E2E
:10359000FFF704FC054600BF706F8007B4D4FFF747
:1035A000FDFB401B0228F7D9DDE000BF306C10F0B6
:1035B00080580AD100200190306C40F08050306477
:1035C000306C00F080500190019847F20007C4F27F
:1035D00000073868C00541D4386840F4807038600E
:1035E000FFF7DCFB054600BF3868C00536D4FFF79F
:1035F000D5FB401B0228F7D9B5E000BFB06800F04A
:103600000C00082803D1706840023FF556AF60688F
:10361000B0F5803F07D0B0F5A02F40F08D80306826
:1036200040F480203060306840F4803030608DE0BD
:10363000E068002852D00020C4F247200121016038
:10364000FFF7ACFB054600BF306880073FF552AF7F
:10365000FFF7A4FB401B0228F6D984E0A0680128EC
:1036600005D005284ED1306F40F004003067306F30
:1036700040F0010030674FE00021C0F8801EFFF7E6
:103680008DFB0546706F80077FF53EAFFFF786FB29
:10369000401B0228F6D966E00027C4F24727002025
:1036A0003866FFF77BFB022D05460BD130688001A1
:1036B0005ED5FFF773FB401B02284FF00300F5D9DE
:1036C00054E700BF306880017FF54FAFFFF766FB1E
:1036D000401B02284FF00300F4D947E70020C4F252
:1036E000472000210160FFF759FB0546306880073D
:1036F0007FF507AFFFF752FB401B02284FF0030096
:10370000F4D933E7316F002821F001013167316FBF
:1037100021F0040131674DD0FFF740FB054641F22F
:10372000883700BF306F800756D4FFF737FB401B48
:10373000B842F7D917E000BF3168002821F4803182
:103740003160316821F4802131604FD0FFF726FBD2
:10375000054600BF306880033FF5B5AEFFF71EFB9E
:10376000401B6428F6D9032002B0BDE8F08100BFF9
:1037700004F11C052FCD08430021CFF6FF7140EA6C
:10378000821001EBC3316FF30F0140EA056008437B
:10379000706001203866FFF701FB04463068800145
:1037A0003FF5E3AEFFF7FAFA001B02284FF00300E3
:1037B000F4D9DBE6FFF7F2FA054641F2883700BF9D
:1037C000306F800708D5FFF7E9FA401BB8424FF089
:1037D0000300F5D9CAE600BFB8F1000F7FF497AE39
:1037E000306C20F08050306491E600BFFFF7D6FACD
:1037F000054600BF306880037FF565AEFFF7CEFA5F
:10380000401B64284FF00300F4D9AFE6002804BF42
:103810000120704710B50446407920B9002020717E
:10382000204600F00DF8022060712068016841F028
:1038300004010160012060710020A06010BD000043
:1038400070470000002804BF0120704710B50446EF
:10385000022084F881002068002101614FF0FF31CF
:10386000816140F21001C2F2000109684EF61B426C
:10387000C9F2CB52A1FB0212016821F48031016030
:103880006FF0030121EA922104310DD00268D203C6
:1038900010D50268D20344BF02685FEAC23209D57C
:1038A0000268D203F0D405E0D4F8841041F040015E
:1038B000C4F88410416841F008014160204600F0DE
:1038C000F7F80020C4F8840084F8810084F88000B0
:1038D00010BD0000002804BF012070472DE9F04F03
:1038E00081B0044690F8810028B9002084F8800057
:1038F000204600F0DFF8022084F8810040F210003A
:10390000C2F2000000684EF61B41C9F2CB51A0FB89
:1039100001012068026822F4803202606FF0030225
:1039200022EA912104310DD00268D20310D5026839
:10393000D20344BF02685FEAC23209D50268D203EB
:10394000F0D405E0D4F8840040F04000C4F88400CE
:10395000204602F0BBF8206A08B3204602F0C6F801
:10396000216A00EB800040004902B0FBF1F14CF607
:10397000CD40CCF6CC40A1FB0002D00800EB800388
:10398000D4F834C0A1EB43010123082988BF03EB1D
:10399000D200BCF1040F606204BF40086062D4F83A
:1039A000048048F00200022804D1206C013818BFBE
:1039B000012004E0206C0138B0FA80F04009430295
:1039C000A0684FF0000B411E0020022904D81A46BF
:1039D00034A353F821B01346A26921680092D4E9B8
:1039E000049A0F684CF21006CFF605763E400E6042
:1039F000D4E90D6743EA080343EA0B03E26B334360
:103A0000D4E909E53B431A432A4342EA0902D1F8C3
:103A100000C042EA0A0242EA0E5242EA0C020A607E
:103A20004A684EF20F039A434A60E26A009B1A43C7
:103A3000236B4F681A433A434A608A6848F200038E
:103A4000CFF6F8731A408A6004F144078CCFD4E9AA
:103A50001465013A2A433A4332438E686FF0FF07F8
:103A600007EB032332431A438A60CA684FF22003EC
:103A70001A40CA6004F158064CCE656E1A43CB68F2
:103A800042EA054207EB06271A433A43CA6001217E
:103A9000C4F8840084F8811084F8800001B0BDE887
:103AA000F08F00BF000400000008000000080000C4
:103AB0007047000080B586B0002043F630010190C9
:103AC000C4F202014A6942F480024A614A6902F47E
:103AD00080020192019A0190086840F0100008608D
:103AE000086801A900F01000019001987C20019065
:103AF00002200290012003900320049006200590EC
:103B000041F20000C4F20200FFF762F806B080BD87
:103B1000002804BF01207047B0B5044690F82C007F
:103B20000D4628B9002084F82D00204600F012F838
:103B3000022084F82C002068211DFEF7ABFCD4E99C
:103B400000022946FEF732FD012084F82C000020F7
:103B5000B0BD0000B0B586B0002143F63000019141
:103B6000C4F20200826840F6000542F00102826061
:103B70008268C4F2020502F001020192019A0191E9
:103B8000026801AC42F004020260026802F0040222
:103B90000192019A0191026842F0080202600268F3
:103BA00002F008020192019A0191026842F01002AB
:103BB0000260026802F010020192019A019102680B
:103BC00042F020020260026802F020020192019A93
:103BD0000191016841F0400101600068214600F058
:103BE0004000019001980D200190022002900120D8
:103BF0000390032004900C2005902846FEF7E8FF70
:103C00004CF20370019005F580602146FEF7E0FF5D
:103C10004FF68370019005F500602146FEF7D8FF4E
:103C20004FF63F00019005F540602146FEF7D0FFBA
:103C300048F23710019005F580502146FEF7C8FF85
:103C400006B0B0BD10B5044690F82C0002284FF025
:103C5000020008BF10BD84F82C002068FEF75EFC4F
:103C6000012084F82C00002010BD0000B0B50446EF
:103C700090F82C0002284FF0020008BFB0BD84F875
:103C80002C0020680D46FEF751FC2868012102280F
:103C90004FF0000008BF052184F82C10B0BD0000D3
:103CA000FDF7B0B92DE9F04186B00446032084F851
:103CB0003400606C8846032822D14FF08050A16BFD
:103CC00040F2FF560843A063A06BC0F240060028F4
:103CD0003ED020680125866384F834504FF400718B
:103CE00002F026F928B1216801258E63A16B0843F3
:103CF000A0630121284684F8341006B0BDE8F081A5
:103D0000B8F1000F36D0B8F5805FD6D0B8F5006FA7
:103D100046D10021206805910491002102F082F82B
:103D2000800141D404A9204602F020FD0028C6D11C
:103D30009DF81600400730D5216D2068090402F077
:103D4000A3F80028BBD12068022102F0FDF8B6E7F5
:103D500094E80F00D4E90557CDE90085029702F0F9
:103D60006BF8206800254FF4007102F0E1F800289C
:103D7000B9D1BEE70021206805910491002102F02D
:103D800051F8800110D404A9204602F0EFFC00286D
:103D900095D19DF81600C0070AD14FF080608EE7DC
:103DA0004FF000608BE700BF4FF4006087E700BF73
:103DB000216D2068090402F067F800287FF47FAFC6
:103DC0002068002102F0C0F879E700007047000089
:103DD00080B5D0E9193ED0F844C09A0F0A70C3F3F9
:103DE00083624A70C3F301628A701A0CCA701A0A9D
:103DF0000A714FEA1E524B71CA80CEF303420A7217
:103E0000CEF3C0324A72CEF380328A72CEF34032A1
:103E1000CA72CEF300320A730022BCF1010F4A735A
:103E200036D0BCF1000F40F0878040F6FC72C36EC4
:103E300002EA8E0242EA93720A61C26EC2F3C26360
:103E40000B75C2F302634B75C2F342538B75C2F319
:103E50008243CB75C2F3C2330B76D1F810C00B7E10
:103E60000CF1010C03F0070302330CFA03FCC0F859
:103E700054C00B7A03F00F0E012303FA0EF383658F
:103E80005B0A03FB0CF3C3654FF4007312E000BF41
:103E9000B0F86E200EF03F0342EA03420A610A695D
:103EA0004FF4806303EB82224FF40073C0E91523C3
:103EB000C265C26E0366C2F380334B76C2F3C6138B
:103EC00002F07F028B76CA76006FC20F0A77C0F3CA
:103ED00041724A77C0F382628A77C0F38352CA770D
:103EE000C0F3405281F820200022C0F3004381F843
:103EF000212081F82230C0F3C03381F82330C0F391
:103F0000803381F82430C0F3403381F82530C0F38A
:103F1000003381F82630C0F3812381F82730C0F3C5
:103F20000123C0B2400881F8283081F8290001201F
:103F300081F82A00104680BD016840F2FF52C0F2AD
:103F400040028A63816B012241F08051816380F8D5
:103F50003420104680BD000080B500F1440E9EE87C
:103F60000C5081E80C10426DC1E903E2D0E9162340
:103F7000C1E90523026E0020CA6180BD10B5016D44
:103F800004460068090402F03DF928B1A16B08431A
:103F9000A063002010BD00BF2068002101F042FF97
:103FA000C0F3432010BD0000F0B581B004460068A6
:103FB000256B416B05F0080609042BD556B3E56A5D
:103FC0002DB3A66A01F056FF3060206801F052FF61
:103FD0007060206801F04EFFB060206801F04AFF79
:103FE000F060206801F046FF3061206801F042FF78
:103FF0007061206801F03EFFB061206801F03AFF77
:10400000F06106F12000A5F12001C4E90A0101B028
:10401000F0BD00BF416BC90540D4416B490465D573
:10402000002E63D0666A002EF1D0276A6D4639688B
:104030000091294601F022FF796820680091294605
:1040400001F01CFFB96820680091294601F016FFB5
:10405000F96820680091294601F010FF396920684D
:104060000091294601F00AFF7969206800912946EC
:1040700001F004FFB96920680091294601F0FEFEB5
:10408000F869294600902068203701F0F7FEA6F174
:104090002000C4E9087001B0F0BD00BF4FF480718A
:1040A0008163C16B4CF23A329143C163C16A002E05
:1040B00021F00101C16259D12906A8D5A90608D568
:1040C00002F012F928B1A16B0843A0632046FFF764
:1040D0007DFEA8079BD12068C16A21F00801C1625A
:1040E0000121204684F834105EE000BF416B40F2AD
:1040F0003A2211423FF48BAF416B89075AD4416B8E
:1041000009075ED4416B890662D4416BC90666D447
:10411000416B890503D5A16B41F00801A16340F211
:104120003A718163C16B40F23A329143C16302F04C
:10413000DBF8A16B002E40EA0100A06358D12806ED
:104140007FF565AF15F0300F5ED0E06B46F2017180
:10415000C0F600010165FEF7EBFA00283FF457AF07
:10416000E06B01B0BDE8F04002F0CABA15F0220FD2
:1041700008D002F0B9F828B1A16B0843A06320462B
:10418000FFF724FE206840F23A518163012084F851
:1041900034000020A9072063204605D001B0BDE807
:1041A000F04000F025BA00BF01B0BDE8F04000F0DB
:1041B00021BA00BFA16B41F00201A163416B090765
:1041C000A0D5A16B41F00801A163416B89069CD584
:1041D000A16B41F02001A163416BC90698D5A16B89
:1041E00041F01001A163416B890594D497E700BFAA
:1041F0000120002184F834002046216301B0BDE88D
:10420000F040FFF7E3BD00BFA80711D0206C46F2D5
:104210008561C0F600010165FEF78AFA00283FF4C7
:10422000F6AE206C01B0BDE8F04002F02BBA00BF42
:1042300000210120A16384F834002046216301B0ED
:10424000BDE8F040FFF72CBD10B5D8B1044690F89A
:10425000340020B900202077204600F029F90320FF
:1042600084F83400204600F00FF800284FF00100D9
:1042700018BF10BD0021A163216384F83400002021
:1042800010BD00BF012010BDF0B58FB0044600681E
:10429000762100260291002100220023009601963B
:1042A00001F0CAFD4FF0010510B128460FB0F0BD76
:1042B00048F2A007C4F225273E60206801F0D2FD35
:1042C0003D600496206801F04BFE48B1012584F85A
:1042D0003450A16B0843A06328460FB0F0BD00BF67
:1042E000206801F06DFE68B120680021A16401F032
:1042F00037FE0028EAD1A06C04F14406012805D05D
:104300000CE000BF0120A06404F1440620680021F5
:1043100001F0BAFD10B14FF08050D7E704984FF686
:10432000FE77B84224D80025CCF210152068002171
:1043300001F0AAFD0028C9D12068294601F0B0FD8E
:104340000028E8D12068002101F06CFD04990131BA
:1043500004910499B94202D8B0F1FF3FE6DC049918
:104360004FF6FE72914206D8400007D5012006E0C4
:104370000498B84202D94FF08070A7E7002030605F
:1043800020680125ADF80E5001F048FD90B1606C39
:10439000032813D12068042101F044FD000DE064DE
:1043A00004A92046FFF714FD002855D04FF0805097
:1043B0008DE700BF4FF0806089E700BF206801F003
:1043C00077FE00287FF483AF2068002101F02AFDEA
:1043D000216860670846042101F024FD2168A06778
:1043E0000846082101F01EFD2168E06708460C21FF
:1043F00001F018FD616CC4F880000329CAD0206860
:104400000DF10E0101F00AFF00287FF460AF606C2F
:104410000328BFD0BDF80E1020682165090401F003
:1044200095FE00287FF453AF2068002101F0FAFCCC
:10443000216860660846042101F0F4FC2168A0664A
:104440000846082101F0EEFC2168E06608460C21D0
:1044500001F0E8FC20679DE7216D20680A04002335
:1044600001F01AFE00287FF432AF94E88F00D4E9FF
:104470000565CDE90076029501F0DEFC20684FF479
:10448000007101F055FD78B1216840F2FF52C0F291
:1044900040028A63A16B01250843A06384F834506D
:1044A00028460FB0F0BD00BF002528460FB0F0BD74
:1044B00070470000F0B587B00446A9B194F8340005
:1044C000012819D14FF0000CC4F838C0E06D1E4629
:1044D00013441546834213D9A06B40F00070A063CB
:1044E000012007B0F0BD00BFA06B40F00060A063EA
:1044F000012007B0F0BD00BF022007B0F0BD00BF33
:10450000032084F834002368206CC3F82CC0DF6BD0
:104510000A4640F22A313943D96346F24161C0F676
:104520000001C16346F2C951C0F60001C0E9131C85
:104530000168C0F808C00F6827F0C0070F60770255
:1045400003F18001BB08FEF7DFFA98B12068C16B68
:1045500021F49571C16340F2FF51C0F240018163C3
:10456000A06B40F08040A063012084F8340007B0C5
:10457000F0BD00BF48F28C50C4F22520012101603B
:10458000606C01284FF0FF3018BF6D02CDE90107C4
:10459000902003900220049000200590206806914E
:1045A00001A901F027FC022E06D382202063206897
:1045B000294601F059FD05E0812020632068294645
:1045C00001F05EFD014600284FF000000DD022688A
:1045D00040F2FF53C0F240039363A26B1143A16307
:1045E000012184F834102063012007B0F0BD0000E1
:1045F000FCF722BEFCF75EBEF0B587B00446A9B159
:1046000094F83400012819D14FF0000EC4F838E0B6
:10461000E06D1E461344834214D9A06B012740F07D
:104620000070A063384607B0F0BD00BFA06B012743
:1046300040F00060A063384607B0F0BD022738465E
:1046400007B0F0BD032084F834002068E36BD4F891
:1046500044C0C0F82CE0C76B0D4640F21A21394324
:10466000C16346F2F161C0F60001D96346F2C95157
:10467000C0F60001BCF1010FD96418BF5202022E2E
:10468000C3F850E010D3A0212163114601F03CFE95
:1046900088B1216840F2FF52C0F240028A63A16BE8
:1046A000012708432CE000BF90212163114601F04F
:1046B00037FE0028EDD148F28C50C4F225200127A6
:1046C0000760E06B40220368216882601A68760206
:1046D00067F387121A6001F18002B3082946FEF7DA
:1046E00013FAA8B1206840F21A22C16B9143C1634A
:1046F00040F2FF51C0F240018163A06B40F0804066
:10470000A063002084F834702063384607B0F0BD01
:104710004FF0FF30CDE90106902003900020CDE955
:104720000400206801A9069701F064FB00273846C1
:1047300007B0F0BD7047000070470000002804BFBC
:104740000120704710B5044690F83D0028B90020BC
:1047500084F83C00204600F01FF8022084F83D0059
:104760002068211D04F076FA012084F8460084F8C0
:104770003E0084F83F0084F8400084F8410084F84B
:10478000420084F8430084F8440084F8450084F82B
:104790003D00002010BD00007047000090F83D1063
:1047A00001291CBF01207047022180F83D100068DC
:1047B00041F2FF72C168C4F20002904241F001016F
:1047C000C1600DDC40F2FF71C4F20001884215DCCB
:1047D000B0F1804F2AD040F20041C4F2000123E042
:1047E00040F2FF31C4F20101884213DC41F60001BE
:1047F000C4F20001884219D0002113E040F6000104
:10480000C4F20001884211D040F60041C4F2000118
:104810000AE000BF44F20001C4F20101884205D061
:1048200040F20041C4F20101884206D1816801F0E2
:104830000701062904BF00207047016841F001010B
:1048400001600020704700007047000010B501684B
:1048500004460869800744BFC8685FEA807039D49D
:104860000869400744BFC8685FEA40703ED40869E1
:10487000000744BFC8685FEA007045D40869C006F5
:1048800044BFC8685FEAC0604AD40869C0071CBF5B
:10489000C8685FEAC07051D10869000644BFC868A3
:1048A0005FEA006052D40869400644BFC8685FEA06
:1048B000406053D40869800646BFC8685FEA8060DC
:1048C00010BD6FF0200220460A61BDE81040FFF7DE
:1048D00033BF00BF6FF002000861012020778869B4
:1048E000800743D02046FFF7AFFF45E06FF004009C
:1048F000086102202077886910F4407F40D020466C
:10490000FFF7A2FF42E000BF6FF00800086104203B
:104910002077C86980073DD02046FFF795FF3FE02C
:104920006FF01000086108202077C86910F4407FFC
:104930003AD02046FFF788FF3CE000BF6FF001004F
:104940000861204600F03EF82168A5E76FF080007E
:1049500008612046FFF7EEFE2168A4E76FF04000F3
:104960000861204600F040F82168A3E7204600F0E7
:1049700025F8204600F024F82168002020776FE712
:10498000204600F01BF8204600F01AF821680020AD
:1049900020776CE7204600F011F8204600F010F870
:1049A00021680020207769E7204600F007F82046BC
:1049B00000F006F821680020207766E770470000C5
:1049C00070470000006841F20001C4F20001884213
:1049D00018BF704740F23440C2F200000168013154
:1049E0000160FEF7E1B900007047000010B586B025
:1049F0000020019043F63000C4F202000168012457
:104A000041F080010160006801A900F08000019080
:104A10000198302001900220049041F60040C4F239
:104A20000200CDE90244FEF7D3F848F29020C4F228
:104A300043204460046006B010BD00002DE9F04F33
:104A400083B041F60042C4F20202116848F2902598
:104A500021F44061116011680190C4F243250020E7
:104A60001160286028204FF0000B0CF0D1FE0120CF
:104A7000286055F87C0C0127002818BF01200290FF
:104A800028200CF0C5FE2820C5F800B00CF0C0FEB0
:104A90002F6055F87C6C28200CF0BAFE2820C5F851
:104AA00000B00CF0B5FE2F6055F87C4C2820002C8F
:104AB00018BF01240CF0ACFE2820C5F800B00CF0A3
:104AC000A7FE2F6055F87C8C28200CF0A1FE282032
:104AD000C5F800B00CF09CFE2F6055F87C9C282097
:104AE000B9F1000F18BF4FF001090CF091FE28201A
:104AF000C5F800B00CF08CFE2F6055F87CAC282077
:104B00000CF086FE2820C5F800B00CF081FE2F6066
:104B100055F87CBC28200127BBF1000F18BF4FF0CF
:104B2000010B0CF075FE0020286028200CF070FEB0
:104B30002F6055F87C7C28200CF06AFE002041F69E
:104B400000422860C4F202021068019920F440601B
:104B500010601068B1FA81F140F48060490910607A
:104B6000282069600CF054FE0120286028200CF0F9
:104B70004FFE002E18BF01260298B8F1000F46EA3A
:104B800040004FEA800040EA440018BF4FF001089F
:104B90004044800040EA4900BAF1000F18BF4FF0CE
:104BA000010A5044800040EA4B00002F18BF012743
:104BB00038440021C0B2296003B0BDE8F08F000086
:104BC000F0B581B041F60041C4F202010A68044622
:104BD00022F440620A600A6848F2902542F480603C
:104BE0000860C4F243250026E0092E606860282092
:104BF0000CF00EFE012728202F600CF009FE282063
:104C00002E600CF005FEC4F38010686028200CF0C4
:104C1000FFFD28202F600CF0FBFD28202E600CF0FB
:104C2000F7FDC4F34010686028200CF0F1FD282047
:104C30002F600CF0EDFD28202E600CF0E9FDC4F390
:104C40000010686028200CF0E3FD28202F600CF095
:104C5000DFFD28202E600CF0DBFDC4F3C00068608F
:104C600028200CF0D5FD28202F600CF0D1FD282045
:104C70002E600CF0CDFDC4F38000686028200CF09D
:104C8000C7FD28202F600CF0C3FD28202E600CF0FB
:104C9000BFFDC4F34000686028200CF0B9FD282057
:104CA0002F600CF0B5FD28202E600CF0B1FD04F053
:104CB0000100686028200CF0ABFD28202F600CF06C
:104CC000A7FD28202E6001B0BDE8F0400CF0A0BD8B
:104CD000B0B541F60040C4F20200016848F29024E9
:104CE00021F4406101600168C4F2432441F4806111
:104CF000016001206060206028200CF089FD002503
:104D0000282065600CF084FD2560B0BDB0B541F68B
:104D10000040C4F20200016848F2902421F440618E
:104D200001600168C4F2432441F480610160002005
:104D30002060606028200CF06BFD01252820256094
:104D40000CF066FD6560B0BD70B541F60044C4F27C
:104D50000204206848F2142520F440602060206896
:104D6000C4F24325206001262820C5F880600CF09D
:104D70004FFD2820EE670CF04BFD0020296859B14B
:104D8000296849B1296839B1F72809D8296819B1C2
:104D9000043029680029F3D100242046EC6770BD57
:104DA000206820F440602060206840F4806020602B
:104DB0000020E867C5F8800028200CF029FD0124B8
:104DC0002820EC670CF024FD2046C5F8804070BD1B
:104DD0002DE9F04F94B08E46C168D0E9017205907C
:104DE000036881EA0200384048400D460891DEF829
:104DF000001009931391194408444AF27841CDF206
:104E00006A710844DEE901A607EB706382EA0700D5
:104E10001840504005EB0A0108444BF25671CEF69B
:104E2000C701084403EB305183EA070008400792AA
:104E300078403244104447F2DB02C2F22042104470
:104E4000DEF80CC001EBF03081EA030202405A4068
:104E500007EB0C052A444CF6EE65CCF2BD152A444E
:104E6000069700EBB22280EA0105DEF810701540CB
:104E70004D403B442B4440F6AF75CFF27C552B445C
:104E80000C9702EB736582EA0003DEF814702B4086
:104E90004340394419444CF22A63C4F287731944DD
:104EA00005EB315485EA0201DEF8188021405140BB
:104EB0004044084444F21361CAF630010844CDF876
:104EC00010C004EBF03C84EA0500DEF81C1000EA98
:104ED0000C000E9168401144084449F20151CFF68C
:104EE000465108440CEBB0228CEA0400DEF8201096
:104EF00010400B9160402944084449F6D801C6F699
:104F00008011084402EB706582EA0C00DEF8249000
:104F1000284080EA0C0009EB040108444FF2AF710D
:104F2000C8F64431084405EB305385EA0200DEF848
:104F300028401840504004EB0C0108444AF24F410D
:104F4000401A0A9703EBF03183EA0500DEF82C7073
:104F5000084068403A4410444DF2BE72C8F65C12F4
:104F60001044119601EBB02281EA0300DEF83060B4
:104F7000104058403544284441F22215C6F6903579
:104F8000284402EB706082EA0105DEF834B000EAE2
:104F9000050C8CEA010C5B4447F293156344CFF691
:104FA00098552B440D9600EB335380EA0205DEF84A
:104FB00038601D4055403144294444F28E35CAF2D0
:104FC00079652944B44603EBF13183EA0005DEF844
:104FD0003C600D40454032442A4440F62105C4F669
:104FE000B4152A4401EBB22282EA01051D404D406E
:104FF0005044284442F26255CFF21E65284402EB29
:10500000F06080EA02050D40554043442B444BF2CA
:105010004035CCF240052B4400EBF35383EA000506
:10502000154045403944294445F65125C2F25E6594
:10503000294403EBB1410F9781EA0305139F054013
:105040005D403A442A444CF2AA75CEF6B6152A447D
:1050500001EB323282EA01050A9F1D404D4038447F
:10506000284441F25D05CDF22F65284402EBF06043
:1050700080EA02050D40554023442B4441F253453C
:10508000C0F244252B4400EBF35383EA000515409E
:105090004540314429444EF28165CDF6A1052944AD
:1050A00003EBB14181EA0305DDF830E005405D40E6
:1050B00072442A444FF6C835CEF2D3752A4401EB28
:1050C000323282EA01051D404D40484428444CF6E6
:1050D000E655C2F2E115284402EBF06080EA0205D1
:1050E0000D40554063442B4440F2D675CCF2373521
:1050F0002B4400EBF353CDF8409083EA0005DDF834
:105100001090154045404944294440F68755CFF258
:10511000D545294403EBB141029681EA03050B9E74
:1051200005405D4032442A4441F2ED45C4F25A55EF
:105130002A4401EB323282EA01051D404D405844B9
:1051400028444EF60515CAF6E315284402EBF06034
:10515000019480EA0205119C0D40554023442B44E4
:105160004AF2F835CFF6EF452B4400EBF353CDF878
:105170000C80E046CDF800C083EA0005DDF838C0B9
:10518000154045406144294440F2D925C6F26F7567
:10519000294403EBB14181EA03050D9CCDF848A0F9
:1051A000DA4605EA000B8BEA030B224444F68A44F4
:1051B0005A44C8F62A54224401EB323285EA0204EA
:1051C0003844204443F64214CFF6FA74204402EBEC
:1051D000307082EA01044440334423444FF2816436
:1051E000C8F2717423440F9D00EB735380EA0204EC
:1051F0005C402944214446F22214C6F69D542144C1
:1052000003EB314183EA00044C404244224443F61C
:105210000C04CFF6E5542244129D01EB722281EA80
:1052200003045440284420444EF64424CAF2BE44A9
:10523000204402EB307082EA01044440734423446A
:105240004CF6A974C4F6DE34234400EB735380EAB1
:1052500002045C406144214444F66034CFF2BB64F4
:105260002144019E03EB314183EA00044C40324467
:1052700022444BF67044CBF6BF64224401EB722209
:1052800081EA030454405044204447F6C664C2F601
:105290009B042044139D02EB307082EA01044440D9
:1052A0002B44234442F2FA74CEF6A124234400EBAB
:1052B000735380EA02045C404944214443F285046C
:1052C000CDF2EF442144DDF80CE003EB314183EAF9
:1052D00000044C407244224441F60554C0F2884414
:1052E0002244109F01EB722281EA030454403844A7
:1052F00020444DF23904CDF6D4142044DDF8348036
:1053000002EB307082EA010444404344234449F6EE
:10531000E514CEF2DB642344DDF808C000EB7353E0
:1053200080EA02045C406144214447F6F844C1F637
:10533000A2742144DDF844B003EB314183EA000458
:105340004C405A44224445F26564CCF2AC442244B9
:1053500001EB722262EA030428444C40204442F2EA
:105360004424CFF2294420440E9C02EBB060234435
:1053700060EA0104544023444FF69774C4F22A347F
:105380002344009C00EBB35363EA020521444540EB
:10539000294442F2A735CAF6943529440A9C03EB06
:1053A000714161EA000522445D402A444AF2390510
:1053B000CFF693452A4401EBF22262EA030540440A
:1053C0004D40284445F6C315C6F25B55284402EB10
:1053D000B06060EA01054B4455402B444CF69245C1
:1053E000C8F60C752B4400EBB35363EA0205314455
:1053F000454029444FF27D45CFF6EF752944129C74
:1054000003EB714161EA000522445D402A4445F600
:10541000D155C8F284552A440B9C01EBF22262EA72
:10542000030520444D40284447F64F65C6F6A8754D
:10543000284402EBB06060EA0105634455402B4408
:105440004EF2E065CFF62C652B4400EBB35363EAD4
:10545000020571444540294444F21435CAF201352D
:10546000294403EB714161EA000552445D402A443E
:1054700041F2A115C4F608652A4401EBF2220C9F03
:1054800062EA030538444D40284447F68265CFF26E
:105490005375284402EBB0600F9F60EA01053B445E
:1054A00055402B444FF23525CBF63A552B4400EBB3
:1054B000B35363EA02055944454029444DF2BB25E4
:1054C000C2F6D725294403EB7141109F61EA00051C
:1054D0003A445D402A444DF29135069FCEF686351A
:1054E0002A440F4407EBF222079F099D3944089F85
:1054F00028443B44059FC7E90002C7E9021314B0E2
:10550000BDE8F08F80B500200BF0F8F980BD0000F9
:1055100010B586B0002043F630010190C4F20201BC
:105520000A6842F002020A60096801F00201019172
:1055300001994FF48051CDE901100120039003201F
:10554000049040F20040C4F2020001A9FDF740FBC4
:10555000FFF74CFAFFF7BCFB4020FFF731FBFFF7EA
:10556000F3FB0446FFF7D2FBFFF7B2FB4020FFF747
:1055700027FBFFF7E9FBFF20FFF722FBFFF7E4FB28
:10558000FFF7C4FB42F210700CF042F9204606B05F
:1055900010BD000070B582B00C460546FFF798FBC1
:1055A0004120FFF70DFBFFF7CFFB0020FFF746FA86
:1055B0000646FFF7ABFB8DF8076001219DF8070059
:1055C000002C01FA05F114BF084388438DF8070049
:1055D0009DF80740FFF77CFB4020FFF7F1FAFFF74B
:1055E000B3FB2046FFF7ECFAFFF7AEFBFFF78EFBAD
:1055F00042F2107002B0BDE870400CF009B9000032
:10560000017D012904D1417D012904BFC069704792
:105610004FF2115041F2F311C0F60B00C0F60C012D
:1056200040F2111203F060FD80B5017D012913D114
:10563000417D012910D100F118030ECBA2FB01011D
:10564000A0FB030201FB032144F24022C0F20F023F
:105650000023FAF7CDFD80BD4FF2115041F2F31156
:10566000C0F60B00C0F60C014FF49D7203F03CFD38
:10567000017D012904D1417D012904BF8069704762
:105680004FF21150C0F60B0002A14FF4827203F0EA
:105690002BFD00BF2E2E2F4D6964646C65776172FF
:1056A00065732F706A70726F6A6563742F706A6DAC
:1056B000656469612F696E636C7564655C706A6DA1
:1056C000656469612F706F72742E680010B543F6BF
:1056D0004864CCF20004D4F8CC043BF0CBFD46F097
:1056E00003FCD4F8D014C4F8D404481CC4F8D00483
:1056F00010BD000080B582B0019000910198009922
:1057000000F014F828B1FFE7009908680138086034
:10571000FFE70098043001998CF0FEFF02B080BDD5
:1057200081B000900098006801B0704780B582B0E9
:1057300001900091FFE7FFE70098043001998DF098
:1057400059F802B080BD000080B582B00190009190
:1057500001980099FFF7EAFF28B9FFE70099086868
:1057600001300860FFE70098043001998DF068F877
:1057700002B080BD80B582B001904DF6A930C0F670
:105780000B00902104228423A1F03CFB01980430FB
:105790008DF084F801990020086002B080BD0000FF
:1057A000EFF30980BFF36F8F154B1A681EF0100FCF
:1057B00008BF20ED108A20E9F04F10602DE90900A4
:1057C0004FF0200080F31188BFF34F8FBFF36F8F2E
:1057D0009EF090FE4FF0000080F31188BDE80900B4
:1057E00019680868B0E8F04F1EF0100F08BFB0EC61
:1057F000108A80F30988BFF36F8F704700BF00BF26
:1058000024010020B0B540F2384445F60401C2F24C
:105810000004C4F2010121600A68054622F48030C8
:1058200008602046FEF70EF80020042104F114035E
:105830004FF480124FF0800C27C340214FF4802595
:10584000C4E90100C4E90300C4E90A00C4E90C008A
:10585000C4E90EC0C4E9100120214FF480320223B4
:105860004FF0030EC4E91405C4E9160C2046C4E940
:105870001212C4E9183EFEF72DF82068016841F4C1
:1058800080310160016841F400310160B0BD000069
:105890002DE9F04383B090468946022B064607D097
:1058A000012B0BD14FF400614FF4005008E000BF12
:1058B0004FF480514FF4804002E000BF00200021EF
:1058C000002243F630030292C4F202031F684FF431
:1058D000807547F480071F601B6840F2485703F447
:1058E00080030293029BC2F2000746F28843C7E995
:1058F00006054FF48030C4F202034FF48064C7E918
:1059000008023846C7E90032C7E90222C7E9044164
:10591000C7E90B22FCF71EFF4FF23961C0F6080100
:105920004FF21160796440F2C041C0F60800C2F243
:105930000001C7E90E1038464F67FDF733F845F60A
:105940004001C4F20101384632464B46CDF8008092
:10595000FCF7B4FE3868016821F00101016003B072
:10596000BDE8F0832DE9F04782B090468946022BCE
:10597000824607D0012B0BD14FF400614FF4005049
:1059800008E000BF4FF480514FF4804002E000BFB8
:1059900000200021002243F630030192C4F20203EA
:1059A0001F684FF4807647F480071F601B6840F241
:1059B000A85703F480030193019BC2F2000746F24B
:1059C0002843C7E906064FF40030C4F2020340241E
:1059D0004FF48065C7E908023846C7E90032C7E9D5
:1059E0000242C7E90451C7E90B22FCF7B3FE4FF2AC
:1059F0006160C0F60800F8634FF28960C0F60800E5
:105A000078643846FCF7CEFF40F23840C2F200001E
:105A100045F620020767B863C4F2010238465146D2
:105A20004B46CDF80080FCF749FE3868016821F04C
:105A30000101016002B0BDE8F087000070B540F2DE
:105A4000C04445F62401C2F20004C4F20101216001
:105A50000A68054622F4803008602046FDF7F2FE11
:105A60004FF4002304204FF0030C0122C4E9053059
:105A700040204FF4801EC4E901C2C4E91020202058
:105A80004FF4803200218026C4E907E54FF48023DB
:105A90000225C4E912022046C4E90311C4E90A112F
:105AA000C4E90C11C4E90E61C4E91413C4E9161663
:105AB000C4E9185CFDF70EFF2068016841F48031ED
:105AC0000160016841F40031016070BDC068411E91
:105AD000B1FA81F14909022845F600004FEA0111A7
:105AE000C4F2010008BF20210160704743F68C0C0E
:105AF000C4F2020C036845F60401DCF80020C4F28D
:105B000001018B42C06919BF22F4400141EA8002C1
:105B100022F4401141EA0002CCF800205CF8881C15
:105B20005CF8882C490247F64001C0F27D1102F072
:105B30003F025CBF42F20041C0F2F401B1FBF2F25D
:105B4000B0F5801F14D038BB5CF8040C5CF8041C62
:105B5000C0F30360C1F388115143DCF80020B1FBAE
:105B6000F0F0C2F304210131B0FBF1F0704700BF47
:105B70005CF8080C5CF8081CC0F30360C1F38811E2
:105B80005143DCF80020B1FBF0F002F01F010131BD
:105B9000B0FBF1F0704700BF40F25C10C4F2472048
:105BA0000121016048F20000C0F2BB007047000014
:105BB000B0B540F2A8550128C2F2000536D146F230
:105BC0000C42C4F20202286802F14C03984205D943
:105BD000EB6D3F2404FA03F31CE000BF46F2080219
:105BE000C4F2020202F1B003984207D9EB6D3F24E0
:105BF00004FA03F3C2F800340DE000BFEC6D02F1CB
:105C000050034FF03F0C98420CFA04F302D9536052
:105C100001E000BF1360026842F010020260392008
:105C20000022FDF77FF93920FDF76CF9286801683B
:105C300041F001010160B0BD80B540F2A85CC2F244
:105C4000000CDCF8000046F20C41C4F202010368CB
:105C500001F14C02904223F01002026006D9DCF8F8
:105C60005C203F2303FA02F20A601BE046F20801BF
:105C7000C4F2020101F1B002904207D9DCF85C20C5
:105C80003F2303FA02F2C1F800240BE0DCF85C3099
:105C900001F150024FF03F0C90420CFA03F294BF16
:105CA0000A604A60016821F0010101603920FDF7B6
:105CB00005F93920BDE88040FDF710B9B0B540F2D4
:105CC00048550128C2F2000542D146F20C42C4F206
:105CD0000202286802F14C03984209D940F2A85305
:105CE000C2F20003DB6D3F2404FA03F324E000BF9B
:105CF00046F20802C4F2020202F1B00398420BD944
:105D000040F2A853C2F20003DB6D3F2404FA03F310
:105D1000C2F8003411E000BF40F2A854C2F20004FF
:105D2000E46D02F150034FF03F0C98420CFA04F37B
:105D300002D9536001E000BF1360026842F0100214
:105D4000026044200022FDF7EDF84420FDF7DAF868
:105D50002868016841F001010160B0BD80B540F2E2
:105D60004850C2F20000006846F20C41C4F2020141
:105D7000026801F14C03984222F01002026009D936
:105D800040F2A852C2F20002D26D3F2303FA02F29F
:105D90000A6022E046F20801C4F2020101F1B002F9
:105DA00090420BD940F2A852C2F20002D26D3F23BA
:105DB00003FA02F2C1F800240FE000BF40F2A8533A
:105DC000C2F20003DB6D01F150024FF03F0C904234
:105DD0000CFA03F294BF0A604A60016821F00101E5
:105DE00001604420FDF76AF84420BDE88040FDF7DB
:105DF00075B8000080B5024691E809505062936280
:105E000008694EEA0C0318434969D36A084323F032
:105E1000F70101430020D16280BD0000006800F05E
:105E20000300704708444069704700004AF244008C
:105E3000C2F20000FEF7B8B810B58446DDE90240B2
:105E4000114319432143DDF810E00843DCF8041046
:105E500047F6FF6240EA0E00914301430020CCF870
:105E6000041010BD80B5032101600220FCF79CFEE8
:105E7000002080BDD0F8800070470000096802460D
:105E80000020C2F8801070478160C36840F27741FB
:105E900061F30B03372141F28832C36000F04CBA42
:105EA00041F0004141F480118160C16840F26942D3
:105EB00062F30B01C16040F21001C2F200010968F7
:105EC00044F6D352C1F26202A1FB0212510A6FF0F2
:105ED000030241F2883301FB132100BF043104BFE8
:105EE0004FF000407047426B12F0450F02D012F4A1
:105EF000006214D0426B12F0450F02D012F400621F
:105F00000DD0426B12F0450F02D012F4006206D0A1
:105F1000426B12F0450FE1D012F40062DED1416B0A
:105F2000042211F0040108BFC522826308467047AD
:105F30008160C3684FF48A6161F30B03102141F261
:105F40008832C36000F0F8B98160C36840F246410E
:105F500061F30B03062141F28832C36000F0ECB913
:105F600000218160C1684FF4806262F30B01C1605F
:105F700040F21001C2F20001096844F6D352C1F2A6
:105F80006202A1FB0212510A6FF0030241F2883350
:105F900001FB1321043104BF4FF000407047426BF6
:105FA000120609D4426B12065CBF426B5FEA0262C2
:105FB00002D4426B1206EDD5C521816300207047E3
:105FC0004FF4D5718160C1684FF4896262F30B01AF
:105FD000C16040F21001C2F20001096844F6D352D8
:105FE000C1F26202A1FB0212510A6FF0030241F2F8
:105FF000883301FB132100BF043104BF4FF0004080
:106000007047426B12F0450F02D012F4006214D0B8
:10601000426B12F0450F02D012F400620DD0426BB9
:1060200012F0450F02D012F4006206D0426B12F05B
:10603000450FE1D012F40062DED1416B490709D46B
:10604000416BC9070AD1416B49064FF0000108D5E1
:10605000402205E00422042102E000BF01220121C8
:1060600082630846704700008160C36840F2524175
:1060700061F30B03122141F28832C36000F05CB976
:106080008160C36840F2514161F30B03112141F279
:106090008832C36000F050B98260C36840F2474163
:1060A00061F30B03072141F28832C36000F044B969
:1060B00000218160C16840F2C24262F30B01C160FD
:1060C00040F21001C2F20001096844F6D352C1F255
:1060D0006202A1FB0212510A6FF0030241F28833FF
:1060E00001FB1321043104BF4FF000407047426BA5
:1060F00012F0450F02D012F4006214D0426B12F07D
:10610000450F02D012F400620DD0426B12F0450F21
:1061100002D012F4006206D0426B12F0450FE1D0BB
:1061200012F40062DED1416B490707D4416BC90705
:1061300008D1C52181630020704700BF042181631D
:106140000846704701218163084670478160C16835
:1061500040F2C94262F30B01C16040F21001C2F289
:106160000001096844F6D352C1F26202A1FB021297
:10617000510A6FF0030241F2883301FB132100BF83
:10618000043104BF4FF000407047426B12F0450FDE
:1061900002D012F4006214D0426B12F0450F02D00C
:1061A00012F400620DD0426B12F0450F02D012F4CF
:1061B000006206D0426B12F0450FE1D012F400628B
:1061C000DED1416B490707D4416BC90708D1C5210E
:1061D00081630020704700BF042181630846704737
:1061E000012181630846704700218160C36840F245
:1061F000734161F30B03332141F28832C36000F035
:106200009BB800008160C36840F24D4161F30B030D
:106210000D2141F28832C36000F08EB80022826006
:10622000C26840F2434363F30B02C26040F21002C3
:10623000C2F20002126844F6D353C1F26203A2FB19
:1062400003235A0A6FF0030C41F2883302FB13C296
:10625000043204BF4FF000407047436B13F0450F0A
:1062600002D013F4006314D0436B13F0450F02D037
:1062700013F400630DD0436B13F0450F02D013F4F9
:10628000006306D0436B13F0450FE1D013F40063B5
:10629000DED1426B52071BD4426BD2071CD102697C
:1062A000D2B2032A1CBF01207047C5228263406915
:1062B00010F4604F14D0410444BF4FF400507047B5
:1062C00000044FF4805158BF4FF4803108467047A6
:1062D00004218163084670470121816308467047A5
:1062E000000C08800020704700218160C36840F2E4
:1062F0004C414EF2001261F30B03C0F2F5520C2137
:10630000C36000F019B800008160C36840F25941D1
:1063100061F30B03192141F28832C36000F00CB81D
:106320008160C3684FF48B6161F30B03182141F264
:106330008832C360AFF3008040F21003C2F2000362
:10634000D3F800C044F6D353C1F26203ACFB033C64
:1063500003464FEA5C205043002800F09D805A6BB2
:1063600012F0450F02D012F400621DD0012800F097
:1063700093805A6B12F0450F02D012F4006213D0D2
:10638000022800F089805A6B12F0450F02D012F4F7
:10639000006209D00438421C7ED05A6B12F0450FBF
:1063A000DAD012F40062D7D1586B400742BF042004
:1063B00098637047586BC0071EBF012098637047F1
:1063C000C52098631869C0B288421CBF012070477D
:1063D00058694EF20801CFF6FF51084204BF002071
:1063E0007047002844BF4FF000707047410044BF21
:1063F00040207047810044BF80207047C10044BFE7
:106400004FF480707047010144BF4FF40070704733
:10641000410144BF4FF480607047C10144BF4FF455
:1064200000607047010244BF4FF480507047410242
:1064300044BF4FF400507047810244BF4FF4804086
:106440007047C10244BF4FF400407047410344BF4E
:106450004FF400307047810344BF4FF480207047F1
:10646000C10344BF4FF400207047010444BF4FF400
:1064700080107047410444BF4FF4001070478104FE
:1064800044BF4FF48000704700074FF4000058BF2E
:106490004FF48030704700BF4FF00040704700005D
:1064A000B0B588B040F20C6440F24010C2F2000473
:1064B000CAF2000000214FF0100C4FF4C075012209
:1064C00008234FF0400E84E80F50C4E906514FF402
:1064D00000604FF4805104F1200C4FF400528CE81E
:1064E000070002200621CDE90103CDE90311CDE922
:1064F0000500079001A92046FDF70AFB00F008F807
:10650000204640F2AB21FDF79DFB08B0B0BD000076
:10651000F0B585B040F20C60012510260027C2F2CC
:10652000000001A94FF480520195CDE9026504975E
:10653000FDF79CFB0197019942F20F70814219D837
:1065400042F21071019A01320192019A824211D8ED
:10655000019A01320192019A82420BD8019A0132CA
:106560000192019A824205D8019A01320192019A60
:106570008A42E7D340F20C640220C2F20004CDE963
:10658000010601A920464FF48052CDE90357FDF7DB
:106590006DFB0320CDE901060820CDE9030701A921
:1065A00020464FF48052FDF761FB0420CDE901063F
:1065B0004FF40C70049001A920464FF480520395CB
:1065C000FDF754FB05B0F0BD10B5846BFCF708F97E
:1065D000022808BF10BDD4E90F10426D486D012A92
:1065E00018BF012826D1206840F2FF52C0F24002B5
:1065F000216D8263C26B090422F49D72C263A26B97
:1066000042F08042A263FFF7FDFD58B920680021E7
:10661000FFF708FCC0F343200538012805D820689F
:10662000FFF762FEA16B0843A063012084F83400E9
:10663000002020632046BDE81040FDF7C7BB0000E6
:1066400010B5846B206B822809D12068FFF74CFEBF
:1066500028B1A16B0843A0632046FDF7B7FB206873
:10666000C16A21F00801C16240F23A518163012000
:10667000002184F8340020462163BDE81040FDF776
:10668000B7BF0000B0B5846B40F23A52216D20686C
:1066900009048263FFF7B6FD40B1A16B0843A06314
:1066A000012084F834000020206313E020680021DA
:1066B0000025FFF7B7FBC0F343200538012101286F
:1066C00084F83410256305D82068FFF70DFEA16B10
:1066D0000843A063A06B28B12046BDE8B040FDF799
:1066E00075BB00BF2046BDE8B040FDF7D9BA000039
:1066F000806B0068C16B41F48071C163704700001A
:10670000B0B5846B40F23A52216D2068090482636F
:10671000FFF778FD40B1A16B0843A063012084F826
:1067200034000020206313E0206800210025FFF7DB
:1067300079FBC0F3432005380121012884F8341087
:10674000256305D82068FFF7CFFDA16B0843A06340
:10675000A06B28B12046BDE8B040FDF737BB00BFB5
:106760002046BDE8B040FDF79BBA00002DE9F0419E
:1067700088B00C460546FCF711FB06460021286848
:10678000019100910821FFF7D3FB18B108B0BDE8D3
:10679000F08100BF296D28680904FFF775FB002808
:1067A000F4D14FF0FF300290082003903020049085
:1067B000022005900020069001212868079102A977
:1067C000FFF718FB2868FFF70FFD0028DED1002730
:1067D000E8460CE00846FFF74DFB48F82700013774
:1067E000FCF7DCFA801B01304FF00040CED0296866
:1067F000486B10F02A0F05D1486B8002EAD4486B31
:106800008004EDD4486B000712D4486B800711D484
:10681000486B800610D440F23A508863DDE90010DE
:1068200000BA09BAC4E90001002008B0BDE8F0814F
:10683000082002E0022000E02020886308B0BDE8C4
:10684000F0810000B0B540F20C04C2F20004012552
:1068500025709FF06FFC012818D02570FAF7DCFB3B
:1068600018B9207800F0FE00207020782070207881
:1068700001280BD040F20865C2F20005286828B94B
:106880000A20022100229EF069FE28602078B0BD17
:1068900010B588B040F20C00C2F200000078C007CA
:1068A0000ED1032910D814460020DFE801F00E03B2
:1068B000111900BF6846FAF7A7FB069815E000BF5C
:1068C000032008B010BD00BF042008B010BD00BFF9
:1068D0006846FAF799FB07982080002008B010BDA1
:1068E0006846FAF791FB0798400A2060002008B03C
:1068F00010BD000010B582B008460021019111467C
:106900001A46FAF78BFC18B1012002B010BD00BF87
:1069100040F20860C2F20000EFF305810068C9B1DF
:106920000DF1020101AA9FF02FFA0128ECD1019884
:1069300000B34EF60450CEF200004FF080510160DB
:10694000BFF34F8FBFF36F8F012000284FF001007E
:1069500015D10DE00DF1020147F230529FF064F9BC
:106960000138B0FA80F0400900284FF0010006D14C
:1069700002B010BD012000284FF00100F8D0BDF892
:1069800002100129F4D1EFF3058018B19FF0E8FB64
:1069900002E000BF9FF0DEFB47F23051441800BF19
:1069A000EFF3058020B19FF0DBFB844204D8ABE716
:1069B0009FF0D0FB8442A7D9FAF72EFB0028EFD135
:1069C000002002B010BD000010B540F20C04C2F26D
:1069D000000401202070FAF71FFB08B1207810BDD9
:1069E000207800F0FE002070207810BD10B582B035
:1069F00008460021019111461A46FAF74DFC18B1DC
:106A0000012002B010BD00BF40F20860C2F20000D9
:106A1000EFF305810068C9B10DF1020101AA9FF0F1
:106A2000B3F90128ECD1019800B34EF60450CEF230
:106A300000004FF080510160BFF34F8FBFF36F8FA5
:106A4000012000284FF0010015D10DE00DF10201E9
:106A500047F230529FF0E8F80138B0FA80F0400970
:106A600000284FF0010006D102B010BD012000281F
:106A70004FF00100F8D0BDF802100229F4D1EFF375
:106A8000058018B19FF06CFB02E000BF9FF062FB35
:106A900047F23051441800BFEFF3058020B19FF05A
:106AA0005FFB844204D8ABE79FF054FB8442A7D934
:106AB000FAF7B2FA0028EFD1002002B010BD0000B2
:106AC000F0B540F2446EC2F2000E9EF800408C46D3
:106AD000002C3DD103214CF290240027C0F60B047A
:106AE00040F2EC65CEF82870CEE904110EF11801E1
:106AF000C2F200054FF48066F0C140F2A421C2F258
:106B000000010131CEE9184145F252411025C0F291
:106B10005401CEF82C70CEF86850CEF86C70CEF8D8
:106B2000071044F24751C0F25201CEE91C77BFF37F
:106B30005F8FCEF8031044F25351C4F24771CEF880
:106B400000102021BFF35F8F8EF80610BFF35F8F18
:106B5000DEF8141081429CBF4FF0FF30F0BD059D60
:106B6000EFF311844FF0200181F3118848B100EB5D
:106B700040010EEBC101C1E918C200228B660A6711
:106B8000CA6600EB40000EEBC00045670020BFF373
:106B90005F8F84F31188F0BDF0B540F2446EC2F20D
:106BA000000E9EF800408C46002C3DD103214CF293
:106BB00090240027C0F60B0440F2EC65CEF8287054
:106BC000CEE904110EF11801C2F200054FF48066FF
:106BD000F0C140F2A421C2F200010131CEE9184116
:106BE00045F252411025C0F25401CEF82C70CEF877
:106BF0006850CEF86C70CEF8071044F24751C0F2DE
:106C00005201CEE91C77BFF35F8FCEF8031044F238
:106C10005351C4F24771CEF800102021BFF35F8FAB
:106C20008EF80610BFF35F8FDEF8101081429CBF14
:106C30004FF0FF30F0BD059DEFF311844FF02001C0
:106C400081F3118848B100EB40010EEBC101002631
:106C50008E62C1E906C2C1E9083600EB40000EEBC6
:106C6000C000C562002084F31188F0BD70B540F209
:106C7000446EC2F2000E9EF800308C46002B3DD1CF
:106C800003214CF290230026C0F60B0340F2EC6483
:106C9000CEF82860CEE904110EF11801C2F200040A
:106CA0004FF4806578C140F2A421C2F200010131A5
:106CB000CEE9183145F252411024C0F25401CEF809
:106CC0002C60CEF86840CEF86C60CEF8071044F225
:106CD0004751C0F25201CEE91C66BFF35F8FCEF878
:106CE000031044F25351C4F24771CEF80010202132
:106CF000BFF35F8F8EF80610BFF35F8FEFF3118441
:106D00004FF0200181F31188614600F003F884F30D
:106D1000118870BD2DE9F04F81B040F2446300EB63
:106D20004000C2F2000303EBC004E06A914602286F
:106D30000D4615D001284DD058B9264656F8247F67
:106D40007068B84240F28280F9430844484580F0B8
:106D500084804FF00009484601B0BDE8F08F00BFC5
:106D600054F8247F201DA4F1040AA046A4F1080BC6
:106D70004C464FF00009009022E000BFDAF8000016
:106D8000FA4311440144C61BB14238BF0E46DBF83A
:106D90000000A64228BF2646384429463246F9F765
:106DA000ABFADAF80000F119A41B0F1AB14435440C
:106DB00018BF0F46002CBFF35F8FC8F800705DD07E
:106DC00000980168B942D9D9FA43DAF800001144B1
:106DD000D9E700BFA2465AF8247FDAF80410B94276
:106DE00004D9FA43206A114404E000BF206AFA4340
:106DF00011440144494538BF8946C61B54F81C0F4D
:106E0000B14538440ED229464A46F9F775FA09EBDE
:106E10000700BFF35F8FCAF80000484601B0BDE825
:106E2000F08F00BF29463246F9F766FAA9EB06084B
:106E30002068A9194246F9F75FFABFF35F8FCAF8D5
:106E40000080484601B0BDE8F08F00BF216AFA43D8
:106E5000104408444845FFF47CAF54F81C0F6168A7
:106E60003844A1EB070ACA450CD929464A46F9F726
:106E700043FA07EB0900BFF35F8F3060484601B06B
:106E8000BDE8F08F29465246F9F736FAA9EB0A0811
:106E9000206805EB0A014246F9F72EFABFF35F8F2F
:106EA000C6F80080484601B0BDE8F08F82B080B5DA
:106EB00082B0CDE9042304AA019201AA00F006F8E9
:106EC00002B0BDE8804002B0704700002DE9F04FED
:106ED0009BB0914606AA16924022002505901A9072
:106EE0000DF1580800208B461792CDE918550AE09D
:106EF0003B46CDF804A001F0F9FF19985946B0F1CE
:106F0000FF3F40F3EB821BF8013B252B1CD0002BED
:106F100000F0D482DDE91720411C914207D8169A6F
:106F200013541998179A01301990084618919042F5
:106F3000E3D116991A98FFF799FE1899884240F004
:106F4000B7821895D9E700BF04314FF0000A11F855
:106F5000033CA3F123070D2F00F25A800222DFE841
:106F600007F0075757575757575709570B57570C9D
:106F7000082202E0042200E0012211F8023C4AEA61
:106F8000020AA3F123070D2F00F24A800222DFE854
:106F900007F0074747474747474709470B47470C0D
:106FA000082202E0042200E0012211F8013C4AEA32
:106FB000020AA3F123070D2F3CD80222DFE807F0D5
:106FC000083A3A3A3A3A3A3A0A3A0C3A3A0D00BF93
:106FD000082202E0042200E001220B784AEA020AB9
:106FE000A3F123070D2F1CD80222DFE807F00D1AAA
:106FF0001A1A1A1A1A1A0F1A0B1A1A074AEA020A46
:107000000431A4E70122F9E70822F7E70422F5E7B3
:107010000339A3F13A0212F10A0F07D310E000BFBF
:107020000239A3F13A0212F10A0F09D200222E2BE3
:1070300040D083E00139A3F13A0212F10A0FF5D3EF
:107040000231002202EB820203EB420211F8013C02
:10705000303AA3F13A0717F10A0F27D302EB820265
:1070600003EB42020B78303AA3F13A0717F10A0F0B
:107070001ED302EB820203EB42024B78303AA3F1BB
:107080003A0717F10A0F55D302EB820203EB4202D3
:107090008B78303AA3F13A0717F10A0F01F1040196
:1070A000D0D202392E2B05D048E000BF013900BFF5
:1070B0002E2B43D10E4616F8013FA3F13A0717F1E4
:1070C0000A0F03D20027314639E000BF0231002702
:1070D00007EB870703EB47070B78303FA3F13A062E
:1070E00016F10A0F2BD307EB870703EB47074B7803
:1070F000303FA3F13A0616F10A0FC0F0098107EB01
:10710000870703EB47078B78303FA3F13A0616F168
:107110000A0FC0F0FF8007EB870703EB4707CB7828
:10712000303FA3F13A0616F10B0F01F10401CFD85D
:10713000013904E001312E2BBCD000BF002703F041
:10714000FB06682E22D101F1040B00BF1BF8033CA3
:1071500003F0FB01682921D11BF8023C03F0FB017D
:10716000682940F04B801BF8013C03F0FB016829C3
:1071700016D11BF8043B03F0FB016829E6D0ABF104
:10718000030BA3F1580120290ED93DE001F1010BB9
:10719000A3F15801202907D936E000BFABF1020B5B
:1071A000A3F1580120292FD8DFE801F01E1C1C1C78
:1071B0001C1C1C1C1C1C1C3A4A1C1C1C1C1C1C1CC3
:1071C0001C1C1C1C781C1C861C121C1C1E0000BFD6
:1071D000D9F80000011DC9F800100168009240466E
:1071E0000A2285E689E600BFD9F80000011DC9F82A
:1071F0000010016800924046102279E6ABF1010BC5
:10720000A3F158012029CFD9252B7FF476AEDDE9F3
:107210001720411C91423FF68AAE169A25237FE63D
:10722000DDE91720D9F80030411C1F1D9142C9F833
:1072300000703FF67CAE1A68169B1A5471E600BFC8
:10724000D9F8001042F210750B1DC9F800300C6817
:10725000002C2146C4F1000348BF19460A290493B3
:107260005AD34FF0020800BF64295FD3B1F57A7F8B
:1072700056D3A94258D341F25973CDF2B713A1FBAB
:10728000033648F29F63C0F2010399424FEA563138
:1072900008F10408E8D8A8F1010847E0D9F800008F
:1072A0001022011DC9F80010016808200090404616
:1072B000082301951FE600BFD9F800100A1DC9F880
:1072C00000200C6806E000BFB0F1FF3F04F10104AC
:1072D0007FF713AE2778002F3FF40FAEDDE91721BB
:1072E0004B1C934207D8169847541998179A0130A7
:1072F0001946189319909142E6D116991A98FFF7FA
:10730000B5FC1899884240F0D38019981895DBE7AE
:10731000013114E7023112E74FF0010806E000BF27
:1073200008F1010802E000BF08F10208B84538BFC3
:10733000B8466AB10021002C48BF01210AF00403BD
:1073400041EA9301551A1AF0020605D126E000BF62
:1073500000251AF0020621D007BB002800F1A48006
:10736000B4F1FF3F46DD5FEA4A7166D5DDE91721DA
:107370004B1C934208D816982B2242541998179AFE
:10738000013019461893199091424ED116991A98C6
:10739000FFF76CFC1899884244D089E05FEACA7113
:1073A000DBD1002DD9D0039603E000BF002835467D
:1073B0007AD46E1EAE4238BFA84539D2DDE9172116
:1073C0004B1C934208D81698202242541998179AB9
:1073D00001301946189319909142E7D116991A98DD
:1073E000FFF744FC1899884262D11998002118913E
:1073F000DCE700BFDDE917214B1C934208D8169843
:107400002D2242541998179A013019461893199051
:1074100091420FD116991A98FFF728FC1899049CED
:10742000884245D1002018901998002805D53BE0E6
:10743000039E92E7049C002836D46EB90DF15808DB
:10744000404621460A223B460095CDF804A001F0B3
:107450004DFD002551E500BF0AF001013943EDD192
:10746000002DEBD06E1EAE4238BFA845E6D2DDE956
:1074700017214B1C934208D8169830224254199871
:10748000179A0130194618931990914209D116990B
:107490001A98FFF7EBFB1899884209D11998002137
:1074A000189100283546DDD500250DF1580824E552
:1074B0004FF0FF301BB0BDE8F08F00BF40B1189A0D
:1074C00052B1059806A9FFF7D1FBDDE9181004E0D9
:1074D00000201BB0BDE8F08F002108441BB0BDE8C0
:1074E000F08F00002DE9F04FA7B000F1080794CF0E
:1074F0001190D0E9003591E8015084EA02062E404F
:1075000000BA07EBF367664007442190B81982EA96
:10751000B507D1F80C908A4647F699111F40C5F679
:1075200082214FEAB50B5740461888469CFA8CF1E9
:10753000E0198BEAB3042691084434409EFA8EF198
:1075400000EBF66084EAB5040A444044224402EBAE
:10755000F06202EB08074FEAB60282EAB302179123
:10756000024099FA89F182EAB302209101EBB50158
:10757000114401EBF76101EB08044FEAB001DAF8BE
:10758000102081EAB601394012BA81EAB601189298
:1075900002EBB302114401EBF46101EB08034FEA83
:1075A000B701DAF8142081EAB001214012BA81EA69
:1075B000B001199202EBB60211444FEAB402DAF8B4
:1075C000185082EAB7021A402EBA82EAB70206EBD6
:1075D000B000024401EBF3604FEAB301DAF81C504B
:1075E000404481EAB4011A9601402EBA81EAB401FE
:1075F00006EBB7051B960D4402EBF0614FEAB002B3
:10760000DAF82060414482EAB3020A4036BA82EADC
:10761000B30206EBB404224405EBF164239604EBB9
:1076200008064FEAB104DAF8245084EAB004344082
:107630002DBA84EAB00405EBB30302EBF66222959F
:107640001C4402EB08034FEAB602DAF8285082EA3B
:10765000B1021A402DBA82EAB10205EBB000104423
:1076600004EBF36202EB08094FEAB302DAF82C40AC
:1076700082EAB602249502EA090225BA82EAB60233
:1076800005EBB101114400EBF9604FEAB902DAF8F9
:107690003040404482EAB3021C95024025BA82EA97
:1076A000B30205EBB6041F95224401EBF0614FEAEB
:1076B000B004DAF83450414484EAB9040C402EBADC
:1076C000C34684EAB90406EBB30302EBF162B046A9
:1076D0001E961C4402EB0B034FEAB102DAF8386045
:1076E00082EAB0021A4096FA86FE82EAB0020EEBF7
:1076F000B907174404EBF3624FEAB3045A4484EA2F
:10770000B10402EA0409DAF83C40219E179D24BA2C
:10771000CDF840A004EBB000A2461D9485EA060413
:10772000239E89EAB10C744084EA08064FEAF67495
:1077300004EBB10407EBF2614FEAB207594487EA60
:10774000B3076044B44612960F40DDF88090269E41
:1077500087EAB3073C4489EA0607229E00EBF16002
:10776000774087EA0E084FEAF87606EBB3034FEA54
:10777000B106584486EAB206064086EAB2061E44BE
:1077800004EBF0635B44DDF860B04FEAB0048BEAD1
:107790000507249D84EAB1046F408AEA070A1C4069
:1077A0004FEAFA7584EAB1040E9505EBB20206EBD6
:1077B000F36747F69916199D2244C5F682261C9C4C
:1077C000CDF894E007EB060E85EA09064FEAB30709
:1077D000664087EAB00786EAFC7907EA0E074FEAB7
:1077E000F97687EAB00706EBB101394447F69917F5
:1077F00002EBFE62C5F682273A440C9601EBF26179
:107800001A9E01EB070C1F9F86EA0B047C40CDF803
:107810004C8084EAF87BDDF86C804FEABE0188EA90
:1078200005041E9D81EAB3014FEAFB776C40CDF859
:1078300084A0514007EBB00084EAFA7A08444FEA8A
:10784000B2014FEAFA7581EABE01099505EBB3036F
:10785000239D81EA0C01259C19444EF6A1336E400C
:1078600000EBFC60C6F6D963664003444FEABC00F7
:1078700086EAF97480EAB2004FEAF4760B97584032
:1078800006EBBE07DDF888E0CDF8809007EB000935
:107890001D9803968EEA0806464086EAFB764FEA74
:1078A000F678CDF8088008EBB202DDF890802694D7
:1078B0004EF6A134CDF858B001EBF361C6F6D964A9
:1078C0004FEAB307B346149688EA0506129D214491
:1078D00087EABC074F4086EAF5763A4409EBF16047
:1078E0004FEAB10786EAFA79204487EAB3074FEAFC
:1078F000F975CDF854A0474005EBBC06DDF870A043
:1079000006EB070C139F23958AEA0E0585EAF775A7
:10791000269F02EBF06285EAF77522444FEAF57480
:10792000019404EBB3031F9C4FEAB00686EAB1064C
:10793000AE46199584EA0805A046219C56404EF6AD
:10794000A1371E440CEBF263C6F6D96785EAF475DD
:107950003B444FEAB20785EAFB7587EAB0074FEA76
:10796000F5745F40249404EBB1014EF6A1340F444A
:1079700006EBF361C6F6D964DDF878B02144209CAB
:10798000AC4622958BEA0A0585EAF475CDF85C9041
:107990004FEAB30685EAF97986EAB2064FEAF97446
:1079A0004E40049404EBB0004EF6A134064407EBBD
:1079B000F160C6F6D9642044259C4FEAB10784EAF9
:1079C0000805169C87EAB30785EAF47585EAFE7513
:1079D0004FEAF5784740CDF8148008EBB202DDF8A5
:1079E000748002EB070A159F2C461F9588EA0B0549
:1079F0004EF6A13E85EAF77506EBF062C6F6D96E43
:107A00004FEAB00685EAFC75724486EAB1064FEA91
:107A1000F5775640069707EBB3030AEBF26733445A
:107A200007EB0E0CDDF848E0259E269F86EAFE76E1
:107A300086EAF776CDF86090AB461A954FEAB20524
:107A400086EAF97985EAB0054FEAF97685EA0C0508
:107A500006EBB101079629444EF6A135139E03EBC0
:107A6000FC63C6F6D965149F03EB050A88EAF67530
:107A700085EAF7754FEABC0385EAF47783EAB20337
:107A80004FEAF77583EA0A0305EBB00003440E984A
:107A90003C461C97179F0F9580EAFE754EF6A13E57
:107AA00085EAF77501EBFA60C6F6D96E4FEABA01BE
:107AB00085EAFB78704481EABC014FEAF8754140E1
:107AC00005EBB2020A440C990D95199D81EAF676F0
:107AD00086EAF57603EBF0614FEAB00386EAF977C0
:107AE000714483EABA0325974FEAF7774B400C9726
:107AF00007EBBC073B440B9F219E229D87EAF6774C
:107B000002EBF16287EAF577F34672444FEAB10679
:107B100087EAF47E86EAB0064FEAFE74564004EB2C
:107B2000BA073E44099F209D0A9487EAF574189D80
:107B300003EBF26384EAF57403EB0B074FEAB2033D
:107B400084EAF87583EAB1034FEAF5747B4004EBED
:107B5000B000CDF86C90A9461E951844039B169D65
:107B6000089483EAF5731F9D06EBF76683EAF573C5
:107B7000259D4FEAB70483EAF5735E4484EAB204B4
:107B80004FEAF375744005EBB1019C462093214404
:107B9000029B159C09951A9D83EAF47400EBF6602C
:107BA00084EAF57400EB0B034FEAB60084EAFE7535
:107BB00080EAB7004FEAF574584004EBB202CDF802
:107BC00074E002EB000E2398269A0B9480EAF2747C
:107BD0001B9A01EBF36084EAF2744FEAB30184EA82
:107BE000F974584481EAB6014FEAF472414002EB5D
:107BF000B7070E9207EB01090199149AA24681EA90
:107C0000F2771C99219487EAF1770EEBF0624FEA44
:107C1000B00487EAFC7E5A4484EAB3044FEAFE715A
:107C20005440159101EBB60709EBF2612744594422
:107C300007EBF16707EB0B0C41EAB20707EAB00765
:107C400001EAB2063743249C179EAB4684EAF676D7
:107C500086EAF87686EAF5764FEAF67404EBB30323
:107C6000039516943B444CEAB107049C199DB14618
:107C7000249607EAB2070CEAB106374384EAF576A0
:107C8000259C059D86EAF47686EAFA7A4FEAFA742C
:107C900004EBB0001994C41903EBFC604BF6DC4311
:107CA000C8F61B7318441F4640EABC0303EAB1033D
:107CB00000EABC063343229ECDF88CE085EAF676D6
:107CC0001D9DCDF8008086EAF57686EAFE7E4FEAB5
:107CD000FE7505EBB2021A4404EBF06303EB0708F0
:107CE00048EAB00303EABC0308EAB004149523434E
:107CF000069C189DCDF810A084EAF5741E9DCDF861
:107D000008E084EAF57484EAF9754FEAF57606EB43
:107D1000B1010B4402EBF861394441EAB80202EACE
:107D2000B00201EAB80413962243079C1F9E03EB9E
:107D3000F16384EAF674209ED14684EAF67484EAFC
:107D4000FA744FEAF47606EBBC074BF6DC4CC8F647
:107D50001B7C129603EB0C0646EAB1033A4403EA95
:107D6000B80306EAB107A2461F943B430F9F1A9C33
:107D700002EBF66287EAF47787EAFB7787EAFE7719
:107D800026974FEAF7746746944404EBB0004CEA38
:107D9000B602184402EAB1020CEAB6030F941A4381
:107DA0000D9B1B9C00EBFC6083EAF473219CF34663
:107DB00083EAF47383EAF57318934FEAF373C419F3
:107DC0000D9303EBB80344EABC0003EB020E00EA98
:107DD000B60004EABC03229518430C9B1C9DDDF8F9
:107DE000608083EAF573239D83EAF57383EAFA736F
:107DF0004FEAF37505EBB10101440EEBF460384432
:107E000040EAB4029A461C9302EABC0200EAB403B8
:107E10000C951A430A9B009DBE4683EAF573249D88
:107E2000269F83EAF57383EAF7774FEAF77501EB4C
:107E3000F0610A9505EBB60301EB0E0545EAB001CA
:107E40001A4401EAB40105EAB0031943089B259ED0
:107E500002EBF56283EAF67383EAF97383EAF87357
:107E60004FEAF376089699461B9306EBBC0302EBA8
:107E70000E0646EAB50203EB010C02EAB00206EA7E
:107E8000B5031A43099B1D99019783EAF17383EAAD
:107E9000FB7383EAFA734FEAF37109919A461D93D3
:107EA00001EBB4030CEBF66101EB0E0C4CEAB601EE
:107EB0001A4401EAB5010CEAB60319430B9B1E9C58
:107EC000BB4683EAF473229C83EAF47383EAF77770
:107ED0004FEAF77404EBB000014402EBFC6070441D
:107EE00040EABC0202EAB60200EABC030B941A4361
:107EF0000E9B209C01EBF06183EAF4731F9C1E979C
:107F000083EAF47383EAF9734FEAF37401EB0E0921
:107F1000179304EBB50349EAB0011A4401EABC0126
:107F200009EAB0030E941943159B039C269D83EA2E
:107F3000F47383EAF57383EAFA7302EBF9624FEAAA
:107F4000F37402EB0E0A1D46209304EBB6034AEAD3
:107F5000B902194402EAB0020AEAB90307941A43C3
:107F6000169B219C01EBFA6183EAF47383EAF873B0
:107F700083EAF7734FEAF3779846219307EBBC0344
:107F800001EB0E0C4CEABA011A4401EAB9010CEA01
:107F9000BA031943199B239E069783EAF6731C9E26
:107FA000774683EAF673179E83EAF67E4FEAFE74FD
:107FB00004EBB000084402EBFC61CA1942EABC01C0
:107FC00001EABA0102EABC0305941943149B249CFC
:107FD00000EBF26083EAF47383EAFB7383EAF573E0
:107FE0004FEAF3749B46199304EBB90338441944E0
:107FF00040EAB203149403EABC0300EAB204234348
:10800000139C049D01EBF06184EAF5741B9D3944D7
:1080100084EAF57484EAF8744FEAF475A14624946E
:1080200005EBBA0404EB030A41EAB004139504EA31
:10803000B20401EAB0052C43129D029BB84685EAC2
:10804000F3751D9BCDF868E085EAF37585EAFE754A
:108050004FEAF57312932F46239503EBBC050AEB09
:10806000F16303EB080C4CEAB1032C4403EAB003C0
:108070000CEAB105C64643EA05080F9D229B85EA36
:10808000F3751E9B85EAF37585EAFB754FEAF57378
:108090000F9303EBB20204EBFC634244734402EB24
:1080A000F362AB46229502EB0E080D9A1F9D4FEA34
:1080B000B80482EAF57282EAF67282EAF9724FEA4D
:1080C000F27616969246259206EBB0000C9A269E02
:1080D0004FEABC0582EAF672209E85EAB1055D4052
:1080E00082EAF67228444FEAB30582EAF77285EA1B
:1080F000BC054FEAF27785EA08051597164607EBA7
:10810000B1010A9A189F2944219D82EAF7724CF224
:10811000D61782EAF57200EBF860CCF6622782EAA5
:10812000FB72384484EAB3044FEAF2754440914646
:108130001F9205EBBC02BE4618951519089A1C9FA4
:1081400001EBF06182EAF7741A9F01EB0E0284EAF8
:10815000F7744FEAB00184EAFA7781EAB8014FEA8E
:10816000F774514004EBB30303EB010C0999019B35
:108170001C9481EAF37405EBF2634FEAB205734491
:1081800085EAB00585EA0301199DF34684EAF57492
:1081900084EAF67E4FEAFE740D9404EBB8042144A1
:1081A0000B9C1B9DB24684EAF574249D0C960CEB47
:1081B000F36684EAF57406EB0B0C4FEAB30684EA27
:1081C000F97586EAB2064FEAF57486EA0C0804EB04
:1081D000B0001B9400EB08060E981D9CDDF840B023
:1081E00080EAF470239C269780EAF47080EAF7799D
:1081F0004FEAF9704CF2D617CBF8080000EBB20248
:1082000001EBFC60CCF662274FEABC01384481EAFE
:10821000B3014140541807991E9ACDF828E081EA2D
:10822000F271229A0B9581EAF27181EAFE7E4FEAA1
:10823000FE71CBF80C1001EBB30306EBF0614FEAD3
:10824000B006394486EABC064E401E44069A179B87
:1082500004EBF16782EAF373259A209C83EAF273B8
:1082600083EAF5784CF2D6154FEAF872CCF662251F
:10827000CBF8102002EBBC0207EB050C4FEAB1076C
:1082800087EAB007059B87EA0C073A4483EAF4774C
:1082900087EAFA7787EAF9734FEAF377CBF8147035
:1082A00007EBB00706EBFC604FEABC0620934319CE
:1082B00086EAB1065E40BC191498219ECDF87490F0
:1082C00080EAF6761F98CDF878E086EAF07686EABE
:1082D000FE794FEAF977CBF8187007EBB10702EB9C
:1082E000F3614FEAB302AE46294482EABC02139816
:1082F0001A9D4A403A4480EAF577269804EBF164E7
:1083000087EAF07787EAF87A4FEAFA70CBF81C0030
:1083100000EBBC0004EB0E0C4FEAB10484EAB3049A
:1083200084EA0C0404441298199D249E80EAF57096
:108330000A9DCDF85C8080EAF570209D239F80EA3D
:10834000F5754FEAF570CBF8200000EBB30302EBB4
:10835000FC604FEABC02704482EAB102424013441E
:108360000F9ACDF8849082EAF6720B9E82EAF6723A
:1083700082EAF9724FEAF278CBF8248008EBB10870
:1083800004EBF0614FEAB004714484EABC044C4051
:1083900008EB0406169C03EBF16384EAF7741D9F57
:1083A00084EAF77484EAFA784FEAF874CBF8284044
:1083B00004EBBC0C03EB0E044FEAB10383EAB003F9
:1083C00063400CEB0309159F229B87EAF3771E9B02
:1083D00087EAF37787EAF57C4FEAFC75CBF82C50F7
:1083E00005EBB00506EBF4604FEAB406704486EA8C
:1083F000B10646402E44189D259B85EAF375179BD0
:1084000085EAF37585EAF2754FEAF572CBF830200C
:1084100002EBB10109EBF0624FEAB003724483EA68
:10842000B403534001EB03091C9B0C9983EAF173DD
:10843000209983EAF17383EAF8734FEAF373CBF878
:10844000343003EBB40406EBF2634FEAB206734434
:1084500086EAB0065E4004EB06080D9E1F99CBF835
:10846000006086EAF1762199119C86EAF17686EA27
:10847000FC771B9E2699CBF8046086EAF17686EAA3
:10848000FA7686EAF5764FEAF6754FEAF777CBF893
:108490003C50CBF8387007EBB000276809EBF3616C
:1084A0004FEAB305714485EAB20507EBF6774D4014
:1084B00008EBF16607EBB2024FEAB10728447644B5
:1084C00087EAB307774000EBF6603A44704402EB6A
:1084D000F062724467682260A2683844606002EB10
:1084E000B600E268A06002EBB1002169E06001EB38
:1084F000B300206127B0BDE8F08F0000000000004D
:10850000074B19680868B0E8F04F80F30988BFF39B
:108510006F8F4FF0000080F31188704700BF00BFDD
:1085200024010020000000002DE9F04F8BB09FEDEA
:108530009E1B57EC104B98460A920191059051EC06
:10854000110B22463B460994F8F71BF99FED980B57
:1085500053EC102BF8F7A3F89FED970B53EC106B2F
:1085600032460893F7F7F4FFF8F7EDF99FED940B17
:10857000049059EC105B204639462A464B46F8F7E2
:108580008EF82A464B4683468A46F8F784F99FEDD3
:108590008E0B00281CBFCA46AB4653EC102B584626
:1085A0005146F8F77CF8089C32462346F7F7D0FF8F
:1085B000F8F7C9F905460A98F8F799F9099A3B4678
:1085C000F8F76DF832462346F7F7C2FFF8F7BBF924
:1085D000019C0128C0F2E2800199DDE915C901EB97
:1085E000400003900CEB4800A0F1020B0598179B8C
:1085F000ADB202384FF0000A00220C46002702906C
:108600001BE000BFDDF818A0002707EB0E0014994F
:108610008010484300F58050099C20F34F3024F827
:10862000020B04980A9F089A0399179B0744024477
:108630008C42AAEB000A80F0B180394605986FF3AE
:10864000DF310A97FE0B01FB05F700EB46004FEA0E
:108650009751CDE90824CDE906A6FBB1414541D2A9
:10866000FA0B4FF0000E00BF3CF9114039F9111020
:1086700002F07F07794330F9027904EBE111794385
:108680008C0448BF01F500512A440EEBA13EB8EB23
:10869000D21F4FEAD211E7D826E000BF414521D2D0
:1086A0006FF3DF326A4305EBD2320CEB41014FF03E
:1086B000000E00BFB1F9001030F902494FF4005626
:1086C00004FB01F75FEA874A48BF14FB0167D10941
:1086D0000EEBA73E0CEB4101B8EBD21F2A44E9D8C0
:1086E00002E000BF4FF0000E02980799002700EB50
:1086F00041000A9949426FF3DF3105FB01F200297D
:1087000008BF2F4607EBD231CC090CEB44020BB368
:108710005A45BFF477AFDDF818A000273CF91420C4
:1087200039F9144001F07F067443B0F9046002EB9C
:10873000E41272439404294448BF02F50052CC0964
:1087400007EBA2370CEB44025A4500F10200E5D3D7
:108750005BE700BF5A45BFF455AFDDF818A0EC1930
:1087600051466FF3DF316943C90B2144002700BF35
:10877000B2F90020B0F90440023004FB02F6B30461
:108780004FF4005348BF14FB0236CA090CEB4202F7
:1087900007EBA63729445A45EAD336E70198201A51
:1087A00040100BB0BDE8F08F000000000000F03F6B
:1087B000000000000000E040000000000000E03F7A
:1087C0000000000000007040000000000000604059
:1087D0002DE9F04F89B09FED861B56EC10BB069338
:1087E00014468946079051EC110B5A463346F7F769
:1087F000C8FF9FED810B53EC102BF7F750FF9FED57
:10880000800B55EC107B3A462B46F7F7A1FEF8F7A4
:108810009AF805902046F8F76AF85A463346F7F773
:108820003EFF3A462B46F7F793FEF8F78CF80128FF
:108830004946CDF80490C0F2D180DDF80490DDE91E
:1088400013B109EB400004900698159D0BEB40080E
:10885000A1F5007002900798A8F1020A02380023DF
:108860004FF0000C039015E0089B002101EB0E0077
:1088700012998010484300F5805020F34F3029F8BA
:10888000020B05980499159D84448945A3EB0003C8
:1088900080F0A480079808934FEADC33CCF3C7112B
:1088A00000EB43040BEB4107002D284618BF0CF0EA
:1088B0007F001FD0069A914236D2029A4FF0000EE6
:1088C00002EB4101B1F90062B7F900B0464334F957
:1088D00002290BEBE6167243960407F5007701F5C3
:1088E000007148BF02F500520EEBA23E4745E9D3A6
:1088F0001CE000BF06984FF0000E814216D200BF68
:10890000B7F9000034F9021907F5007701FB00F20E
:1089100096044FF4005648BF11FB006247450EEB2A
:10892000A23EEDD302E000BF4FF0000E0398CCF161
:1089300000010A4600EB430428466FF3DF32DDF8FE
:108940004CB0002D18BF01F07F00B2FA82F1D209BD
:1089500049090BEB420202EB41271DB35745BFF417
:1089600083AF089B0902C3F3C7121144029A02EBBA
:1089700041060021B6F90022B7F90050424305EB49
:10898000E212B4F9045007F500776A43950406F53E
:10899000007648BF02F5005201EBA2310234574580
:1089A000E8D363E75745BFF45FAF089B002100BFE2
:1089B000B7F90000B4F9042007F5007702FB00F5D1
:1089C000AE044FF4005648BF12FB006501EBA53121
:1089D000574504F10204EBD348E700BF0198A9EB27
:1089E0000000401009B0BDE8F08F00BF00BF00BF1D
:1089F000000000000000F03F000000000000E04028
:108A0000000000000000E03F80B5FAF7CDF99DF0CE
:108A100091FB012808BF80BDBDE880409CF0D0BC20
:108A2000B0B59EB043F64004002501A83021C4F241
:108A30000204CDE91655CDE914551195CDE90F5530
:108A4000CDE90D55F7F77FFC0095206840F0805088
:108A50002060206800F080500090009847F20000ED
:108A60000095C4F20000016841F4404101600068D3
:108A70004FF4800100F440400090009801201290D3
:108A80004FF4803019911921139002201A914FF45C
:108A9000B4711890CDE91B1008201D9012A8FAF7A8
:108AA000F9FC002818BFF8F79FFCFAF777FA0028BE
:108AB00018BFF8F799FC0F200D9000200F904FF48D
:108AC000A05010904FF48050022511900DA8052160
:108AD0000E95FAF7C5FB002818BFF8F785FC4FF490
:108AE000AC700290072004900120089001A8019525
:108AF000FAF792FAFAF74AF941F20101884205D1F0
:108B0000D4F8C00340F48070C4F8C0031EB0B0BDF8
:108B1000B0B582B0002543F630000195C4F20200E2
:108B2000016840F2C00441F4805101600168A0F581
:108B3000036001F480510191C2F2000401992060A8
:108B40002046F9F7A3FD002818BFF8F74DFC43F6BF
:108B500034000095C4F20200016841F04001016058
:108B6000006800F040000090009840F60000C5F258
:108B7000060044F8080F2046FAF748FE20B102B07C
:108B8000BDE8B040F8F730BC02B0B0BD4EF688503A
:108B9000CEF2000001684FF6FF7341F470010160EE
:108BA00043F60000C4F202000168CFF6F66341F01C
:108BB000010101600021816002681A40026043F2F5
:108BC0001002C2F200424260026822F48022026077
:108BD000C160FDF765BC000010B582B00F20012117
:108BE000F8F786FEF9F7D8FB00240AA1002000223E
:108BF00000230094FDF764FF09A100200022002358
:108C00000094FDF7C9FF08A1002002B0BDE81040A4
:108C1000FEF74CB95254545F444F574E00000000C9
:108C20005254545F555000004C6F6720506C617473
:108C3000686F6D20496E697420436F6D70656C7448
:108C400065210D0A0000000040F6E470C2F2000049
:108C5000FBF7FCBD10B540F6FF3E0368C4F2000E02
:108C600040F2004C7045C4F2010C27DCB0F1804F9B
:108C700031D040F20042C4F2000290422BD040F6C4
:108C80000002C4F20002904225D041F6FF72C4F205
:108C90000002904229DC70453CDCB0F1804F5FD08F
:108CA00040F20042C4F20002904259D040F6000265
:108CB000C4F20002904253D056E000BF40F600429A
:108CC000C4F20002904206D0604504D00022C4F2F3
:108CD00001029042D9D14A6823F07003134341F650
:108CE000FF72C4F200029042D5DD43F6FF72C4F277
:108CF0000102904222DC42F20002C4F200029042E1
:108D00002ED00022C4F20102904229D0604527D023
:108D10002AE000BF40F60042C4F2000290421FD099
:108D200041F60002C4F20002904219D041F600421E
:108D3000C4F20002904213D016E000BF44F20002D9
:108D4000C4F2010290420BD044F60002C4F20102C8
:108D5000904205D044F20042C4F20102904203D195
:108D6000CA6823F44073134323F080024B69D1F89F
:108D700000E08C681A430260C46240F48062C0F86C
:108D800028E0624504BF096901630121416110BD0A
:108D900070B5034600284FF0160018BF002901D116
:108DA00070BD00BF002A08BF70BDD3E9000CD1E937
:108DB000004E251A7EEB0C0530DA9B688D68001B8F
:108DC0006CEB0E065B1B4CF600241D46C3F69A3472
:108DD00048BF254410EBE37146EBE370A54224BF86
:108DE000162070BD4DF68363C4F21B33A5FB03361A
:108DF000B40C43F6095363434FF47A7CA5EB831319
:108E000000FB0CF00125002B18BF05EB9644E1FB9D
:108E10000C40002818BF1620146070BD051B7CEBA9
:108E20000E0501DA742070BD9B688D68AB42C6DC0C
:108E30004FF00006B8BF4FF0FF36711C4FF0000135
:108E4000F0D0002EBBD100200025CBE770B54CF64A
:108E50000025C3F69A3514462A4600230646F7F73E
:108E6000F8F900FB1562C4E90001B2F1FF3FA2600E
:108E7000C8BF70BD013861F100012A4407C470BD4C
:108E800080B582B04CF29900C0F60B004CF2500253
:108E9000C0F60B02114605F053FA694600234B60F9
:108EA0001F20086043F22D60C0F60A004CF2A501B5
:108EB000C0F60B014FF480529DF0D2F89BF01AFAE5
:108EC000FFE7FEE710B540F2F014C2F200044FF6DF
:108ED0007070611CC0F60A00F9F7BAFAF8F7A8F842
:108EE000B0FA80F04009207010BD00002DE9F04F6D
:108EF00081B08B46DDE90A911F461546934504462D
:108F000002D24FF001081FE04FF00408584600BF9E
:108F1000B0FBF5F0A84211D3B0FBF5F0A84211D395
:108F2000B0FBF5F0A8420FD3B0FBF5F008F1040850
:108F3000A842EDD2A8F1030806E000BFA8F102089C
:108F400002E000BFA8F10108B84538BFB846B9F142
:108F5000000F01F00100009034D098BB2026880754
:108F600048BF30264FF0000A2020002F18BF0646C9
:108F700008E000BFC4F808A0E068A9F10109B0F159
:108F8000FF3F1FDDB9F1000F1CD0C8451AD2D4E94C
:108F90000120411C914207D822681654E06862689B
:108FA0000130E0600846A1609042E5D12168206967
:108FB000FDF75CFEA1688842DCD04FF0FF30E06036
:108FC000A9F10109E068002859D4012602E000BF98
:108FD000013F6E43022F01D3013F03E0BBFBF6F1DB
:108FE000A9421BD3012F05FB06F601D9013F03E07F
:108FF000BBFBF6F1A94211D3012F05FB06F601D9FF
:10900000013F03E0BBFBF6F1A94207D3012F05FBAB
:1090100006F6DDD8BBFBF6F1A942DAD2A2682EA78C
:109020006168BBFBF6FA531C8B4209D817F80A009B
:1090300021688854E068616801301A46A360E060E6
:109040008A4209D121682069FDF710FEA26890428A
:109050000CD1E0680022A26000280AD4B6FBF5F12A
:109060000AFB16BBAE420E46DAD202E04FF0FF30EA
:10907000E0600099002918BFB9F1000F02D101B0DA
:10908000BDE8F08F2025A9F101064E4538BFC8453F
:10909000F5D26168531C8B4207D820688554E0687C
:1090A000616801301A46A360E0608A4209D12168F4
:1090B0002069FDF7DBFDA168884207D1E068002246
:1090C000A260B0F1FF3FB146DDDCD8E74FF0FF30E2
:1090D000E06001B0BDE8F08F3031323334353637DF
:1090E000383941424344454682B094460A460346D5
:1090F00003A10020CDF800C0FDF7D8FEFEE700BFB9
:109100004173736572742061742066696C652025F3
:10911000732C20657870722025732C206C696E6525
:109120002025640081B00090009880EA800001B0A2
:10913000704700002DE9F04F85B090460E9A0D461D
:10914000991A07463CBF7889091AB8888EB28642B8
:109150000BD9191A8AB29A4202D8BB899A4201D90C
:109160007A89891A39823A8A01460B0442D0DDF89D
:109170003CC000BF93B283420ED3121A93B2834213
:109180000AD3121A93B2834206D3131A9AB28242B6
:10919000A3EB0002EED21A468BB2434538BF884695
:1091A0001FFA82FB831AFA88D7F80090A8EB030411
:1091B00002FB0B911FFA88F602FB03FABCF1010FC8
:1091C00002FB04F41ED0BCF1000F0DD198B2864210
:1091D00032D91FFA8AF22846F7F78EF8396815FA5D
:1091E0008AF0A2B2F7F788F81FFA88F005B0BDE858
:1091F000F08F00BF4FF000081FFA88F005B0BDE8FF
:10920000F08F00BF9BB29E4220D94FF6FC731AEA42
:10921000030C019456D0CAF38D07CAF38103A7F15A
:10922000010E3BB30E46644656F804CB012BC5F83D
:1092300000C021D1774633E072432846F7F75CF847
:109240001FFA88F005B0BDE8F08F00BF02FB08F000
:1092500082B2920800F0988012F00307A2F1010395
:1092600000F0848051F8046B012F2E600CD11A4657
:109270007CE000BF0E4614E056F804CB022BC5F884
:1092800000C009D1023F0BE051F8046B022F2E60A1
:1092900068D1023A6AE000BF56F8043B033F2B60F6
:1092A000A446BEF1030F0DD3103E00BF56F8103F89
:1092B000043F2B6073683C042B60B3682B60F36839
:1092C0002B60F3D11AF003072AD0019CA0EB0B000E
:1092D000C7F10406A3B250430DF1080A6144B3423A
:1092E0004FF0000300F00302504638BF26460293B9
:1092F000F7F702F83006A4EB06040CD0781E5AFAF1
:1093000080F00130B2B24946F6F7F6FF701E59FA06
:1093100080F000F1010902982860200404D163E77D
:10932000019C20043FF460AFC4F38D03002B52D0A6
:1093300013F00307A3F1010210D0484650F8041BB4
:10934000012F2960114635D0D9F80400022F28607A
:109350002AD1991E09F108002CE000BF48461946A1
:1093600028E000BF51F8047B033A2F60032B0BD396
:109370000B68043A2B604B682B608B682B60CB68C2
:1093800010312B601304F3D110F003023FF42CAF23
:109390000020039003A8F6F7AFFF039828601FFA98
:1093A00088F005B0BDE8F08FD9F80800D91E286014
:1093B00009F10C00032A81460DD300BF026804396D
:1093C0002A6042682A6082682A60C26810302A6077
:1093D0000A04F3D1814614F003023FF405AF0020E4
:1093E000049004A84946F6F787FF049828601FFAFE
:1093F00088F005B0BDE8F08F2DE9F04F89B0EAB1F3
:10940000814640699A4690460E4618B14FF0FF31AA
:109410009CF00EFDB9F80E50B9F8100099F808202C
:10942000B9F8041092B141451AD8B9F80620A8EB52
:10943000010303FB02660546884611E04FF0000871
:109440001FFA88F009B0BDE8F08F00BF281A3CBFB2
:10945000B9F80A20801A081A82B2424598BF80469D
:10946000284600BF82B28A420ED3401A82B28A4294
:109470000AD3401A82B28A4206D3421A90B2884274
:10948000A2EB0100EED21046B9F806C0D9F8007080
:109490001FFA80FE0B1AA8EB03040CFB0E701FFAD8
:1094A00088FB03FB0CF2BAF1010F04FB0CF413D0A0
:1094B000BAF1000FDA4640F0F98099B28A452BD90B
:1094C000174692B23146F6F717FFD9F8000016FAA0
:1094D00087F1A2B2E8E000BF9BB2DA469B451FD9F4
:1094E0004FF6FC7304921A4005940395029253D0F0
:1094F000049AC2F38D04C2F38103A4F101051BB3E6
:10950000019535680246012B42F8045B1ED1019D8E
:10951000DA462C4630E000BF0CFB0AF23146C3E0CD
:109520000CFB08F18AB2920800F0998012F0030750
:10953000A2F1010300F084803468012F40F8044B4D
:109540000CD11A467CE000BF024615E03568022BBC
:1095500042F8045B0AD1023C0CE000BF3468022FE1
:1095600040F8044B68D1023A6AE000BF3368033C1C
:1095700042F8043B019DDA46032D0DD3A2F11003FE
:109580003568043C43F8105F356822045D60356837
:109590009D603568DD60F3D1049AD34612F0030A6A
:1095A00028D0029A059D1044CAF10404AAB2A2422E
:1095B0003268A1EB0E0101FB0CF138BF2C4606927C
:1095C00001F0030206A9F6F797FED9F8007020060D
:1095D000A5EB040505950DD0AAF1010006A951FAE5
:1095E00080F0411CA2B23846F6F786FE601E57FA9C
:1095F00080F0471C059C039DDA46200456D0C4F336
:109600008D01002949D011F00303A1F1010209D015
:1096100035683846012B40F8045B05D107461146F2
:109620002AE000BF29E000BF3068022B78601DD11E
:10963000023907F108001EE03768033A40F8047B5E
:10964000032B0CD33368043A0360336843603368F8
:1096500083603368C360130400F11000F2D111F08D
:10966000030223D03168079107A91DE03068033950
:10967000B86007F10C000746039D032A0ED300BF14
:10968000306804393860306878603068B8603068B5
:10969000F860080407F11007F2D1384614F003020D
:1096A00004D03168089108A9F6F726FE0AEB0500F8
:1096B00081B2A94203D3B9F80C20914202D9B9F87A
:1096C0000A100844A9F80E00D9F8140000283FF445
:1096D000B7AE0021002200239BF0D6FF1FFA88F0CE
:1096E00009B0BDE8F08F00002DE9F04FCBB0044683
:1096F000002093464390CDE94100CDE93F00CDE9FC
:109700003D0047F678509269C0F60A0041F2B8036E
:109710008846D0E90001D5581D91AE6BD2F804A05F
:10972000002E1C9006DC2E6B26B99AF83C0069F0DE
:10973000C3FF0646A86C05F144070028D4F82003AF
:1097400008BF05F1280738B304F6B815284639468E
:109750003CF0B8F820B9D4F8C409504500F08E8028
:10976000284639463CF0AEF820B1206829463A46F2
:109770003CF0F4F9D4F8D40929465246C4F8C0693B
:10978000C4F8C4A965F064FCD4F8DC0C20B1D4F8AA
:10979000C429294664F078FED4F8240358B104F5AE
:1097A0001E65284639463CF08DF820B120682946D0
:1097B0003A463CF0D3F9D4F8140398B1D4F8880AA7
:1097C000022813D137F024FA04280BDBD4F88C29B3
:1097D00049F6C6604AF23911C0F60C00C0F60C0119
:1097E00037F0C8F900204BB0BDE8F08F49F6E370C0
:1097F000C0F60C004FF400714FF400727DF0BEF91A
:10980000D4F8A429D4F8A83900251CA913900095F0
:1098100063F010FA002800F07381406A002800F01D
:109820007B8101681296496888470546C06920B95E
:109830009AF83C0069F040FFE8614FF61070C0F6FE
:109840000A00B0F8009005F1140644AB4846002128
:1098500032463BF067FA30B93DAB484600213A4604
:109860003BF060FAE0B1E869DDF84890484523D163
:10987000304639463CF03CFBF0B909E1D4F8C00968
:10988000B0423FF489AF38461EF0DAF800283FF4C2
:1098900067AFD4F8140302283FF462AF7CE700BF3F
:1098A000E869DDF84890484506D144A83DA93AF05A
:1098B0008FFE002800F0EC80DBF8180041F2680110
:1098C00001443AA83BF0EAFED4F81403022814D06D
:1098D00030461EF0B5F828B93AA81EF0B1F80028B5
:1098E00000F00881D4F81403022806D044A83DA94A
:1098F0003AF06EFE002800F0F780E96901252CAAF5
:109900003046382300952DF023FE1EAE38464946DA
:109910003246382300952DF01BFE37F079F90328E5
:109920000FDBD4F88C2949F6C66049F60931C0F638
:109930000C00C0F60C012CAB0096CDF8048037F07B
:1099400005F9A8F10100022803D3B8F1040F40F093
:10995000EF80B8F1010F0ED1D4F88C090021002559
:1099600070F0B8F9D4F8D40928B164F049FFC4F80C
:10997000D459C4F8A8599AF83C0069F0A3FEDAF863
:109980003C104BF2886611F080024DF6AC22C0F616
:109990000B02C0F60C0608BF324611924AF6C77297
:1099A000C0F60C0208BF3246109241F08002812AB4
:1099B00000F0020B04D100208DF850000CE000BF35
:1099C000C8B26AF021F84AF283020346C0F60C02DC
:1099D00014A820219DF026FA13984FF48071CDF839
:1099E000388037F0F1FE45F64E13BBF1000FC0F69C
:1099F0000C030F9008D0D4F8A00945F68411C0F6E6
:109A00000C01002818BF0B46D4F89C1949F67F5268
:109A1000C0F60C02D4F898C9002908BF3246D4E930
:109A200027A0D4F8288349F69569C0F60C09D7E930
:109A300000EBD4E92957B8F1000F08BFB146CDE9D2
:109A40000C0A1198CDE9001C03A914AECDE90A59FE
:109A500081E8014810980F9DCDE90867129F029296
:109A6000069039A228464FF4807107979DF0DAF9E5
:109A7000A0F5807010F5807F12D837F0C9F8012862
:109A800006DB49F6C660C0F60C0038A137F036F8A0
:109A9000139838F0C5F900204BB0BDE8F08F00BF37
:109AA000206804F6A4112A463CF0CCF8204699F030
:109AB00057F90E98022809D1D4F8D40940B104F618
:109AC000AC12012165F06EFB02E000BF032804D850
:109AD000D4F88C09012170F0FDF8139838F0A0F942
:109AE00001204BB0BDE8F08F38461DF0A9FF0028DB
:109AF000CED102E738461DF0A3FF0028C8D1F1E619
:109B000049F64C5049F69961C0F60C00C0F60C01BC
:109B100040F2FE62FFF7E8FA49F6435049F69961D0
:109B2000C0F60C00C0F60C014FF4E062FFF7DCFA5F
:109B300049F6815049F69961C0F60C00C0F60C0157
:109B40004FF4EB62FFF7D0FA3C25733A252E2A73C7
:109B500025732573252E2A7325733A2564257325CD
:109B60002E2A7325733E252E2A7300005552492054
:109B7000746F6F206C6F6E6700000000F0B583B0EB
:109B80000F2838D80D4646F2B8511446C2F20001EB
:109B90004FF4227200FB021669460DF10A023046AC
:109BA00088F084FC40B10746002D18BF002C07D177
:109BB000386803B0F0BD00BF30460B2119E000BF8C
:109BC0000098042810D1206810280DDBBDF80A0089
:109BD000022129808DF08CF901996880102069603C
:109BE0002060386803B0F0BD384688F027FD304665
:109BF000162189F067FA4FF0FF3003B0F0BD000086
:109C00002DE9F04F8DB001900BA8CDE902230C4651
:109C100031F0C0F9002009904FF4FA600A9009A8C9
:109C200042F0F6F942F6BF3043F648656043CCF2A5
:109C3000000505EBC00000F5CC51049141F6A811D8
:109C40000094014400F5BA304FF0010807AE4FF020
:109C5000000A4FF0000B4FF0000900240691059018
:109C60000EE000BFD5F8CC0437F09AFB70B34FF08C
:109C70000009384642F01AF90AF1010A4FF00008CB
:109C80004CF6CD40CCF6CC40AAFB0001CF0807EB48
:109C90008700092101EB40005045E3D1304631F007
:109CA00079F9DDE90B01DDE90723101A0790581A4D
:109CB0000890304642F0ACF907980999884233DCA5
:109CC000D0D108980A998842CCDB2DE042F00CF9FB
:109CD000069AD5F8D0141268C5F8D404481CC5F803
:109CE000D00402F15000002A059A08BF02F5337033
:109CF0000468BCB320465AF053FCD5F8D0140028B1
:109D0000A1F10101C5F8D0144CD0002904BF0020F6
:109D1000C5F8D404D5F8CC0437F0E2FBDDF810B078
:109D20004FF00109A5E700BF5FEAC87045D136F0E2
:109D30006FFFB9F1000F4BD041F279140128C0F246
:109D400001040ADB4AF2B8704AF63141019AC0F6C2
:109D50000C00C0F60C0136F0D1FE20460DB0BDE877
:109D6000F08F00BF0029C5F8D01404BF0020C5F84B
:109D7000D404D5F8CC0449F68444C0F2020437F088
:109D8000AFFB36F045FF0328E7DB4AF2B870DDE9A8
:109D90000023C0F60C0019A136F0D8FE20460DB005
:109DA000BDE8F08F002904BF0020C5F8D404D5F821
:109DB000CC0437F095FBDDF810B00298C0F800B085
:109DC00003980460002420460DB0BDE8F08F00BF6A
:109DD00041F279140128C0F20104BEDB4AF2B870E6
:109DE0004AF6E231019AC0F60C00C0F60C0136F0DA
:109DF00085FE20460DB0BDE8F08F00BF496E76614C
:109E00006C69642063616C6C5F69642025642069FF
:109E10006E202573000000002DE9F04FBDB0804694
:109E20000029069300F07E8093460C4608F62C002D
:109E30004FF000091D901C921E911DE0C2EBC20064
:109E400008EB001606F50165284651467022F6F724
:109E500053FAD8F8200006F502610AF110023BF02F
:109E60007DFED8F80C08411CC8F80C18286000BF0B
:109E700009F10109A14555D0C9EBC9000BEB001A46
:109E8000574617F80C0F0028F2D0D8F8E41081429A
:109E9000EED398F83C10D8F80C28002911462BD0A6
:109EA000002ACBD01D9E0AF11C050AF104044FF0D4
:109EB000000B11461F9216F8102C904212D105E0AB
:109EC0003878703616F8102C90420BD1207816F89E
:109ED000182C904206D1284631463AF079FBD8F842
:109EE0000C1818B10BF1010B8B45E9D31C981F9A84
:109EF0001E9C8B458346BBD310299FD30AF11C00BF
:109F000020A9382203233BF0E7F9034641F27610FB
:109F1000C0F20100011D40460FF6B45237F0BEFBFF
:109F2000A6E700BF08F5F1500990D8F8040108F63B
:109F3000E87100281E9100F0C18441F2E84108EB6D
:109F4000010908F58051119108F58871079141F2D6
:109F500078014144189131A908310D9141F2EC4149
:109F60004144089120AD4FF4805A002200210A910B
:109F7000CDF8389006E000BFD8F8040101328242E3
:109F800080F09F84D8F808188A4234BFD8F8103F70
:109F90000023D8F80C188B42F0D2C2EBC20008EBB9
:109FA000001000F58471159100F58A711A9100F581
:109FB00092710F9100F58C7100F58E700C910B90E1
:109FC000149209E0DDF8389020AD149A1C9BD8F863
:109FD0000C0801338342CFD2C3EBC300D8F8E4EFBF
:109FE00008EB0014BEF1200F04F5016CC0F0C08135
:109FF00098F82C001599022860461C9304BF084667
:10A000006146896980690D460A46884238BF05461F
:10A0100088BF02465200884288BF01321199CEF1B2
:10A0200000004FF0030B1392CDE916C40A78042AFE
:10A0300000F0328100EB0B02022A1AD091F828308E
:10A04000042B00F03181012A13D091F85020042A0A
:10A0500000F03082DE450CD091F87820042A00F020
:10A0600025810BF1040B00EB0B02032A01F1A00187
:10A07000DCD1D8F8E410109541B1481E032809D26C
:10A0800000204FF0000931AD57E000BF4FF000094C
:10A090009CE000BF079F21F0030200204FF0000961
:10A0A00031AD00BF3B4653F8286D0430002E1CBF75
:10A0B00045F8293009F101093B4653F8246D002E7B
:10A0C0001CBF45F8293009F101093B4653F81C6DC6
:10A0D000002E1CBF45F8293009F101093B4653F811
:10A0E000186D002E1CBF45F8293009F101093B46C7
:10A0F00053F8106D002E1CBF45F8293009F10109F5
:10A100003B4653F80C6D002E1CBF45F8293009F171
:10A1100001093B4653F8046D002E1CBF45F8293059
:10A1200009F101093B68002B1CBF45F8297009F1B2
:10A130000109824207F13007B4D111F0030145D083
:10A1400000EB400208EB8202134653F8E87F002F31
:10A150001CBF45F8293009F1010952F8EC3F002BEA
:10A160001CBF45F8292009F1010901292ED0421C04
:10A1700002EB420208EB8202134653F8E87F002FFD
:10A180001CBF45F8293009F1010952F8EC3F002BBA
:10A190001CBF45F8292009F10109022916D0023017
:10A1A00000EB400008EB8000014651F8E82F002A40
:10A1B0001CBF45F8291009F1010950F8EC1F0029CE
:10A1C0001CBF45F8290009F1010900BFBEF1010FCC
:10A1D00054D1AEF1010B0BEB8B0008EBC005D5F8A9
:10A1E000F80F139AD5F8FC1F801A109871EB000035
:10A1F000BFF4E8AE36F00CFD0428C0F2A580D5F817
:10A20000E80FD5F8EC6F00F11C0590F80C9028468B
:10A2100020A92E2202233BF05FF8044628463AF09C
:10A2200099FB06F11C070546384631A92E22022368
:10A230003BF052F8064638463AF08CFBCDE90094E4
:10A24000099C43F2D562074620468021C0F60C02E5
:10A250005B46CDE9025604979CF0E4FD7F217F2800
:10A26000A8BF084641460028C8BF014400204FF45B
:10A27000F1520FF67C2388545EE000BFA9F1010083
:10A28000129009F003001B9029F003000024F4460B
:10A290001990CDF874E021E1ABF1030B36F0B8FC76
:10A2A000042807DA52E000BFABF1020B36F0B0FC35
:10A2B00004284BDB0BEB8B0008EBC000D0F8E81F49
:10A2C000D0F8EC5F087B01F11C061F90304620A9F6
:10A2D0002E2202233BF000F8074630463AF03AFBC4
:10A2E00005F11C090646484631A92E2202233AF000
:10A2F000F3FF044648463AF02DFB05461F98CDE98A
:10A300000264099C43F2D562CDE900072046802112
:10A31000C0F60C025B4604959CF084FD7F217F28EB
:10A32000A8BF084641460028C8BF014400204FF49A
:10A33000F15288540FF6D01343F27E414046C0F6E6
:10A340000C01224636F016FCDDF83890D8F8E42FE0
:10A350001E9828215B462DF06DF9D8F8E40F149A69
:10A360001C9BDDE916C4A0F1010E20ADC8F8E4EF96
:10A370001A9894F81C18007888427FF428AE0F9839
:10A38000B4F82C18008888427FF421AE0EEB8E00C2
:10A3900008EBC00B98F82C001599022860461C9316
:10A3A000CBF8E81FCBF8ECCF0CBF08468C46DCF8A6
:10A3B000181080690A46884238BF024688BF0146A5
:10A3C0004FEA410088BF0130CBF8F80F00270C9806
:10A3D0000B99CBF8FC2F0BF80A7000680B68D4F8C7
:10A3E0002418D4F82068CDE90001284641210FF651
:10A3F000301202969CF016FDD9F8000088B1089E34
:10A40000002700BF304629463BF0D2FAC0B1D9F848
:10A4100000000137874206F10806F3D3202880F0B8
:10A420003382D8F8200008EBC70141F2EC42114416
:10A430002A463BF0DBFBD9F800000130C9F80000E8
:10A44000002FCBF8F07F3FF5C0ADD8F85C000028B6
:10A4500000F02A82D8F8E4EFBEF1000F00F01A8273
:10A46000119B0BF6F87C002106E000BF01318E4500
:10A4700003F1280300F0118253F8106CBE42F5D1AD
:10A480001E78741E022CC0F00682032E00F0058296
:10A4900053F8186C1A98367B0478A642C0F0FB81FA
:10A4A000E4D153E90264DCE90020921BA041DDD233
:10A4B000F1E100BFABF1010B36F0AAFB0428BFF6B7
:10A4C000F9AE43E7076000BFD8F8E4CFDDF874E0E9
:10A4D0001F9CACF101008442BFF47BAEA346013463
:10A4E0006445F6D26FEA0B00604410F003025E464A
:10A4F00027466DD01E9F04EB840007EBC0030BEBD7
:10A500008B01187E07EBC1073E7E032802D1042E83
:10A5100006D108E0032E03D104285E4604D00326AA
:10A52000801B00283ADD2646012A0BF102074FD096
:10A530001E9907EB870001EBC00E06EB86009EF824
:10A54000183001EBC000057E032B03D1042D06D18A
:10A5500009E000BF032D02D1042B05D00325591BB0
:10A56000002940F353813E46022A0BF1030703D131
:10A57000DDF874E02CE000BF1E9907EB870001EBCB
:10A58000C00206EB8600137E01EBC000057EDDF8FD
:10A5900074E0032B10D1042D13D116E05E46C3D115
:10A5A000D3E90401D7E904375E46181A77EB0100B6
:10A5B00038BF2646B8E700BF032D02D1042B05D0D3
:10A5C0000325591B002940F343813E460BF1040744
:10A5D000ACEB0B00023803281F9429D21F9C5E4568
:10A5E0003FF477AF1E9C0BEB8B0004EBC00720AD54
:10A5F000284639462822F5F77FFE06EB860004EB55
:10A60000C006384631462822F5F776FE3046294600
:10A610002822F5F771FE199CB9F1000F0DF1C40C59
:10A620003FF452AF1298032880F0A0800020DAE0B7
:10A63000189907EB8700CCF10002FB1C01EBC00767
:10A640000AE000BF691A002960DD1E460433D018F5
:10A65000032807F1A007C1D006EB860017F8785C45
:10A6600008EBC00010F80A10032D03D1042907D10C
:10A6700009E000BF032903D1042D05D0032100BF49
:10A68000691A00294EDDDE1E06EB860017F8505CC5
:10A6900008EBC00010F80A10032D03D1042907D1DC
:10A6A00009E000BF032903D1042D05D0032100BF19
:10A6B000691A002942DD9E1E06EB860017F8285C09
:10A6C00008EBC00010F80A10032D03D1042907D1AC
:10A6D00009E000BF032903D1042D05D0032100BFE9
:10A6E000691A002936DD5E1E06EB86003D7808EB10
:10A6F000C00010F80A10032D02D10429A2D1A4E74A
:10A7000003299FD1042DA1D003219BE79ED157E9B6
:10A710000215D0F8F84FD0F8FC0F611AA84138BFE5
:10A720001E4693E7B0D157E92015D0F8F84FD0F87E
:10A73000FC0F611AA84138BFDE1EA5E7BCD157E95E
:10A740001615D0F8F84FD0F8FC0F611AA84138BFA1
:10A750009E1EB1E7C8D157E90C15D0F8F84FD0F8D4
:10A76000FC0F611AA84138BF5E1EBDE70D9900209D
:10A7700006E000BF13600430844201F1100132D0C2
:10A7800051F8082C3B461568B54205D0BD4233460A
:10A7900008BF136001E000BF136051F8042C3B4672
:10A7A0001568B54204D0BD42334608BF136000E0CF
:10A7B00013600A683B461568B54205D0BD42334672
:10A7C00008BF136001E000BF13604A683B4615688C
:10A7D000B542CFD0BD42334608BF13600430844237
:10A7E00001F11001CCD11B9900293FF46DAE5CF84A
:10A7F00020103A460B68B34214D0BB42324608BF21
:10A800000A601B9901293FF45FAE10E07FF4ACAE03
:10A81000DEE90413D0E90405401A75EB030038BFE4
:10A820003E46A1E60A601B9901293FF44DAE0CEBB0
:10A83000800041683A460B68B34215D0BB423246AD
:10A8400008BF0A601B9902293FF43EAE11E000BF29
:10A850007FF4BCAED2E90412D0E90403401A73EBD2
:10A86000020038BF3E46B1E60A601B9902293FF458
:10A870002BAE80680168B1423FF424AEB94237463E
:10A8800008BF076020E600BF4FF0FF30CBF8F00FA5
:10A89000FFF79BBB0021714506D10BF6E8714046DE
:10A8A0000122002302F0A4FCD8F8E40F0130C8F81C
:10A8B000E40F0A9801300A90FFF787BB00200A9046
:10A8C00000200699B1B1D8F8E41F99B936F0A0F983
:10A8D000042806DB43F25471C0F60C01404636F002
:10A8E00049F941F27614C0F2010420463DB0BDE8BA
:10A8F000F08F00BF08F57E6119910A99C8F8080821
:10A90000D8F80C080029C8F8100F00F0198119991F
:10A91000404688F089FCD8F8E40F002800F0108148
:10A9200008F58474002602E0013686425AD206EB0E
:10A93000860108EBC101D1F8E89F99F80420013A9B
:10A94000012AF1D8D8F8040109F1380BF0B101F669
:10A95000E87A0027254606E0D8F804010137874247
:10A9600005F170050DD229790029F7D105F11C01F7
:10A97000584639F02DFE0028EED1D8F80401CAF867
:10A980000050874202D0D8F8E40FCDE736F040F906
:10A9900004281EDB20A958462E2202233AF09CFCF4
:10A9A0000646584639F0D6FF0346A9EB0800A0F545
:10A9B000847046F6B7510011CBF2DB6100FB01F762
:10A9C00043F27B61C0F60C0140463246009736F0F8
:10A9D000D1F84AF2AC54C0F2050420463DB0BDE8BF
:10A9E000F08F00BF002800F0AB804FF480570FF2CB
:10A9F0003C3A002104E000BF1B99814280F0A08016
:10AA000001F101098145CDF86C90F5D201EB81018E
:10AA100008EBC101D1F8E8BFD1F8EC4F0BF13801D8
:10AA20001A911C9406E000BF944273D009F1010909
:10AA30008145E1D209EB890108EBC105E95D0229F5
:10AA4000F4D2D5F8E81F05F6EC7632688B45EBD1E9
:10AA500094425346E8D11F9336F0DAF804284ADBD3
:10AA600005F6E87000683568017B00F11C061D9151
:10AA7000304620A92E2202233AF02EFC5C46834663
:10AA8000304639F067FF574605F11C0A0646504626
:10AA900031A92E2202233AF01FFC05465046BA4641
:10AAA00039F058FF07461D98CDE90265099D43F22C
:10AAB000D562CDE9000BA3461C9C28468021C0F638
:10AAC0000C024B4604974FF480579CF0ABF97F285B
:10AAD000A8BF7F2041460028C8BF014400204FF492
:10AAE000F152885443F27E411F9B4046C0F60C0150
:10AAF0002A4636F03FF8D8F8E42F1E9828214B4616
:10AB00002CF098FDD8F8E40F0138C8F8E40F81451F
:10AB100090D371E701F138001A9939F059FD38B135
:10AB2000D8F8E40F09F101098145FFF483AF63E729
:10AB30001C9C82A31F9336F06BF80428DBDB8FE7A5
:10AB40000698002874D0D8F80C1859B1481E03286C
:10AB500001F0030C08D200270021BCF1000F29D11D
:10AB600041E000BF00273EE021F00301494208F226
:10AB70005C630022002700BF93F8C06193F8305255
:10AB800093F8A042B74293F8100338BF3746AF425C
:10AB900038BF2F46A74238BF27468742A2F104029A
:10ABA00003F5E07338BF07469142E5D15142BCF14D
:10ABB000000F18D0C1EBC10108EB011191F81C285E
:10ABC000974238BF1746BCF1010F0CD091F88C2882
:10ABD000974238BF1746BCF1020F04D091F8FC0829
:10ABE000874238BF0746D8F8E4108F4218D207EBE7
:10ABF000470008EB800000F1E80600243D4604E031
:10AC000001358D4206F10C060AD2B0680028F7D053
:10AC10003FF0C6FA34607460B460D8F8E410EFE72F
:10AC200098F83C00C8F8E470C0B3404602F028F938
:10AC300098F83C0090B3D8F8E40F78B3D8F85000F7
:10AC400060BB19980078012828D141F2EC6008EB2C
:10AC50000005284641F07AFA00BB002143F2246245
:10AC60002191D8F82870D8F89C00209140F619015D
:10AC7000C0F60C02CDE9012120AA29460123009744
:10AC800041F054FD50B935F0C3FF042806DB43F60C
:10AC90002601C0F60C01404635F06CFF069888B1DD
:10ACA00008F17405284641F051FA58B1D8F89C00D3
:10ACB00029460022002441F05FFA20463DB0BDE85D
:10ACC000F08F00BF002420463DB0BDE8F08F00BFEC
:10ACD00043616E6E6F74206164642072656D6F7481
:10ACE000652063616E64696461746520257300008A
:10ACF000746F6F206D616E792C2064726F70206CA0
:10AD00006F772D7072696F00746F6F206D616E794F
:10AD10002C2064726F70204661696C6564000000CD
:10AD2000252E2A737C252E2A730000006475706C12
:10AD3000696361746520666F756E64006571756125
:10AD40006C206261736500002DE9F043A7B089466D
:10AD5000117A41F274161C46174680460229C0F249
:10AD600001060FD840F69410CCF2000000EBC100B1
:10AD700045681DB12846F5F707FB48B9304627B0AE
:10AD8000BDE8F0830329F9D1D7E903500028F5D0B5
:10AD9000B96949B17F69CDE90005029114A207A8FC
:10ADA00080214B46039705E0009015A207A880215B
:10ADB0004B4601959CF036F807A80590F5F7E4FAA4
:10ADC00041F285410690C0F60C0105AA40464BF0C1
:10ADD000A3FFD4F8341100264A1C04EB8101C4F807
:10ADE0003421C1F83801304627B0BDE8F08300BFF8
:10ADF000257320252E2A7320252E2A73000000009B
:10AE0000257320252E2A73002DE9F04143F64C07C7
:10AE100040F228281E460C460546CCF20007CCF22C
:10AE20000008D2B3A0680121442236F0B9FD397878
:10AE3000002967D042F2085201462C20C0F60B02CE
:10AE4000D2E90023087242F22050C0F60B000B61D9
:10AE5000D0E90003CA6001F1140282E8090101F19E
:10AE60002C00C1E90011C1E90B00287BAA680A6225
:10AE700070B142F2585242F26053C0F60B02C0F673
:10AE80000B03012808BF1346D3E90002C1E90902F8
:10AE9000D4F8D400143035F0D9F9002E08BFBDE83D
:10AEA000F081A06801213C2236F07AFD3978E9B1C1
:10AEB00042F2884201462C20C0F60B02D2E9002360
:10AEC000087208F10C00C86101F12400C1E90323F4
:10AED000C1E90011C1E90900D4F8D4006A6814304E
:10AEE0000A62BDE8F04135F0B1B900BF49F619106A
:10AEF00049F6DD01C0F60C00C0F60C014FF42A72D1
:10AF0000FEF7F2F849F6191049F6DD01C0F60C001B
:10AF1000C0F60C0140F29522FEF7E6F82DE9F04F5D
:10AF200089B083464FF4D47002FB00B8D8F87C0493
:10AF3000002800F0278148688E6BA0F1010E42F0D6
:10AF4000800092468946C0B24FF0000C16B37242A0
:10AF500009F22911032711F8E04C84421ED0D419BC
:10AF6000022C14D011F8705C854219D0012C0ED03F
:10AF70000C78844216D0BE4209D091F870408442C9
:10AF800011D00437D419032C01F5E071E3D100246A
:10AF9000012741E0012700243EE000BF033F02E01B
:10AFA000023F00E0013FC7EBC70141F2721209EB1B
:10AFB0000111C0F201024A64D9F8FC2301F13C04FA
:10AFC000BA424FF0000727D14FF61071C0F60A01C0
:10AFD000098825460022C9F8FC7302E00132B2421A
:10AFE00018D0C2EBC20409EB041494F84070012F8E
:10AFF000F4D1C9F8FC23DBF810708F420AD0B4F802
:10B000007440A7424FF0000705D00132B242E8D1A8
:10B0100001E000BF00272C4640F64D31C0F60A0182
:10B02000049140F60D31C0F60A0105910BEB0E11AB
:10B0300091F8182840F64D46C0F60A06CDE907CC2F
:10B0400006962AB14FF4D4760AFB06B686F8242376
:10B0500091F8192842B101F619024FF4D4760AFB8F
:10B0600006B61268C6F82523D1F820282AB14FF475
:10B07000D4760AFB06B6C6F85023D1F8241829B1B5
:10B080004FF4D4720AFB02B2C2F85413DFB1002BA2
:10B090007CD0D9F838100323C1EBC10109EB0111B1
:10B0A00081F8403041F27213D9F80420C0F2010354
:10B0B00001F13C044B646FEA0A03A1F84A3081F8BD
:10B0C000490081F84820DBF808000121082208F532
:10B0D000477536F065FCC0F80090617B0AEB4A03C7
:10B0E00001714FF4D4710AFB01B20BF11406D2F8CE
:10B0F000181392F8822409EB8303CDF80C80A04644
:10B1000003F11004CDE9005004AB3046029442F044
:10B110009DFD18B109B0BDE8F08F00BF039800F5A0
:10B120008F6127B1D9F838000130C9F838004FF4E1
:10B13000D4700AFB00B72068B7F88024DBF83430FD
:10B1400007F2844607F2AC47CDE9006742F08CFC79
:10B1500020B1C8F8080009B0BDE8F08F35F058FDFF
:10B1600004280FDBD9F83810DBF80000D9F80420E8
:10B1700098F80D704B1E43F6F571C0F60C01009760
:10B1800035F0F8FC002009B0BDE8F08F43F623410C
:10B1900003A0C0F60C0140F2A712FDF7A5FF00BF07
:10B1A0006D61785F63616E645F636E74203E203012
:10B1B00000000000B0B540F60064CCF200040021AD
:10B1C0002170058839F088FA0146284622468023F6
:10B1D000BDE8B04033F034BAF0B581B00446D0F8E1
:10B1E000800888420AD2D4F8880841F27716C0F263
:10B1F000010638B10436304601B0F0BD00263046B5
:10B2000001B0F0BD04F507600D4636F04DFED4F8F0
:10B210007418606805F12C024A43002718A14FF406
:10B220000073009736F0D6FB0028C4F87008E2D00F
:10B23000D4F874182C22C4F8805836F0B1FBD4F836
:10B240007418C4F8840899B100266FF02B0700BF6A
:10B25000D4F87008294636F0B7FAD4F88418D4F830
:10B26000742801363944964207F12C07C862EFD39F
:10B270000026C4F87868C4F87C68304601B0F0BD98
:10B280006963655F627566002DE9F04184B000284E
:10B2900066D090460546002952D04E6991E89D003F
:10B2A00005F1040CAE618CE89D00D1E90610C5E9FA
:10B2B0000710286900284AD12879C0060DD535F035
:10B2C000A7FC042806DB4AF2B870C0F60C002FA1D8
:10B2D00035F050FC286879F0CDF8AB6A43B193F8AB
:10B2E0002C0005280CD0042802D1D5F8880038B1EC
:10B2F0002879C00604D40025284604B0BDE8F081B2
:10B3000028682A6E5B6A41460025B8F1000F18BF15
:10B310000121CDE90085CDE9025579F03BFC0028FB
:10B32000EAD004464AF2B870C0F60C001DA12246CD
:10B330007BF07AFB2546284604B0BDE8F08100BFCB
:10B34000686820F0BB00686028690028B4D04AF221
:10B350008B7108A0C0F60C014FF42B72FDF7C4FEF0
:10B360004AF28B7118A0C0F60C0140F2A322FDF73F
:10B37000BBFE00BF63616C6C2D3E6F70742E7669EE
:10B38000645F636E74203D3D20300000504A535589
:10B39000415F43414C4C5F5245494E49545F4D45D6
:10B3A000444941004572726F722072652D696E6961
:10B3B0007469616C697A696E67206D656469612082
:10B3C0006368616E6E656C0063616C6C0000000008
:10B3D0002DE9F04387B08146D0F85C041C4617463F
:10B3E0008846D8B1204648F2220100223EF0BCFB3C
:10B3F000A0B92088C10509D410F4887F0ED16068F7
:10B400004AF24241C2F21211884207D109F58B6318
:10B410004046214648F222023DF040F920463BF0EA
:10B4200001FE002F18BF002804D1002001900390D6
:10B4300005903DE007F10805D7E900062ECDFF692C
:10B440000596CDE90320CDE9015100935AB120883A
:10B4500010F4887F07D102AB4046214606223DF01A
:10B460001DF900284AD15EB1208810F4887F07D1E9
:10B4700004AB4046214614223DF010F9002849D182
:10B4800065B1208800F48870B0F5887F00D028B9B5
:10B490006B464046214615223DF000F903980028EE
:10B4A00018BF002F04D0404621463DF04BF8C8B9E4
:10B4B000D9F8240038B14046214648F2280200233A
:10B4C0003DF07CF910B907B0BDE8F08344F6572091
:10B4D00044F68821C0F60C00C0F60C0140F24D1273
:10B4E000FDF702FE44F6572044F68821C0F60C0012
:10B4F000C0F60C0140F24512FDF7F6FD44F6572068
:10B5000044F68821C0F60C00C0F60C0140F22D1262
:10B51000FDF7EAFD44F6572044F68821C0F60C00FA
:10B52000C0F60C0140F23512FDF7DEFD70B50546A0
:10B5300028F042FD95F8941305F56574002978D03C
:10B5400095F8F413002905F57D716BD0D5F8A42387
:10B55000D5F80434821AC31A934295F8542488BF4C
:10B560000C46002A05F254415ED0D5F864242369C4
:10B57000821AC31A9A4295F8B42498BF2146002A29
:10B5800005F2B44455D0D5F8C4240B69821AC31A05
:10B590009A4295F8142598BF0C46002A05F21451DA
:10B5A00044D0D5F824252369821AC31A9A4295F803
:10B5B000742598BF214605F27454D2B3D5F884257A
:10B5C0000B69821AC31A9A4295F8D42598BF0C4683
:10B5D00005F2D45162B3D5F8E4252369821AC31A5F
:10B5E0009A4295F8342698BF214605F2346402B396
:10B5F000D5F844260B69821AC01A824298BF0C46BD
:10B600002078012815D1E06D98B1251F002600BFD4
:10B6100055F8200F21F066F9E06D01368642F7D328
:10B6200007E000BF0C4604E00C4602E00C4600E0D8
:10B630000C4620466021F4F786FE204670BD0000CF
:10B640002DE9F04782B007461046984692460C46D0
:10B6500021F052F997F894138146002944D0D7F885
:10B660009803A04240D107F56577012947D1FC6DC9
:10B67000022C14D3F86921F035F907F13C064FCEBE
:10B6800007F1500C07F11C0E9CE830108EE84F00BB
:10B69000F86DC7E90C45441EC7F838C0FC6548463C
:10B6A00020F052FF07EB44160028F06150D00A9DAD
:10B6B000002152460023CDF80090002421F040F8EC
:10B6C000C6F820806869D5E900C108352CCDB06383
:10B6D00006F128002EC0F86DC6F824C00130F865C8
:10B6E000204602B0BDE8F08797F8F41361B1D7F8AF
:10B6F000F803A04208D107F57D770129B7D0E024EF
:10B70000204602B0BDE8F08797F8541441B1D7F84D
:10B710005804A04204D107F254470129EFD1A6E70B
:10B7200097F8B41441B1D7F8B804A04204D107F295
:10B73000B4470129E3D19AE797F8141571B1D7F806
:10B740001805A0420AD107F214570129D7D18EE774
:10B750006424204602B0BDE8F08700BF97F8741556
:10B7600041B1D7F87805A04204D107F274570129F6
:10B77000C5D17CE797F8D41541B1D7F8D805A042D8
:10B7800004D107F2D4570129B9D170E797F83416DC
:10B7900051B1D7F83806A04206D107F23467012923
:10B7A0003FF465AFABE700BF4FF48774204602B0AB
:10B7B000BDE8F08790F8942332B1D0F898238A42FC
:10B7C00004BF00F56570704790F8F42332B1D0F8EB
:10B7D000F8238A4204BF00F57D70704790F8542426
:10B7E00032B1D0F858248A4204BF00F25440704766
:10B7F00090F8B42432B1D0F8B8248A4204BF00F2E1
:10B80000B440704790F8142532B1D0F818258A4218
:10B8100004BF00F21450704790F8742532B1D0F88C
:10B8200078258A4204BF00F27450704790F8D425FE
:10B8300032B1D0F8D8258A4204BF00F2D450704704
:10B8400090F8342632B1D0F838268A4204BF00F28C
:10B850003460704700207047F0B581B0044690F81E
:10B86000940301280FD1D4F8F00360B104F5647596
:10B87000002600BF55F8200F21F034F8D4F8F0036B
:10B8800001368642F6D394F8F40300250128C4F863
:10B89000F05384F894530ED1D4F8500458B104F501
:10B8A0007C76002756F8200F21F01CF8D4F85004BD
:10B8B00001378742F6D394F85404C4F85054012851
:10B8C00084F8F4530FD1D4F8B00460B104F58A655C
:10B8D000002600BF55F8200F21F004F8D4F8B0047A
:10B8E00001368642F6D394F8B40400250128C4F842
:10B8F000B05484F854540ED1D4F8100558B104F55E
:10B900009666002756F8200F20F0ECFFD4F81005BB
:10B9100001378742F6D394F81405C4F8105501286E
:10B9200084F8B4540FD1D4F8700560B104F5A26561
:10B93000002600BF55F8200F20F0D4FFD4F8700582
:10B9400001368642F6D394F8740500250128C4F820
:10B95000705584F814550ED1D4F8D00558B104F5BB
:10B96000AE66002756F8200F20F0BCFFD4F8D005B3
:10B9700001378742F6D394F8D405C4F8D05501288E
:10B9800084F874550FD1D4F8300660B104F5BA6567
:10B99000002600BF55F8200F20F0A4FFD4F8300691
:10B9A00001368642F6D394F8340600250128C4F8FF
:10B9B000305684F8D4550ED1D4F8900658B104F519
:10B9C000C666002756F8200F20F08CFFD4F89006AA
:10B9D00001378742F6D3C4F8905684F8345601B044
:10B9E000F0BD000080B500F565704FF44071F4F7CC
:10B9F000AAFC002080BD000070B51C2A42D3054679
:10BA000008880C46B0F5807F3CD16088082839D181
:10BA10002079062836D16079042833D195F8EC01D5
:10BA200080B3D5F8E811D4F80E20914218D101283E
:10BA300004D10120C5F8F00170BD00BF284604F113
:10BA4000080622F0C5F800F1D80130460622F4F7C6
:10BA5000BAFC18B10120C5F8F00113E0D5F8E811DF
:10BA6000A06981420ED1E0888BF042FA02280BD007
:10BA7000012818BF70BD28462146BDE8704000F07F
:10BA80006DB800BF70BD00BF28462146BDE87040BC
:10BA9000AFF30080F0B581B00E46D1F80E1019B1A9
:10BAA00004461BF061F908B101B0F0BDD6F80E00F4
:10BAB00000F0F000E028F7D006F108054FF6D66157
:10BAC000C0F60A0128460622F4F77DFC0028EBD0D8
:10BAD0004FF6D061C0F60A0128460622F4F773FC3F
:10BAE0000028E1D02878C007DED1B16920461BF0DC
:10BAF00075F90028D8D1D6F80E7020463946FFF7E0
:10BB000059FE0028D0D00646007805280CD002281F
:10BB100018D00128C8D1A8883146B0812868B06003
:10BB2000204600F04BF904E077602868B060A888F0
:10BB3000B08128F041FA4EF66021C6E904010220E6
:10BB400009E000BF06F1080128460622F4F73BFC95
:10BB50000028A9D00320307001B0F0BD70B50D46AB
:10BB6000D1F80E1004461BF0FFF808B170BD00BFFD
:10BB7000D5F80E0000F0F001E02908BF70BD94F880
:10BB8000EC1105F10806012916D1D4F8E811AA69CB
:10BB9000914211D10028E9D1204622F019F800F194
:10BBA000D80130460622F4F70EFC00281CBF012005
:10BBB000C4F8F00170BD00BFD5F80E20A969204679
:10BBC0003346BDE8704000F02DB9000070B5044662
:10BBD00090F894030D4648B1D4F89813A94205D1C2
:10BBE00004F56574012854D182E000BF94F8F40391
:10BBF00040B1D4F8F813A94204D104F57D740128AA
:10BC000047D175E094F8540440B1D4F85814A942CF
:10BC100004D104F2544401283BD169E094F8B404FF
:10BC200040B1D4F8B814A94204D104F2B4440128B4
:10BC30002FD15DE094F8140540B1D4F81815A9424D
:10BC400004D104F21454012823D151E094F874056E
:10BC500040B1D4F87815A94204D104F274540128F3
:10BC600017D145E094F8D40540B1D4F8D815A942CD
:10BC700004D104F2D45401280BD139E094F83406ED
:10BC8000F0B1D4F83816A9421AD104F2346401286C
:10BC90002ED003280ED1A0899080A068106028F0D3
:10BCA0008BF941F28831C4E904010420207000209E
:10BCB00070BD00BFA0899080A0681060002070BD9A
:10BCC0002046FFF733FC0646456000204FF6D06261
:10BCD000B061F065C0F60A022046294600F0FEF881
:10BCE00028F06AF94FF47A71C6E904010120307036
:10BCF00040F2032070BD00002DE9F0418AB0884673
:10BD0000044621F065FF074609A91C200DF0D2F971
:10BD100000284DD00999054620F058FC0646012020
:10BD20008BF0E6F830804FF400608BF0E1F8708023
:10BD300040F20640B08001208BF0DAF8F080D7F8AE
:10BD4000D8000DF1100CB060B7F8DC00C6F8188010
:10BD5000B0810020C6F80E004FF6D660C0F60A008B
:10BD600001688088C6F81210F0824FF6EC60C0F6C9
:10BD70000A0090E88E00D0E904600391CDE90760E5
:10BD800009984FF6D0618CE88C0003AF0090C0F6A4
:10BD90000A01204640F606022B4601970DF044FDAD
:10BDA0000446284620F09EFD20460AB0BDE8F081FA
:10BDB000642420460AB0BDE8F08100002DE9F0437C
:10BDC00083B00C460978012926D18146E06D18B36D
:10BDD00004F10808A4F12007002600BFF86B20F04A
:10BDE0008BFD3A6C6168821A48461BF0B5FDD7E9B5
:10BDF0000F3007F144050090484641464FF4006279
:10BE000001950DF011FDF86B20F06CFDE06D013631
:10BE1000864207F12007E1D30020E06503B0BDE8CA
:10BE2000F08300002DE9F0478AB01C469046894611
:10BE3000824621F0CDFE074609A91C200DF03AF9F3
:10BE4000002845D00999064620F0C0FB0546012090
:10BE50008BF04EF828804FF400608BF049F8688032
:10BE600040F20640A88002208BF042F8E880B7F844
:10BE7000DC000DF1100CA881D7F8D800C5F80E90A1
:10BE8000A8602068C5F81200A088C5F81880E8826C
:10BE90004FF6EC60C0F60A0090E88E00D0E904503E
:10BEA0008CE88C00CDE907500998039103AF00900E
:10BEB0005046214640F60602334601970DF0B4FC89
:10BEC0000446304620F00EFD20460AB0BDE8F0875B
:10BED000642420460AB0BDE8F08700002DE9F04157
:10BEE0008CB090460E460B9021F072FE07460BA8D0
:10BEF00009AA31461BF03AFB044618B120460CB0A3
:10BF0000BDE8F0810AA91C200DF0D4F8002847D024
:10BF10000A99054620F05AFB044601208AF0E8FF02
:10BF200020804FF400608AF0E3FF608040F206401A
:10BF3000A08001208AF0DCFFE080D7F8D8000999C2
:10BF4000A060B7F8DC00C4F80E10A0814FF6D660F0
:10BF5000C0F60A0001688088C4F81210E0824FF62B
:10BF6000EC60C0F60A00A66190E88E00D0E904609B
:10BF70000391CDE9076004A88CC0DDE90A2003AF76
:10BF80000092414640F606022B4601970DF04CFC0C
:10BF90000446284620F0A6FC20460CB0BDE8F081FF
:10BFA000642420460CB0BDE8F08100002DE9F04F7C
:10BFB00081B0054628F000F8044605F564764FF098
:10BFC000000B4FF0000819E0D0F898134FF6D0623C
:10BFD00000F5697900F56A772846C0F60A02FFF78E
:10BFE0007DFFC9F800404FF47A70386008F101080D
:10BFF000B8F1080F06F1600600F0808008EB4800F9
:10C0000005EB401090F8941301390429EED800F59F
:10C01000657ADFE801F0052903375100E6E700BF44
:10C02000D0E9E9121144611AE0D4D0F8AC1301311F
:10C030000229C0F8AC13C7D9D0F8F01300F57C7909
:10C0400061B14FF0000B374657F8200F20F04AFC43
:10C05000D9F800000BF1010B8345F5D34FF0000B2D
:10C06000C9F800B046E000BFD0E9E9121144611AF6
:10C07000BCD400F5697727F09FFF386003208AF869
:10C080000000B3E7D0E9E9121144611AAED4D0F848
:10C09000981300F5697900F56A7700F5677228460C
:10C0A000FFF71CFF4EF6602038600520C9F80040FD
:10C0B0008AF800009AE700BFD0E9E9121144611A3A
:10C0C0003FF594AFD0F8AC1301310129C0F8AC139F
:10C0D00010D8D0F8981300F5697900F56A7700F563
:10C0E00067722846FFF7FAFE4EF66020C9F8004056
:10C0F0007BE700BF8AF800B078E700BF01B0BDE879
:10C10000F08F0000F0B583B00C68002C00F0848044
:10C1100043F64867CCF20007D7F8CC0435F0AAF80C
:10C120003FF0E2FEC7F8D404D7F8D004D4F8881959
:10C130000130C7F8D004D1B1D4F8E809B8B1D4F8C7
:10C140009407A0B1D4F8000AD4F8881A0130022963
:10C15000C4F8000A02D0D4F8B409B8B1D4F88C09F4
:10C1600001216DF0B7FD10B1204683F065FBD7F8D3
:10C17000D0040138C7F8D00404BF0020C7F8D404A5
:10C18000D7F8CC0435F0ACF903B0F0BD49F6D26075
:10C19000C0F60C004FF400714FF400727AF0EEFC20
:10C1A000D4F88C2904F1140301A905466CF0CCFAEB
:10C1B00060B1024649F6C660C0F60C001CA17AF0D8
:10C1C00033FC284635F02CFECEE700BF04F6A4165B
:10C1D00001A8314639F076FBC8B1D4F8A809029914
:10C1E000884205DA206801AA314639F067FD03E08C
:10C1F00001A9304639F0F4FB204696F0B1FDD4F8A1
:10C20000D40920B104F6AC12012162F0CBFF28461C
:10C2100035F006FEA2E700BF49F26C2049F69961AD
:10C22000C0F60C00C0F60C0140F63372FCF75CFF60
:10C23000556E61626C6520746F2067656E65726112
:10C240007465207375697461626C6520436F6E74E8
:10C250006163742068656164657220666F72207224
:10C26000652D726567697374726174696F6E000021
:10C27000B0B582B00F2821D80D4646F2B851C2F2AF
:10C2800000014FF4227300FB03140F2A1ADD2888E3
:10C29000022817D168888AF02BFE696802460029B7
:10C2A000019118BF0121880000906946204686F060
:10C2B000AFF978B10146204686F058FF4FF0FF30C5
:10C2C00002B0B0BD2046162186F0FCFE4FF0FF30D4
:10C2D00002B0B0BD002002B0B0BD0000086800226E
:10C2E00040684A606EF0BCBB2DE9F04F87B002ADEC
:10C2F000044628462EF028FE039820440390284642
:10C300003FF086FE4CF6CD40CCF6CC40A4FB0001BD
:10C31000CD0843F6486A00264FF00A0904ACCCF277
:10C32000000A0DF1180BE8462F4600BF204606967E
:10C33000CDE904693FF06CFEDAF8000521465A4663
:10C3400059F01EFA0699002818BF4142012903DB63
:10C35000002FA7F10107E9DC40462EF0F5FD00981B
:10C36000029988420ADC019A039B01D19A4205DCBA
:10C3700088422F46DAD19A422F46D7D107B0BDE87E
:10C38000F08F00002DE9F04F8DB0D0E925498046AF
:10C39000D0F89C5048462146F3F7D5FF34F038FCDE
:10C3A000032809DA34F034FC032810DAD8F87800CE
:10C3B000002848D116E000BF42F68610C0F60C00F7
:10C3C00078A134F0C3FB34F023FC0328EEDB42F603
:10C3D0008610C0F60C0079A1224634F0B7FBD8F8DD
:10C3E000780080BB002C4FEA440618BFB9F1000F5B
:10C3F0001AD148462146F3F7A6FF0CAA4846314613
:10C400004FF0FF33F4F762FCD8F878000C96D0B9FF
:10C410004FF2A7604FF2ED51C0F60B00C0F60B01D2
:10C420005222FCF761FE00BF48462146F3F78BFF1E
:10C430000CAA484631464FF0FF33F4F747FCD8F8D2
:10C4400078000C9690B134F0E3FB032806DB42F64B
:10C450008610C0F60C005BA134F078FB00207FF062
:10C460003FFB00200DB0BDE8F08F00BF671E01202C
:10C4700000EB570000F0030120F003004FF0000A2A
:10C480004FF0000B03910090CDE90176AE46062FE8
:10C4900004D200204946039DADBB55E0009AA44656
:10C4A00000206FF00F0100BF09EB010309EB40060C
:10C4B000B3F91070B6F9024009EB000597FA14F7CA
:10C4C00029F80070B6F90470B3F91640083097FAED
:10C4D00014F76F80B3F91870B6F90A40043A97FA66
:10C4E00014F7AF80B6F90C70B3F91E3001F11001EA
:10C4F00097FA13F3EB80D7D1DDE9017609EB000160
:10C500006446039D05B340F0010339F9102039F961
:10C510001330012D92FA13F20A8015D0821C39F9DA
:10C52000123042F0010239F91220022D93FA12F270
:10C530004A8009D0043039F9102040F0010039F95F
:10C54000100092FA10F0888001208DF81000D8F8C1
:10C55000902000200A90704604A9CDE90594CDE909
:10C5600008AB7546904700280C907FF46CAFD8F864
:10C57000780000287FF467AF1AEB040A484621468A
:10C580004BEBE47BF3F7DFFE484631460CAA4FF055
:10C59000FF33F4F79BFBD8F878000C9600283FF4A3
:10C5A00075AF50E763615F7468726561645F66755B
:10C5B0006E633A20537461727465640073697A65BE
:10C5C0002025640063615F7468726561645F6675ED
:10C5D0006E633A2053746F707065640010B582B05A
:10C5E00001AB002204465CF0F5FE20B9019911B1BF
:10C5F00020465DF0F5FB02B010BD00002DE9F043D0
:10C6000083B0044600F5AE30984616460D4600F558
:10C61000EA7779B9A06A90F82C10052902D1C825CB
:10C6200008E000BF90F8540040F2E715012808BF69
:10C6300040F25B25386804F5A83101F55D6920B149
:10C64000484675F067F800203860A06A02AB2946BA
:10C6500032465CF0BFFE28B302464AF2B870C0F61C
:10C660000C0040A17AF0E0F9A06A80B3F8680428D1
:10C6700030D334F0CDFA01280BDB2268FB684AF294
:10C68000B8704AF22A41C0F60C00C0F60C0134F032
:10C6900035FAA06A396901225DF088FD03B0BDE872
:10C6A000F08300BF029890B141467BF081F9A06A07
:10C6B00002995DF095FB50B102464AF2B870C0F69F
:10C6C0000C0032A17AF0B0F9A06A0028CED103B0F4
:10C6D000BDE8F083E0B94EF68D63C0F6010348462D
:10C6E000002122463FF0FEFC3D6146B1A06A04F500
:10C6F000AC31406A01F5BD61324639F02FFAB8F12C
:10C70000000F05D0A06A4146406A7AF001F9F8614D
:10C710000020009041F288306D46019028463FF09D
:10C7200077FC01204AF28B723860C0F60C02484652
:10C73000294640F63B337BF05DFCF8680130F86039
:10C7400034F066FA0428C2DB22684AF2B870C0F6F8
:10C750000C0017A141F2883334F00CFA03B0BDE8A5
:10C76000F08300BF4661696C656420746F2063725A
:10C770006561746520656E642073657373696F6E9F
:10C78000206D657373616765000000004661696C28
:10C79000656420746F2073656E6420656E64207319
:10C7A000657373696F6E206D6573736167650000F3
:10C7B00057696C6C2072657472792063616C6C20AF
:10C7C00025642068616E67757020696E202564207D
:10C7D0006D7365630000000070B543F6486504465C
:10C7E000CCF2000541F2FC702B58D4E9140104F19D
:10C7F000080298474BF62006C0F20106A85934F00B
:10C8000039FD05F5D83000F5F960214633F01EFDFD
:10C81000A859BDE8704034F063BE0000F0B5ADF536
:10C82000757D0546D0F8900A0C4600294AD01E4670
:10C8300050B3296845F69C42C0F201028A58CAB931
:10C8400043F64862CCF2000241F2F073D2588AB14A
:10C8500095F8A43A73B10020CDE90900CDE90700AD
:10C86000A868D5F8943A06900893086806A99047F6
:10C87000D5F8900A002785F8A47A416AC96A002988
:10C8800018BF8847C5F8907A4FF4F070002E18BF93
:10C890003060D5F8D82A82B10021CDE90211CDE966
:10C8A000041195F8A41A2B688DF80810A968039450
:10C8B00001910490186801A9904720460DF5757DF7
:10C8C000F0BD00BF43F648674BF2BC41436ACCF26F
:10C8D0000007C0F201017A589B6A01219847D5F8F8
:10C8E000900A4BF2C041436AC0F201017A589B6A38
:10C8F0000221984795F8A40A01281DD1286845F619
:10C900009C41C0F20101415899B941F2F0717A5845
:10C910007AB1AB6800210693D5F8943ACDE90711B6
:10C920000A91099102218DF81C100893006806A94C
:10C930009047022085F8A40AD5F89C0A4FF4C0510C
:10C94000B0FA80F079584009D5F8906A002918BFEC
:10C9500001210840C5F8A80A06A8071D38464FF46B
:10C960006E71C5F89C6AF3F7EEFC4FF0FF300E9045
:10C97000069036B1706A20B1026812B106A930463D
:10C98000904705F52B60394637F094FE0020D5F826
:10C99000D82A002A7FF480AF8FE700002DE9F04706
:10C9A000AEB004468A46002914BFDAF800804FF082
:10C9B0000008216800200A0E8DF8B6200A0C8DF8B8
:10C9C000B5200A0A8DF8B4208DF8B3108DF8B700A1
:10C9D00034F01EF9052814DBD4E904070DF1B30186
:10C9E000D8F80020DAF80830CDE900104BF66710CF
:10C9F0004BF62041C0F60C00C0F60C01029734F053
:10CA0000CDF8206844F24961C4F65251884245D1BC
:10CA100098F80800C00741D02AAE30462DF0B6FF86
:10CA20000AF52D67384631462DF042FA40F6B83106
:10CA3000884233D347F6A000C0F60A00D0E90001CF
:10CA4000CDE9040134F0E4F8042806DB4BF6671066
:10CA5000C0F60C0045A134F08DF807AE304679F0F1
:10CA6000CFFF4DA011901D2012904BF2C270C0F666
:10CA70000C00139092201490D8F8000004A93246BC
:10CA800074F0E4FC814600286AD04BF66710C0F6CB
:10CA90000C0049A2494634F001FE01E04FF00009C4
:10CAA00043F64866CCF2000641F2FC70305808B3F9
:10CAB0004BF62005C0F20105705934F0DBFB4BF258
:10CAC000CC70C0F20100375806F5D83000F5F96097
:10CAD000874213D0384633F043FB705934F000FDE1
:10CAE000B8F1000F16D045F69C40C0F2010058F88E
:10CAF0000000A8B148462EB0BDE8F087D6F8C804BB
:10CB0000582134F061FE0746705934F0E9FCB8F161
:10CB1000000FE8D14FF0FF303865002005E000BF7E
:10CB2000D8F800003865DAF80800786507F10800E1
:10CB300021464822F3F7E0FB4CF2D9704BF63A134A
:10CB40004FF4D666C0F60000C0F60C033946012249
:10CB500000967BF0F5F948462EB0BDE8F08700BF9F
:10CB6000DDE92A01C7E900019AE700BF53656E6459
:10CB7000696E6720766964656F206B65796672619E
:10CB80006D652072657175657374207669612053D7
:10CB9000495020494E464F006170706C6963617462
:10CBA000696F6E2F6D656469615F636F6E74726F1C
:10CBB0006C2B786D6C0000004661696C65642072B6
:10CBC000657175657374696E67206B6579667261EE
:10CBD0006D65207669612053495020494E464F00CB
:10CBE0002DE9F04184B0C66D43F648670446CCF2A7
:10CBF00000074FF44F6006FB00700D46D0F8282860
:10CC000022B100F62400286035E000BF41F238115F
:10CC1000405848B14FF44F6006FB007041F23411A8
:10CC20000844286027E000BFA06A4FF44F61D0F8A5
:10CC3000508006FB017141F21C12D8F828008A5876
:10CC400008F1A40369466BF07FFD48B101462368F3
:10CC50004AF2B870C0F60C0010A234F01FFD0AE0D2
:10CC6000D8F828000121082234F09AFEDDE90012EC
:10CC70002860C0E900124FF44F6006FB00706D465B
:10CC8000D0F8A00A294676F059FFA06A2946006D1F
:10CC900057F002FC04B0BDE8F08100BF43616C6C4A
:10CCA0002025643A206661696C6564206372656161
:10CCB00074696E6720636F6E7461637420666F724F
:10CCC00020636F6E746163742075706461746500B5
:10CCD00080B586B00490039102920398C068012841
:10CCE00007DBFFE70398C06804994968884207D3C7
:10CCF000FFE703994FF0FF30C8600020059052E035
:10CD00000498C0690399C96850F8210001900198FE
:10CD1000B0F1FF3F07DCFFE703994FF0FF30C86039
:10CD2000002005903FE0039804998969019A51F821
:10CD300022100969884225D0FFE79DF80800800786
:10CD4000002818D4FFE7039804998969019A51F8DB
:10CD500022100969884201D1FFE70BE04DF62E70E1
:10CD6000C0F60B004DF68151C0F60B014FF40A726C
:10CD7000FCF7BAF9FFE703994FF0FF30C8600020D5
:10CD8000059010E00498019981F09AFB9DF8080045
:10CD9000C00728B9FFE70498826A03999047FFE724
:10CDA00001200590FFE7059806B080BD80B58AB0E8
:10CDB0000890079106920593FFE7089818B1FFE7DE
:10CDC000079828BBFFE7089820B1FFE7079808B14C
:10CDD000FFE70BE04DF62270C0F60B004DF68151D7
:10CDE000C0F60B0140F22B32FCF77EF908990020C7
:10CDF000019031B1FFE70798002818BF012001908A
:10CE0000FFE7019841F27410C0F20100099033E08D
:10CE1000FFE708981BF068FE0898006A0799C96840
:10CE200001EB810100EBC10004900498C0690390FC
:10CE300008980799069A42F00102FFF749FF02900D
:10CE40000298012812DBFFE79DF818004007002830
:10CE500004D5FFE7059807994860FFE7039820B1DC
:10CE6000FFE703982EF0A6F9FFE7FFE7089895F093
:10CE7000F7FA02980990FFE709980AB080BD000010
:10CE8000F0B585B00446D0F8E400F8B1424204F5AC
:10CE90008873002153F8246CCEB15618751C18D035
:10CEA00053F8185C002D51D0B51C12D053F80C5C0F
:10CEB000002D4DD003360CD01E68002E4AD0043110
:10CEC000561803F13003E5D103E000BF0021814291
:10CED00006D12046002122F073FD012005B0F0BDEF
:10CEE000E16D49B194F82C10022901D1E16C99B39C
:10CEF000002005B0F0BD00BFD4F8E4CFBCF1000FB6
:10CF000074D0CCF1000304F5805600223578032D4F
:10CF10006DD39D18691C6DD096F828100329C0F0B8
:10CF2000F380A91C66D096F850100329C0F0EE805B
:10CF3000E91C5FD096F878100329C0F0E98004322C
:10CF4000991806F1A006E1D154E000BF0131BEE717
:10CF50000231BCE70331BAE7A16E0029C8D1B8B1EC
:10CF6000013804F5867151F8242CDAB380B151F8F8
:10CF7000182CBAB301280BD051F80C2C92B302280C
:10CF800006D00A6872B30438421C01F13001EAD1BC
:10CF900004F1640533F03CFE042804DB626B5DA100
:10CFA000204633F0E7FDD4F89C00294600220026F5
:10CFB0003FF0E2F8606BCDE9036003AE30463FF02E
:10CFC00027F843F22462A76AD4F89C0040F2646117
:10CFD000C0F60C02CDE90121294632460323009711
:10CFE0003FF0A4FB002005B0F0BD00BF0022624569
:10CFF0007FF478AF94F82C1001294DD1D0B10138CD
:10D0000000216218D2F8E830002B47D090B1D2F856
:10D01000F430002B42D001280CD0D2F80031EBB311
:10D02000022807D0D2F80C21C2B30438421C01F107
:10D030003001E6D1A06E00287FF45AAFA16B00202A
:10D040000029D0D403AFCDE90301384604F16405CB
:10D050003EF0DEFF43F22462A66AD4F89C0040F260
:10D060000A61C0F60C02CDE9012129463A460223A5
:10D0700000963FF05BFB33F0CBFD0428FFF638AFA2
:10D08000A26B43F2A531C0F60C01204633F072FDCD
:10D09000002005B0F0BD00BFE16C49B14AF2A251D9
:10D0A000C0F20501204622F08BFC012005B0F0BD46
:10D0B000E0B1013800216218D2F8E830002BEDD041
:10D0C000A0B1D2F8F430002BE8D001280ED0D2F86D
:10D0D0000031002BE2D0022808D0D2F80C21002A1F
:10D0E000DCD00438421C01F13001E4D133F090FD72
:10D0F000042803DB10A1204633F03CFD204687F0D6
:10D10000A9F8002005B0F0BD013270E702326EE7E9
:10D1100003326CE75363686564756C696E67206EF3
:10D120006F6D696E6174656420636865636B206907
:10D130006E202564206D7300416C6C20636865630C
:10D140006B73206861766520636F6D706C657465C4
:10D15000642C207374617274696E67206E6F6D69E0
:10D160006E6174656420636865636B73206E6F77AE
:10D170000000000070B584B00446D0F84C082DF0D3
:10D1800029FFD4F8740860B1D4F87818D4F87C3842
:10D190000131B1FBF0F202FB10159D42C4F8785842
:10D1A0000AD1D4F84C080021C4F8881804B0BDE8AE
:10D1B00070402EF045B800BFD4F84C08D4F884680D
:10D1C0002EF03EF82C2105FB016069437258D0E92E
:10D1D0000113866A0C304FF0010C002500902046A8
:10D1E000CDE9025C019683F05FF804B070BD0000E9
:10D1F0002DE9F04FA1B01C4692460D46834633F010
:10D2000007FD042857DBA5EB0B010BF5F150A1F648
:10D21000E8714CF6CD420890D5E90006C910CCF66D
:10D22000CC4251430791017B099400F11C04069103
:10D230000DF1560120462E22022338F04DF8074604
:10D24000204637F087FB06F11C0904460AA9484628
:10D250002E22022338F040F88046484637F07AFB09
:10D260000646069843F2D562CDE90007089F079B62
:10D270000294099CC0F60C0238468021CDF80C803F
:10D28000049699F0CFFD7F28A8BF7F20394600285B
:10D29000C8BF014400200870287E42F29851C0F6B1
:10D2A0000B0151F8203051F82A6006A158463A4641
:10D2B000009633F05FFC85F818A06C6221B0BDE8E1
:10D2C000F08F00BF436865636B2025733A20737449
:10D2D000617465206368616E6765642066726F6D56
:10D2E00020257320746F202573000000B0B504461C
:10D2F000D0F898090D46A8B1D4F89C19281A88428C
:10D3000038BFB0BDD4F8A4090022B0FA80F04109BA
:10D310002046002383F004FF002808BFC4F8985972
:10D32000B0BD00BFC4F89859B0BD00002DE9F04F62
:10D3300085B0824640F2031091460AEA000282421A
:10D3400000F0BC801C460F4649B1B9F1000F06D170
:10D35000D7F8D400042100225EF056FA81460AF084
:10D3600002053FB134B9D7F8D400242100225EF081
:10D370004BFA04460AF4807B2DBB24B347F6B80071
:10D38000C0F60A00226AD0E9000103910290D2B1EE
:10D3900004F12408002702AD464600BF3046294666
:10D3A00038F0A6FD30B1206A0137874206F1080641
:10D3B000F4D308E0226A404608213B462AF03AF9B5
:10D3C000206A01382062BBF1000F0AF0010A1BD16C
:10D3D000D4B147F6C000C0F60A00226AD0E90001C5
:10D3E0000391029082B104F12408002602AD474661
:10D3F0003846294638F07CFD002843D0206A0136A3
:10D40000864207F10807F3D3BAF1000F56D147F669
:10D41000B000C0F60A00D0E90001B9F1000F039195
:10D4200047F6A801C0F60A01D1E90012CDE90120B2
:10D43000009113D0D9F8200080B109F1240800260A
:10D4400002AD47463846294638F052FD40B3D9F878
:10D4500020000136864207F10807F3D374B3206A2F
:10D4600060B304F1240800256F464646304639462D
:10D4700038F03EFD30B3206A0135854206F10806DA
:10D48000F4D31BE0226A4046082133462AF0D2F842
:10D49000206A01382062BAF1000F0FD1B7E700BF50
:10D4A000D9F820204046082133462AF0C3F8D9F89D
:10D4B00020000138C9F82000002CD0D105B0BDE80B
:10D4C000F08F00BF226A404608212B462AF0B2F8AE
:10D4D000206A0138206205B0BDE8F08FF0B589B050
:10D4E0000C4689690546084632F052FFD4E904101B
:10D4F00000270397CDE90677CDE90101D5E90012B0
:10D50000A068CDE904126946009747F01DF900288C
:10D5100018BF8DF80070E0686E46314647F07CF920
:10D5200061690397CDE906770191D5E90013D4E944
:10D530000302CDE9041331460097029247F004F943
:10D5400000281CBF00208DF80000A068694647F045
:10D5500063F9A06932F0AEFF09B0F0BD10B582B03A
:10D560000020CDE9000068460C4696F0A3FEDDE9F8
:10D57000001044F24022C0F20F02A0FB020301FBA4
:10D5800002312246FBF762FC002002B010BD000011
:10D590002DE9F04782B0044690F82C0080070BD4A8
:10D5A0003EF0A2FC3EF068FA012805DB05463EF09D
:10D5B0009BFC29463EF024FC04F1180A50462DF04D
:10D5C000E5F904F110030FCB8018A26C5941C4E9AE
:10D5D00006011AB1002002B0BDE8F08704F120086E
:10D5E000E9461CE0A669D4E90C57DDE90001E269CF
:10D5F000AD1957412D1A8F41D4E904C34FF00007EC
:10D6000038BF0127002F1CBF0A46064616EB0C0048
:10D6100042EB0301C4E90601A06C0028DAD14846B8
:10D620002DF0B4F90098DAE90012019B401A73EB6F
:10D63000020005D2484651462CF03AFC3EF036FC3A
:10D64000606C0028CED0E06C32F0A2FEA26B12B16A
:10D65000E16B40469047A06C40BBA06AD4E9081239
:10D66000A769401842F10001D4E90C56C4E9080149
:10D67000DDE90001E269ED1956412D1A8E41D4E928
:10D6800004C34FF0000638BF0126002E1CBF0A4617
:10D69000074617EB0C00A061E06C42EB0301E1616F
:10D6A00032F008FFA06C0028B9D093E7E06C32F0AC
:10D6B00001FF002002B0BDE8F087000070B50D4604
:10D6C0001021064634F080F8044628686968EA6844
:10D6D000AB68E260A36061602060A96839B1304640
:10D6E00034F072F8E060D5E90221F2F705FE204639
:10D6F00070BD000010B50C46042134F065F82168B7
:10D70000016010BD70B50C461021054634F05CF880
:10D71000064620686168E26830607160F26054F823
:10D72000080F314641F8080F2846224638F016FA0D
:10D73000304670BDB0B50C46182134F045F821468E
:10D7400018220546F2F7D8FD2846B0BD4CF040BE81
:10D75000B0B50C46242134F037F821462422054682
:10D76000F2F7CAFD2846B0BD70B50C460C2105463F
:10D7700034F02AF8064654F8040B314641F8040BFD
:10D780002846224638F0EAF9304670BD10B50C46FE
:10D79000102134F019F821686268A368E468016018
:10D7A00042608360C46010BD10B50C46082134F09F
:10D7B0000BF8616822684160026010BDB0B50C468C
:10D7C000282134F001F8214628220546F2F794FD7D
:10D7D0002846B0BDF0B5ADF5577D33F06DFA43F690
:10D7E00048654BF22C76CCF20005C0F20106A85930
:10D7F00028B141F2F870295809B1002088474BF24E
:10D800001077C0F20107E859B0B34DF0B5FC01A99B
:10D81000044641F0BDF90298C11C03D079A940F03B
:10D8200069FF10B100208DF8E40103981BA940F0B6
:10D8300061FF00281CBF00208DF86C0033F0E8F970
:10D84000042808DB4AF2BF20C0F60C001EA11BAA68
:10D8500079AB33F08FF940F28151C0F6030100201B
:10D8600000222346002445F0C5F8E8594DF04EFC4F
:10D87000E8594DF029FCEC514BF22474C0F201043C
:10D88000285980B133F0C4F9042806DB4AF2BF20DE
:10D89000C0F60C001CA133F06DF9285900210027B7
:10D8A00046F008FE2F514BF20C74C0F201042859C7
:10D8B000002818BF34F0B4FA00202851A85133F0E2
:10D8C000F5F90DF5577DF0BD436C6F73696E6720F8
:10D8D000257320736F756E6420706C61796261636B
:10D8E0006B2064657669636520616E642025732012
:10D8F000736F756E64206361707475726520646502
:10D900007669636500000000436C6F73696E672081
:10D910006E756C6C20736F756E64206465766963D8
:10D92000652E2E00B0B543F64865CCF20005D5F85B
:10D93000CC040C4633F09EFC3EF0D6FAC5F8D40475
:10D94000D5F8D00461680130C5F8D004A9B133F02E
:10D950005FF904280BDB4BF26060C0F201002A582B
:10D960004AF2BF20C0F60C000AA133F003F90020F0
:10D970006060FFF72FFFD5F8D0040138C5F8D00458
:10D9800004BF0020C5F8D404D5F8CC04BDE8B040ED
:10D9900033F0A6BD436C6F73696E6720736F756E4D
:10D9A00064206465766963652061667465722069C8
:10D9B000646C6520666F72202564207365636F6EEA
:10D9C00064287329000000000F2884BF4FF0FF3047
:10D9D000704780B546F2B851C2F200014FF422728E
:10D9E00000FB021084F02AFE002080BD2DE9F04FDC
:10D9F00081B040F2B827C2F200073D783E798446F4
:10DA00004CF26830BC7B002DC2F2000018BF054606
:10DA10004CF26873002EC2F2000318BF1E1A012CCC
:10DA200040F200044CF6D4199346C0F60004C0F648
:10DA30000C0907D1F87B78B14FF000084FF0000ACD
:10DA400034E000BF6846EFF309834FF000089842C6
:10DA50004FF0000A2CD03BE044F2B400C2F20000C8
:10DA60008369CCF8003040693B7A0138002B18BF3D
:10DA70002346984204D24FF0000A4FF0010815E007
:10DA800097F80C80A9EB040EB8F1000F18BF73448F
:10DA90004FF0000A02294FF0010807D398429EBFB9
:10DAA000CCF804004FF0010A4FF00208387C78B13E
:10DAB0006646D1468A4696F00DFC054696F012FC65
:10DAC0005146CA464CF6D419C0F60C09B446860035
:10DAD000F87B012806D15D45284604D870195845C1
:10DAE00038BF834658463B7A72193E7B002B18BFDD
:10DAF0002346002E9E46A9EB040718BFBE44904261
:10DB000070D2BAF1000F03F1040338D103E000BF73
:10DB10000430904266D20568EF07F9D06F1E9F422D
:10DB2000F6D3774598BFB8F10F0FF1D835F8034C0D
:10DB300004F47846B6F5784F0AD135F8056C06F44A
:10DB40007846B6F5704F03D1012555B9E0E700BF1F
:10DB500024F0FF06A6F58E46B6FA86F67509002D66
:10DB6000D6D088453CBF4CF8287008F10108CFE7B3
:10DB70004CF8287008F101080430904232D2056850
:10DB8000EF07F9D06F1E9F42F6D3774598BFB8F1E3
:10DB90000F0FF1D835F8034C04F47846B6F5784FFA
:10DBA0000AD135F8056C06F47846B6F5704F03D106
:10DBB000012555B9E0E700BF24F0FF06A6F58E4623
:10DBC000B6FA86F67509002DD6D08845D4D2B8F1BC
:10DBD000020FCDD1DCF80460B742C9D14FF0020882
:10DBE000CAE700BF404601B0BDE8F08F2DE9F0471D
:10DBF00086B040F2B824C2F20004267827798A461B
:10DC00004CF26831627B002EC2F2000118BF0E4652
:10DC10004CF26873002FC2F2000318BF5F1ACAB13A
:10DC20008146A07B01282DD14CF269114CF2407342
:10DC3000C0F60C010FF2FC62C0F60C030020F9F7ED
:10DC400035F94CF2F511C0F60B010020F9F72EF969
:10DC5000FEE700BF4CF269114CF2AF324CF2407358
:10DC6000C0F60C01C0F60C02C0F60C030020F9F758
:10DC70001DF94CF2F511C0F60B010020F9F716F969
:10DC8000FEE700BF01204BF28861A073C0F60C01D3
:10DC90000020F9F70BF94CF2F518C0F60B0800203C
:10DCA0004146F9F703F94CF2027104F1510504F110
:10DCB000110204F13103C0F60C0100200095F9F7C0
:10DCC000F5F800204146F9F7F1F8C9F3800019F0A2
:10DCD000040F20740CD10FF2FC510020F9F7E6F884
:10DCE0004CF2F511C0F60B010020F9F7DFF81DE04A
:10DCF00096F092F920B196F08FF9024602E000BF4B
:10DD00000FF2B4520FF2B8510020F9F7CFF84CF2ED
:10DD1000F511C0F60B010020F9F7C8F8EFF3098AF6
:10DD200096F0D8FA064696F0DDFA87005FEAC960F9
:10DD30004FF0200058BF68200AEB0008B04502D31E
:10DD4000B819804501D90120E07330463946424672
:10DD500008F06CF8E07B44F2B4070028C2F2000738
:10DD60006FD14CF28B11C0F60C010020F9F79EF830
:10DD70004CF2F519C0F60B0900204946F9F796F860
:10DD8000DAF81020DAE90030DAE902143A61DAF858
:10DD900014204CF29F067A61DAE906254CF26E7A7D
:10DDA000C7E906254CF2A702C0F60C024CF2A30507
:10DDB000C7E90030B960FC60C0F60C05C0F60C067F
:10DDC0000492C0F60C0A4CF29B02CDE90060CDE94A
:10DDD0000251C0F60C02002051460594F9F766F88E
:10DDE00000204946F9F762F84CF23922D7E90430AD
:10DDF000D7E90616C0F60C024CF2AB044CF2AF05A4
:10DE0000C0F60C04C0F60C0504924CF28712CDE962
:10DE10000050CDE90241C0F60C02002051460596A3
:10DE2000F9F744F800204946F9F740F84CF2CA11D6
:10DE3000C0F60C010020F9F739F800204946F9F73F
:10DE400035F84EF62451CEF20001086838620879A0
:10DE500087F824000869B862487987F82C00486977
:10DE60003863C888B8868868B8638A89FA63098B7A
:10DE7000820739640CD50FF290410020F9F716F8AB
:10DE80004CF2F511C0F60B010020F9F70FF8B86B52
:10DE9000400040F1CC8097F8240000287CD0C107D6
:10DEA0000CD181071CD401072CD4C1063CD48106B7
:10DEB0004CD441B2B1F1FF3F5CDD6DE04CF29241D8
:10DEC000C0F60C010020F8F7F1FF4CF2F511C0F696
:10DED0000B010020F8F7EAFF97F824008107E2D54C
:10DEE0004CF22341C0F60C010020F8F7DFFF4CF2A2
:10DEF000F511C0F60B010020F8F7D8FF97F82400C1
:10DF00000107D2D54CF2CC61C0F60C010020F8F725
:10DF1000CDFF4CF2F511C0F60B010020F8F7C6FF5B
:10DF200097F82400C106C2D54CF27061C0F60C010E
:10DF30000020F8F7BBFF4CF2F511C0F60B010020F2
:10DF4000F8F7B4FF97F824008106B2D54CF21251CD
:10DF5000C0F60C010020F8F7A9FF4CF2F511C0F64D
:10DF60000B010020F8F7A2FF97F8240041B2B1F1AD
:10DF7000FF3F11DC10F003000ED0BA6A4CF2BE7104
:10DF8000C0F60C010020F8F791FF4CF2F511C0F635
:10DF90000B010020F8F78AFF97F82C0020B3C10787
:10DFA00040F0B480810700F1C480410700F1D480C3
:10DFB000010700F1E480C10600F1F480810600F160
:10DFC000048100F0820082280ED13A6B4CF29771E6
:10DFD000C0F60C010020F8F769FF4CF2F511C0F60D
:10DFE0000B010020F8F762FFB88E00B3C10740F0C4
:10DFF0000381810700F11381410700F123810007AC
:10E0000000F1338197F83500C10740F04181800766
:10E010000DD54CF2FF01C0F60C010020F8F746FFC9
:10E020004CF2F511C0F60B010020F8F73FFFB86B7A
:10E03000B0F1FF3F1ADCF86BC0B1C0B2C1071BD111
:10E0400081072BD441073BD401074BD4C0060DD523
:10E050004CF29821C0F60C010020F8F727FF4CF293
:10E06000F511C0F60B010020F8F720FF404606B07E
:10E07000BDE8F0477CF048BC4CF20921C0F60C0129
:10E080000020F8F713FF4CF2F511C0F60B01002049
:10E09000F8F70CFF97F83C008107D3D54CF2C82164
:10E0A000C0F60C010020F8F701FF4CF2F511C0F6A4
:10E0B0000B010020F8F7FAFE97F83C004107C3D5A2
:10E0C0004CF23D21C0F60C010020F8F7EFFE4CF2B7
:10E0D000F511C0F60B010020F8F7E8FE97F83C00B8
:10E0E0000107B3D54CF26921C0F60C010020F8F706
:10E0F000DDFE4CF2F511C0F60B010020F8F7D6FE5C
:10E1000097F83C00C006B1D5A2E700BF4CF25E41D3
:10E11000C0F60C010020F8F7C9FE4CF2F511C0F66C
:10E120000B010020F8F7C2FE97F82C0081077FF55D
:10E130003CAF4CF2B731C0F60C010020F8F7B6FE48
:10E140004CF2F511C0F60B010020F8F7AFFE97F87E
:10E150002C0041077FF52CAF4CF2EC31C0F60C01DE
:10E160000020F8F7A3FE4CF2F511C0F60B010020D9
:10E17000F8F79CFE97F82C0001077FF51CAF4CF2D6
:10E18000A461C0F60C010020F8F790FE4CF2F511E6
:10E19000C0F60B010020F8F789FE97F82C00C106A5
:10E1A0007FF50CAF4CF24A61C0F60C010020F8F785
:10E1B0007DFE4CF2F511C0F60B010020F8F776FE5B
:10E1C00097F82C0081067FF5FCAE4CF2D441C0F6E6
:10E1D0000C010020F8F76AFE4CF2F511C0F60B01B5
:10E1E0000020F8F763FE97F82C0000F082008228E8
:10E1F0003FF4EBAEF8E600BF4CF25E51C0F60C0106
:10E200000020F8F753FE4CF2F511C0F60B01002088
:10E21000F8F74CFE97F8340081077FF5EDAE4CF22D
:10E22000B301C0F60C010020F8F740FE4CF2F511E6
:10E23000C0F60B010020F8F739FE97F834004107CB
:10E240007FF5DDAE4CF2EB51C0F60C010020F8F783
:10E250002DFE4CF2F511C0F60B010020F8F726FE5A
:10E2600097F8340000077FF5CDAE4CF2A451C0F60C
:10E270000C010020F8F71AFE4CF2F511C0F60B0164
:10E280000020F8F713FE97F83500C1073FF4BFAE42
:10E290004CF2FB21C0F60C010020F8F707FE4CF20F
:10E2A000F511C0F60B010020F8F700FE97F83500D5
:10E2B00080073FF5AEAEBAE64E4F5F4E414D45008A
:10E2C0004661756C74206F6E20746872656164209D
:10E2D000257300004661756C74206F6E20696E7442
:10E2E000657272757074206F722062617265206D44
:10E2F0006574616C286E6F204F532920656E7669B6
:10E30000726F6E6D656E740048617264206661752F
:10E310006C74206973206361757365642062792071
:10E320006661696C656420766563746F72206665EA
:10E3300074636800216F6E5F6661756C7400000025
:10E3400070B540F2B826C2F2000614460D460146EA
:10E3500006F111002022F2F701F806F131002946FA
:10E360002022F1F7FBFF06F1510021462022F1F7B0
:10E37000F5FF4CF268314CF26872C2F20001C2F251
:10E3800000020120511A30703071307230731CBF9E
:10E39000707370BD4CF24D31C0F60C010020F8F7DF
:10E3A00085FD4CF2F511C0F60B010020BDE8704070
:10E3B000F8F77CBD083137F09BBD00002DE9F04F28
:10E3C00089B0824601EB4300994616468B4603907E
:10E3D00000200891CDE901A318E000BF0BEB420239
:10E3E000C90B1180A0EB0B00BAF81A2044100BEBFC
:10E3F00042002244B21A00EB44015200F1F77CFFC4
:10E400000698361B2044484580F05E81BAF81A40D1
:10E4100004EB09018E4240F257810399BAF80420B7
:10E42000A1EB400101EB4202069002EB44000BEB32
:10E430004607BAF81C30B84288BFA7EB44025846DA
:10E44000002700970BF0FCFEBAF80810C9070BD1A3
:10E45000002CC7D0DAF830E0621E032ACDE904466A
:10E4600014D24FF0000860E0002CBBD04FF4004104
:10E47000B1FBF4FE621E032ACDE9044680F09880C9
:10E4800047F6FF734FF0000CE3E000BF24F00301F8
:10E49000670000244FF00008079100BF0EEB070350
:10E4A0003BF9046033F8021C3EF8042001FB06F936
:10E4B000065F0BEB040502FB06920119D20B2BF849
:10E4C00004200EEB040633F8049CB5F902A0B1F960
:10E4D00002B0B6F802C009FB0AF20CFB0B22B5F938
:10E4E00004C0D20B6A8033F8069CB1F904A0B6F8D8
:10E4F00004B009FB0CF20BFB0A22DDF820B0D20BB2
:10E50000AA80B5F9062033F8083CB1F90610F68860
:10E510005A4306FB012108F10408C90BE980079959
:10E5200008344145A7F10807B8D1049C059EDDE9F0
:10E5300001A914F003033FF455AF6FEA0802224427
:10E540003BF918103EF8122030F918703EF81850B8
:10E55000514305FB0711012B4FEAD1312BF818105D
:10E560003FF440AFA4EB080708F101010EEB470CA4
:10E570003BF911203CF8047C30F911503EF8114071
:10E580007A4304FB0522022B4FEAD2322BF81120EA
:10E590003FF428AF08F102023BF912103CF8063CA8
:10E5A00030F912703EF81250594305FB071115E778
:10E5B00024F0030147F6FF734FF0000C6FF00104E5
:10E5C000079100BF0BEB0405B5F9027000EB040ADC
:10E5D000BAF902105F43C3F1010909FB0171A3EB12
:10E5E0000E03C90B69800BEB4C01B1F90270C3F14A
:10E5F000010B03FB07F900EB4C07B7F902800CF1A4
:10E60000040C0BFB0892B1F90480D20B4A80A3EBF7
:10E610000E02B7F9047002FB08F3C2F1010606FB13
:10E620000733A2EB0E02DB0B8B80B5F90810BAF9A9
:10E6300008305143C2F1010606FB0311DDF820B09A
:10E64000C90B29810799A2EB0E03614504F1080467
:10E65000B8D10499059EDDE901A911F003073FF443
:10E66000C1AE3BF91C1030F91C205943C3F1010421
:10E6700004FB0211012F4FEAD1312BF81C103FF49B
:10E68000B1AE0CF101013BF91120A3EB0E0330F9FF
:10E6900011405A43C3F1010505FB0422022F4FEA42
:10E6A000D2322BF811203FF49DAE0CF102023BF95F
:10E6B0001210A3EB0E0330F912705943C3F101039A
:10E6C00003FB07118AE600BF09B0BDE8F08F000028
:10E6D000F0B583B00F2831D846F2B8570546C2F2DC
:10E6E00000074FF4227005FB00740F2A22DD088812
:10E6F0000E4602281ED1708888F0FAFB7168024627
:10E700000029029118BF01218800019001A920462B
:10E7100083F0CAFFB0B10146DC2817D14FF4227054
:10E7200005FB0070806A0028204614BF3C2124218C
:10E7300002E000BF2046162184F0C4FC4FF0FF30F9
:10E7400003B0F0BD002003B0F0BD00BF204684F050
:10E750000DFD4FF0FF3003B0F0BD0000F0B581B00B
:10E76000064640424FF000000D4670EB01014FF0AD
:10E770000001B8BF01211746002904BF0E460D460F
:10E780001081304629463C220023F1F731FDC0EBD1
:10E790000012A6EB8202FA713C220023F1F728FD59
:10E7A000BA71304629464FF461620023F1F720FD2B
:10E7B00018220023F1F71CFD7A7145F28012C0F295
:10E7C0000102304629460023F1F712FD0546880074
:10E7D00040EA957148F69060C0F2010010EB8500A8
:10E7E00043F6B12241F10001C0F202020023F1F729
:10E7F000FFFC0F302918A1EB900044F28131C0F2E8
:10E80000250108444FF2766200EB8001CFF6FF72DB
:10E8100002EB81014CF6AD72C8F68A72A1FB0212BE
:10E82000110BA0EB92306FF4B67301FB03004FF4B1
:10E830007A7143F64B234143C4F28843A1FB03366C
:10E84000730B40F2592544F6D3545D43C1F2620480
:10E85000A5FB045448F67E15C0F20605A9424FF008
:10E86000F30138BFFF21A3EB031301EB56314EF642
:10E87000955600EB430038BF4EF6945606EB123225
:10E88000A0EB9410CBB23A80B970F870032B38BF6C
:10E89000013A93B24FEA930641F27B4505FB06F637
:10E8A00038BF0C31760C6425C9B21A2406FB152238
:10E8B00011FB04414CF6CD4461431B0940F63E2454
:10E8C000634352FA80F095B200EB134006EB8606E4
:10E8D00000EB9500304400EBD140053081B242F2AC
:10E8E00093425143A0EB114292B2520802EB114104
:10E8F0008908A1EBC10108440130387101B0F0BDB5
:10E9000083B0029001910092009802998969019A5E
:10E9100041F8220001980299C969009AD26841F829
:10E92000220003B0704700002DE9F04717468A46E1
:10E93000DDF8209080460846114628221D46F1F752
:10E94000DBFC286880B100244E4600BF30463946C3
:10E9500037F0CEFA002845D028680134844206F109
:10E960000806F3D3844240D1404651463A4637F038
:10E97000F5F828680F2808D8DAE9002309EBC00168
:10E9800049F8302001304B602860786948B1398AF5
:10E99000404632F019FFCAF8140079693A8AF1F753
:10E9A000ABFC3889013820282DD8DFE800F0291188
:10E9B0002C2C112C2C2C2C2C2C112C2C2C2C2C2CCD
:10E9C0002C2C2C2C2C2C2C2C2C2F2C2C2C2C3D009F
:10E9D0000AF1180107F118024046BDE8F04737F088
:10E9E000BDB800BF28688442BED009EBC40059F806
:10E9F00034104068CAE9001078690028C7D1D0E710
:10EA0000B869CAF81800BDE8F08700BFB869F969AD
:10EA10007A6A3B6ACAF82420CAF82030CAF81C1067
:10EA2000CAF81800BDE8F0872868203778B10024BC
:10EA30004E4600BF3046394637F05AFAF0B12868E2
:10EA40000134844206F10806F4D3844219D10AF154
:10EA5000200140463A4637F081F828680F2888BFE1
:10EA6000BDE8F087DAE9082309EBC00149F8302056
:10EA700001304B602860BDE8F08700BF2868844201
:10EA8000E5D009EBC40059F834104068CAE9081011
:10EA9000BDE8F08780B58CB0DDF838C00A900991E8
:10EAA000089207930A9806900698D0F8C00431F0AF
:10EAB0006FFC0E9820B9FFE70A9880680E90FFE778
:10EAC000089840F63011CCF200014969884224D8F8
:10EAD000FFE704200490FFE7049900200029039039
:10EAE0000ED4FFE7049940F63010CCF2000050F845
:10EAF0002110089A0020914228BF01200390FFE7CF
:10EB00000398C00728B1FFE7FFE704980138049095
:10EB1000E2E704980130049020E006200490FFE72B
:10EB2000049900200F2902900EDCFFE7049940F6BB
:10EB30003010CCF2000050F82110089A00209142C9
:10EB400038BF01200290FFE70298C00728B1FFE715
:10EB5000FFE7049801300490E2E7FFE704981028EB
:10EB600009D0FFE70698049900EBC100383031F076
:10EB7000EDFA28B3FFE704980F2809DCFFE70499B2
:10EB800040F63010CCF2000050F821000890FFE76A
:10EB900006980999089A079BDDF838C0EE46CEF82A
:10EBA00000C032F0A3FF0590059840B9FFE7069832
:10EBB000D0F8C00431F07EFC00200B904EE039E02C
:10EBC0000698049900EBC100C06B0590059831F0E0
:10EBD000C7FA05980999079A0E9B33F0F1F8069841
:10EBE000406A0190059833F0C1F8014601988842C7
:10EBF00009D9FFE7059833F0B9F802460699486A43
:10EC0000801A486203E0069900204862FFE7FFE7A8
:10EC100031F0FEFF06280BDBFFE7059901F1080044
:10EC20000A6B4DF2CE71C0F60B0131F0CBFFFFE75E
:10EC3000FFE7FFE70698B830059931F007FB049825
:10EC40000599C8620699C86A0130C8620698D0F86A
:10EC5000C00431F02FFC05980B90FFE70B980CB027
:10EC600080BD000080B58CB00B900A910B98099084
:10EC70000998D0F8C00431F08BFBFFE731F0C8FFF2
:10EC800003280BDBFFE74DF2C570C0F60B004DF219
:10EC90002671C0F60B0131F059FFFFE7FFE7FFE7F0
:10ECA00031F0B6FF032811DBFFE70998426A836A57
:10ECB000C06A694608604DF2C570C0F60B004DF29F
:10ECC000E371C0F60B0131F041FFFFE7FFE70A985F
:10ECD000002800F08280FFE70998D0F8BC00089077
:10ECE000002007900690FFE731F092FF03280BDB2E
:10ECF000FFE74DF2C570C0F60B004DF23D71C0F656
:10ED00000B0131F023FFFFE7FFE7FFE708980999C0
:10ED1000B831884242D0FFE7089833F027F80590D1
:10ED2000FFE731F075FF032828DBFFE7089833F091
:10ED300041F80290089833F01FF80390059804906A
:10ED4000089833F019F8029A039B014604984FF093
:10ED5000640C01FB0CF1DDF814C0B1FBFCFC69464E
:10ED6000C1F804C008604DF2C570C0F60B004DF24A
:10ED70008E71C0F60B0131F0E9FEFFE7FFE708985E
:10ED800032F0FAFF01460798084407900599069863
:10ED900008440690089840680890B7E70698D8B1EC
:10EDA000FFE7FFE731F034FF032813DBFFE7079AA3
:10EDB000069B64205043B0FBF3F0694608604DF2B7
:10EDC000C570C0F60B004DF2DF61C0F60B0131F0EB
:10EDD000BDFEFFE7FFE7FFE7FFE70998D0F8C004B3
:10EDE00031F068FB0CB080BD83B0029001910298B5
:10EDF0000090019A0099086B104408630099086B11
:10EE0000496B884204D9FFE70099086B4863FFE724
:10EE1000012003B07047000083B002900191029876
:10EE20000090019A0099086B801A086303B070473C
:10EE300080B58AB00990089109980790FFE7099872
:10EE400020B1FFE7089808B1FFE70AE04DF2AE7085
:10EE5000C0F60B004DF25971C0F60B01D322FAF740
:10EE600043F909990020049031B1FFE70898002880
:10EE700018BF01200490FFE70498099818B1FFE734
:10EE8000089808B9FFE78EE0FFE70798D0F8C004BC
:10EE900031F07EFA089831F063F90799C86A0138B1
:10EEA000C862089832F062FF0690069840F630116A
:10EEB000CCF20001C96B884208D8FFE70799069A8F
:10EEC000486A896A1044884209D9FFE7089832F0F5
:10EED000FFFE0798D0F8C00431F0ECFA63E0FFE7DA
:10EEE00031F096FE062822DBFFE7089800F10801C2
:10EEF00003910699019132F03FFF0290089832F099
:10EF00003BFF019A029B014603984FF0640C01FB02
:10EF10000CF1DDF818C0B1FBFCF1EC46CCF80010A8
:10EF20004DF20071C0F60B0131F04CFEFFE7FFE738
:10EF3000089832F085FF089832F018FF069008987C
:10EF4000C06A059005980F2801D8FFE70BE04DF245
:10EF50002170C0F60B004DF25971C0F60B014FF451
:10EF60008072FAF7C1F80598102809D3FFE70898CE
:10EF700032F0AEFE0798D0F8C00431F09BFA12E0F0
:10EF80000798059900EBC1003830089931F04AF92B
:10EF9000069A0799486A104448620798D0F8C00456
:10EFA00031F088FAFFE70AB080BD00002DE9F04398
:10EFB00081B0044643F648694BF23070CCF2000948
:10EFC000C0F2010059F8000017460D46511C08BF59
:10EFD0006FF00107C007384621461E4608BF284685
:10EFE0003FF012FB804658B14AF2BF20C0F60C0039
:10EFF00049A1424677F018FD404601B0BDE8F083D4
:10F00000DDE908030321C4E903604BF2B860C0F2F4
:10F010000100217059F800100A9A63610B07C4E9D6
:10F020000157A2612CD4CA0639D40A0646D4E06935
:10F03000C90509D54BF2ED61C0F2010119F80110C3
:10F0400040F4807084F851104BF2CC41C0F20101C1
:10F0500059F801104BF2D04221644BF2C841C0F282
:10F060000101C0F2010259F8011059F8022062644E
:10F07000B1B340F2066210430122C4E9152133E026
:10F08000E16941F00801E1614BF2E461C0F2010184
:10F0900059F8012059F80010A264CA06C5D5E169E3
:10F0A00041F01001E1614BF2E861C0F2010159F851
:10F0B000012059F80010E2640A06B8D5E16941F070
:10F0C0008001E1614BF2EC61C0F2010119F801200D
:10F0D00059F8001084F85020E069C905AAD4B3E7B4
:10F0E00040F20661884306304BF2B441C0F20101A0
:10F0F00059F8011031B120F40060E061404601B0E0
:10F10000BDE8F08340F40060E061012060664046A5
:10F1100001B0BDE8F08300BF4572726F7220726566
:10F120007472696576696E672064656661756C7472
:10F1300020617564696F206465766963652070611C
:10F1400072616D6574657273000000002DE9F0470F
:10F1500084B014460F4601214C22984606464FF0D3
:10F16000010A32F01DFC002854D0DDF8309005462D
:10F170000760047199F80000C5F808800128C5F8F7
:10F180000CA039D1D7F8D414C822514344F6D35235
:10F19000D7F82C07C1F26202A1FB0212B0EB522F8A
:10F1A00098BF500A00F10C013046B1F5B96F28BF85
:10F1B0004FF4B961296132F007FB6861A0B399F897
:10F1C0003A04D9F824148000D9F8282440EA01111F
:10F1D000B9F83864D9F81834D9F83474033105F122
:10F1E0001800C9B2CDE900264246029747F00CFC50
:10F1F00050B104B0BDE8F08741F27C10C0F20100CC
:10F2000004B0BDE8F08700BF0D980560002004B091
:10F21000BDE8F08741F6D4310EA0C0F60C0140F6EF
:10F22000EF02F9F761FF00BF41F6D43103A0C0F649
:10F230000C0140F61712F9F757FF00BF6368616EC3
:10F240006E656C2D3E6F75745F706B7420213D2070
:10F25000300000006368616E6E656C20213D2030D7
:10F26000000000002DE9F04F85B017468B460121C4
:10F2700074221D46814632F093FB002800F0F08096
:10F280000446484621462A4636F018FD40F203302F
:10F29000A081DBF8041080206063A0638A004846E8
:10F2A000012132F07DFB0028606100F0E380DBF893
:10F2B000040001218200484632F072FB0028A06160
:10F2C00000F0E280F7B107F11000012143F076FC75
:10F2D000D0E900268168A6FB0203A0FB010503FB21
:10F2E0000151254645F8202F44F24022C0F20F027A
:10F2F000002345F8187CF0F77BFF6860DBF87800A6
:10F30000AE600BE0DBE91C12DBF87800254645F81F
:10F31000201F002145F8181CC5E90102420048469B
:10F320000121012732F03CFB216ADBF87020E06309
:10F3300091420DD10B46A06ADBF8742090423CD17B
:10F34000676ADBF878209742024636D179E000BF41
:10F35000DBF80000DBE91D3627EAD00A27EA90082F
:10F3600006FB01F0B0FBF2F004F14007CDE900121A
:10F370000290484651464246039745F065FA18B157
:10F3800005B0BDE8F08F00BF0BF17007206A8ACF8F
:10F3900004F14402CDE9001003924846514642462A
:10F3A000029745F051FA0028EAD12968DBF870305D
:10F3B0009942C0D0A06ADBF87420676ADBF8785005
:10F3C000B7FBF0F7B5FBF2F54FF47A7677436E436F
:10F3D000B7FBF1F7B6FBF3F39F4205D9B7FBF3F6A2
:10F3E0001D4606FB137C05E0B3FBF7F63D4606FB26
:10F3F000173C1F4644F6D353BCF1000F18BF2F44EF
:10F400007943C1F26203A1FB03139909904288BFBB
:10F41000024601FB02F00025C4E9130541004846FD
:10F4200032F0D2F90028A06442D0E06CC4E919059A
:10F430004100484632F0C8F90028206642D0DBF887
:10F440007870BA004846012132F0AAFAE06528B384
:10F450000E98802104600020A16505B0BDE8F08F02
:10F460004FF268513AA0C0F60B0140F21512F9F7BD
:10F470003BFE00BF4FF268512EA0C0F60B0140F2D8
:10F480002512F9F731FE00BF4FF2685121A0C0F6F6
:10F490000B014FF49572F9F727FE00BF4FF2685148
:10F4A00017A0C0F60B0140F2A712F9F71DFE00BF2E
:10F4B0004FF268510DA0C0F60B0140F29712F9F718
:10F4C00013FE00BF4FF2685103A0C0F60B0140F2DB
:10F4D0009F12F9F709FE00BF636F6E665F706F726F
:10F4E000742D3E74785F627566000000636F6E660F
:10F4F0005F706F72742D3E72785F627566000000F7
:10F50000636F6E665F706F72742D3E6D69785F62B7
:10F5100075660000636F6E665F706F72742D3E6C6F
:10F52000697374656E65725F61646A5F6C65766548
:10F530006C000000636F6E665F706F72742D3E6CBE
:10F54000697374656E65725F736C6F74730000002D
:10F55000636F6E665F706F72740000002DE9F04794
:10F5600041F27717904689460546C0F2010765F0DB
:10F5700077FE002844D045F64811C0F60C014FF440
:10F5800096624FF40073064655F0A6FDA0B3012124
:10F590004FF42E72824632F003FA00285ED0044601
:10F5A00045F64812C0F828A00830C0F60C02202109
:10F5B000234697F037FC40F61400CCF200000068B8
:10F5C0000021C4F8E80004F16400C4E9190004F162
:10F5D000BC00A26A84F83C10C4E92F0004F59E70B8
:10F5E00031460023C4E90B5650F076FC074658B16B
:10F5F0003046514656F056FC3846BDE8F08700BF0D
:10F60000B81DBDE8F08700BFB9F1000F04F1340563
:10F6100018D0C5F8009048462BF0F8FC606B42F615
:10F62000CD63C0F60103514622462BF0DBFC04F10A
:10F6300044000027C4E9110038462766C8F8004096
:10F64000BDE8F087504600212A462BF0E7FC07462C
:10F650000028CDD1D5F80090DDE700BF45F24F710D
:10F6600002A0C0F60C015D22F9F73EFD646C672034
:10F67000213D2030000000002DE9F04381B0DDF88D
:10F68000208005460020C8F800001860D5F8C009A1
:10F690004C6889461646A0B91F4631F0B9FA0528CC
:10F6A0000BDBD5F8BC1942F6CB12C0F60B02D5F82D
:10F6B0005C04525C27A131F071FA01203860D5F862
:10F6C000C009D5F8842BD5F8B0191044D5F8BC3949
:10F6D000884238BF01460A20C5F8C019607088B258
:10F6E00023702CF0E7F8608026B1D5F8B009C5F892
:10F6F000C00905E0D5F8B009D5F8C019814223D377
:10F700006078D5F8C41940F080006070481C022968
:10F71000C5F8C40918DBD5F83C07012105F6BC166D
:10F72000C8F8001031F0A6FDD5F8B82930460C21F4
:10F73000002327F07FFFD5F8B809411ED5F83C0714
:10F74000C5F8B81931F0CCFE0420C9F8080001B0A2
:10F75000BDE8F08353656E64696E672044544D467E
:10F7600020646967697420696420256300000000D3
:10F7700080B58AB00890079106920593FFE7089834
:10F7800018B1FFE7059820BBFFE7089820B1FFE715
:10F79000059808B1FFE70AE04CF6AF60C0F60B0031
:10F7A0004CF68261C0F60B014422F9F79DFC0899E2
:10F7B0000020019031B1FFE70598002818BF012013
:10F7C0000190FFE7019841F27410C0F20100099026
:10F7D0002CE0FFE70898142131F0F6FF049004981C
:10F7E00030B9FFE741F27710C0F2010009901DE047
:10F7F000049840F22861CCF20001142231F0A0FB01
:10F8000008980799069A03AB31F036FC02900298EB
:10F8100018B1FFE70298099008E00398049908607E
:10F8200004980599086000200990FFE709980AB03C
:10F8300080BD00002DE9F0438DB0884647F6D80121
:10F84000C0F60A01D1E9001200280B920A9100F0DB
:10F850009380B8F1000F00F08F808146D0E912311B
:10F8600009F13407C4CF40683F6A00248DE8520094
:10F870004BF6107109ADC0F60B01CDE904450397B5
:10F8800055F058FC10B10DB0BDE8F083099909F1AD
:10F89000D80050F03FFBD9F8640009F16005A84298
:10F8A00020D009982921D0F8D40000225BF0ACFFC9
:10F8B000044620B90998D0F8D40000F11404D9F80E
:10F8C0006470AF420ED000BF09983946806859F085
:10F8D00021F906462046314630F0A4FC7F683446C4
:10F8E000AF42F1D1099809F1240280680AA958F0C1
:10F8F0006BFA30B101460998D0F8D400143030F0DA
:10F90000A5FCD9F85400B0B147F66050C0F60A0023
:10F91000D0E90010099B0790986809F15002069100
:10F9200006A958F051FA30B101460998D0F8D40030
:10F93000143030F08BFCD9F8AC6009F1A804A64271
:10F9400018BFB44210D000BF09983146806859F002
:10F95000E1F80999D1F8D420014602F1140030F001
:10F9600075FC7668A642EFD10998C8F8000000201F
:10F970000DB0BDE8F08300BF48F65D3048F66D314C
:10F98000C0F60C00C0F60C0140F27D12F9F7ACFB9A
:10F990002DE9F04387B000286AD08846002967D057
:10F9A000D0F80490054658F085FBE96BD5E9123490
:10F9B000D5E90D270E6A01460DF1180C0020CDE99E
:10F9C0000040CDE9040C48460297039655F0B2FB7F
:10F9D00010B107B0BDE8F083069905F5B47050F09A
:10F9E00099FAD5F8F40005F1F009484520D00698B9
:10F9F0002921D0F8D40000225BF006FF044620B98C
:10FA00000698D0F8D40000F11404D5F8F4704F45EE
:10FA10000ED000BF06983946806859F067F8064650
:10FA20002046314630F0FEFB7F6834464F45F1D129
:10FA3000D5F83C6105F59C74A64218BFB4420FD0BE
:10FA400006983146806859F051F80699D1F8D420CB
:10FA5000014602F1140030F0F9FB7668A642EFD1BE
:10FA60000698C8F80000002007B0BDE8F08300BF8A
:10FA700049F2625049F27251C0F60C00C0F60C0116
:10FA80004FF40072F9F730FBF0B583B002AE009688
:10FA900052F0BAFC10B103B0F0BD00BF0A98029951
:10FAA000089E01607568099CB5420FD08868D1F83E
:10FAB000D470294659F01AF8014607F1140030F0C5
:10FAC000C5FB6D68B54201D00299EFE74CB10298D1
:10FAD000214680685BF048FD0299D1F8D410486354
:10FAE00010B1002003B0F0BD31F092F80428F8DB2B
:10FAF00048F24870C0F60C0002A131F03BF800203B
:10FB000003B0F0BD4572726F723A20756E61626C1F
:10FB10006520746F20636C6F6E65206D7367206263
:10FB20006F647900B0B584B005464AF051FC47F6E1
:10FB3000F821C0F60A01D1E90012044647F6003068
:10FB4000C0F60A000392D0E900020291CDE900025A
:10FB500028460121382231F023FFA8B102A96A46C4
:10FB600005465BF09BFB4DF24D714AF64D4200207D
:10FB7000C0F60001C0F60802C5E90A402A6328461B
:10FB8000696304B0B0BD00BF48F6AA7049F23621DF
:10FB9000C0F60C00C0F60C0140F24772F9F7A4FA67
:10FBA000F0B583B0826A0646576A00680D460024A5
:10FBB00002AB39460022009474F01CF8044668B188
:10FBC0004AF2B8704AF2DC61C0F60C00C0F60C01D3
:10FBD000224676F029FF204603B0F0BD029A304657
:10FBE000394600231BF0DEF902982860204603B056
:10FBF000F0BD00002DE9F04FB1B0884647F6E801AE
:10FC0000C0F60A019146D1E90012064647F6F8000F
:10FC1000C0F60A002F92D0E9000222AC2C904FF6D9
:10FC20000C70CDE92D2147F6F001C0F60A00C0F6B0
:10FC30000A0105884AF2CE50D1E90012C0F60C0044
:10FC400020900920CDE92A12219020AA2846214699
:10FC5000002335F005F843F648604BF27861CCF2AA
:10FC60000000C0F20101405829AF3146002223466E
:10FC7000009742F0ADFA18B131B0BDE8F08F00BF87
:10FC8000D8F830000896CDF80890B8B108302AA905
:10FC900036F02EF9B0FA80F1490907914FF60E714E
:10FCA000C0F60A010A880FA90431099100280392BD
:10FCB00008BF1546D8F8640180B939E14FF60E70D7
:10FCC000C0F60A00008803900FA8043009900020B5
:10FCD0000790D8F86401002800F02A810FA824308A
:10FCE000069008F5B4704DF62E294CF2CB34C0F6D0
:10FCF0000B094FF0000ACDF810808046059515E0FD
:10FD00002998049BD0F864110AF1010A4A1CC0F832
:10FD1000642100EB8100C0F86871D3F86401059D8F
:10FD200082450B9800EB0B0480F0028158F82A0002
:10FD30000021D0F81C011F91C0B108302AA936F06B
:10FD4000D7F8B0FA80F1079A4909114300282F46E5
:10FD5000039808BF074669B149464E464AF2CE5954
:10FD60004FF0010B0320C0F60C090DE007982F4659
:10FD70000028F1D14E464AF2CE59C0F60C094FF098
:10FD8000000B092049462F4658F82A202091118956
:10FD900021900846002918BF012018BF21462518C8
:10FDA0008BB2099944460DF180083846424634F03A
:10FDB00057FFCDF828B0BBF1000F18BFB14654F87B
:10FDC0002A004FF00901CDF8809018BF0321008967
:10FDD00021918346002818BF4FF0010B0B9518BFE7
:10FDE0002846069983B238464246A04634F038FF8A
:10FDF00054F82A002EA936F07BF8B14690B158F895
:10FE00002A002CA936F074F8089E58F82A103046BB
:10FE100047F062FD0CAD1F90D0F81C010A9C30BB6E
:10FE200022E000BF089E012130464FF4127231F0EB
:10FE3000B7FD43F648614BF27862CCF20001C0F2A4
:10FE4000010289581F90084631460FAA00231FAFB0
:10FE5000009741F05BFD00280CAD7FF40DAF1F98BB
:10FE6000D0F81C010A9C10B92998006BC0B11F9FE3
:10FE7000B86900287FF444AF012045F22671B861CB
:10FE80002846C0F60C0135F009FCDDE90C021F998B
:10FE9000F86130463A6247F0D3FD1F9F30E700BF5C
:10FEA00030460121182231F07BFD1F990746C1F829
:10FEB0001C014FF6BE112846C0F60B0135F0EEFBD3
:10FEC000DDE90C0138601F987960D0F81C71284674
:10FED00084B14FF67011C0F60B0135F0DFFBDDE9A0
:10FEE0000C01B8601F98F960D0F81C71284649468B
:10FEF00012E000BF4FF66411C0F60B0135F0CEFBE7
:10FF0000DDE90C01B8601F98F960D0F81C714AF265
:10FF1000CE512846C0F60C0135F0C0FBDDE90C01DE
:10FF2000386179611F9FB86900287FF4E9AEA3E7C3
:10FF3000299802990860002031B0BDE8F08F0000D8
:10FF40002DE9F04F99B0002700280C9700F07E8231
:10FF5000002900F07B82229F002F00F0778241F27F
:10FF6000A4070F443E683578002D40F079820B904D
:10FF70003869CDE90732806ACDE90917002840F0D9
:10FF80007B8247F65830C0F60A008268D0E900103C
:10FF90001892CDE90501CDE9161047F64C30C0F6B0
:10FFA0000A0090E8820813A880E8820847F64030EB
:10FFB000C0F60A00029190E8020347F60010C0F66E
:10FFC0000A00D0F808A0D0E90054CDE91189CDE9A4
:10FFD0000E4A16F8040F03920028049110910D9513
:10FFE0004AD016A930465BF0CDF9002844D013A9B9
:10FFF00030465BF0C7F900283ED010A930465BF0D0
:020000040801F1
:10000000C1F9C8B30DA930465BF0BCF9A0B30A989A
:10001000CDE9147B06680398CDE9118918900598FD
:10002000CDE90E4A179006980499169002981091FF
:10003000139016F8040F0D95A8B116A930465BF081
:10004000A1F980B113A930465BF09CF958B110A911
:1000500030465BF097F930B10DA930465BF092F96C
:10006000002840F01F8241F27D16C0F201063046A2
:1000700019B0BDE8F08F00BFDDF82C9010AA4846FB
:100080000021FFF76BFA064620B1304619B0BDE8F3
:10009000F08F00BFDDF824804FF48071D8F80000A5
:1000A00031F092FB1099DDF828A08A6ADAF8101076
:1000B0001690104658F01AFD1099C1F8840057F0B8
:1000C000F9FC1098D0F88410806A243128F016FCCE
:1000D0001098169AD0F884004FF48073016A08686B
:1000E00087680120B84700280BDC169C4CF61C01E1
:1000F000C0F60C0120461822F0F7FEF82046F0F773
:1001000043F910991790886A883116AA35F026FDB0
:1001100010980021D0F88400002500F1240200206E
:100120002BF0D6F81099C1F8900031F0ABFF089A87
:1001300010996FF3DF30C1F89800C1F89C00BAB194
:10014000886A13A935F0BAFD1098DDE91323806A97
:1001500047F69861C0F60A0100955CF06BFD1099B6
:10016000C1F8940070B949F61F46C0F202061FE1BB
:10017000886A51F06BFC1099D1F88420C1F8940082
:10018000126A4262886ADAF80C1058F0AFFC1099D3
:10019000C1F8A00057F0A2FC1098169AD0F8A00061
:1001A0004FF48073016A086887680120B847002807
:1001B0000BDC169C4CF61C01C0F60C0120461822E4
:1001C000F0F79AF82046F0F7DFF810991790886A50
:1001D000A43116AA35F0C2FC1099D8F80420886A18
:1001E00001F5C471943235F0B9FCDAF8000049F633
:1001F000A01645F64E1745F684150022C0F20206F9
:10020000C0F60C07C0F60C0507E000BFDAF80000E6
:10021000626800F114018A4232D009215BF0F4FADD
:1002200070B30446406A0028F0D001680968884726
:10023000394635F0D3FE40B1606A016809688847E5
:10024000294635F0CBFE0028E0D110982146806A7F
:1002500058F04CFC1099C1F8B000DAF81820126A76
:10026000C1E92D22406A0864012081F8DC00D8F839
:10027000040090F86000800704D4002012E000BF62
:10028000002595E0DAF800000069016809688847F0
:1002900045F68411C0F60C0135F0A0FEB0FA80F0EE
:1002A00010994009C1F8E400886ADAF8081058F09B
:1002B0001DFC109D05F1F001C5E93B01C5F8F410E6
:1002C000DAF82440DCB1A86A214658F00FFC054654
:1002D0005FF0CCFE10982946F0302FF0B7FFDAF827
:1002E0000000626800F114018A4207D01D215BF012
:1002F0008BFA18B104461098806AE5E7109D0799BB
:100300000120C5F8380129B330F082FC062809DB4A
:10031000D5F8902145F2857105F10800C0F60C0171
:1003200030F050FC686B2AF055FED5F89001013092
:10033000C5F8900130F06CFC062809DBD5F8902157
:1003400045F2B27105F10800C0F60C0130F03AFC3C
:10035000012500E0002510980CAAC06A414664F00F
:1003600027F908B1064623E010980C9AC16A09697A
:1003700002EB8101C1F820011098D0F89411D0F857
:10038000A0200131C0F894112432002000212AF06D
:100390009FFF109AC2F8AC00DAF800101046012254
:1003A00054F070F91099484664F09EFF064678B301
:1003B0000C9858B14FF4FA7164F056FC1098D0F8CC
:1003C0009411002962DD0139C0F89411109C3DB1EF
:1003D000204652F0A3FA304619B0BDE8F08F00BFB6
:1003E00094F8980140B104F5CC75284662F09CFF62
:1003F0000020A8606860286004F59E704FF03EFD04
:10040000606B2AF0D7FE304619B0BDE8F08F00BF10
:10041000D9F81000109908EB800241F2F8030C980B
:10042000D150414664F0C2FA10982299086030F029
:10043000EFFB052804DB10982FA1083030F0AEFB4D
:100440000026304619B0BDE8F08F00BF45F24F716D
:100450001AA0C0F60C0140F27512F8F745FE00BF75
:1004600047F6641045F24F71C0F60C00C0F60C015F
:1004700040F27912F8F738FE45F24F7115A0C0F638
:100480000C014FF4BF72F8F72FFE00BF45F2177052
:1004900045F24F71C0F60C00C0F60C014FF4167215
:1004A000F8F722FE45F2805045F24F71C0F60C007D
:1004B000C0F60C0140F28312F8F716FE7561202693
:1004C0002620726461746120262620705F646C6748
:1004D0000000000072646174612D3E6D73675F6996
:1004E0006E666F2E746F2D3E7461672E736C656E31
:1004F000203D3D2030000000554153206469616C6F
:100500006F672063726561746564000010B504460E
:10051000C06A002818BF26F089F9204631F0C4FCD3
:100520002046BC21EFF70FFF10BD0000F0B581B0F1
:100530000E46054626F05EFBD0F8B8700446B86A51
:100540002AF048FD96B939687A6E2846002326F0CD
:1005500069FD58B90220A060B868D4E90012A66A03
:1005600004F10C0300963CF05BFBB8B1E06A002894
:1005700018BF26F05BF9204631F096FC2046BC21DE
:10058000EFF7E1FED7F8F00200240138C7F8F002D7
:10059000B86A2AF055FE204601B0F0BD0124F7E705
:1005A0002DE9F04F87B01F4614460E4626F022FB79
:1005B000D0F8B8800546D8F828002AF00BFDCCB951
:1005C000C7B1E86A002818BF26F030F9284631F094
:1005D0006BFC2846BC21EFF7B6FED8F8F002411EAE
:1005E000D8F82800C8F8F0122AF02AFE002007B038
:1005F000BDE8F08F109F3C60D4B305F10C0A4FF0BA
:10060000000B0DF1080902E0141B3C6030D0A86813
:1006100002281DD130783F282AD8A86ACDF810B01A
:100620000690D5F8B800CDF814A080684946029627
:1006300003943CF013FD049C3A68002CE4D09442EF
:10064000E2D231193046EFF757FE3A68DCE700BFD7
:1006500003280DD1D8F80CC0BCF1000F06D0AD6A4C
:1006600040463146224653460095E0470020386018
:10067000D8F828002AF0E4FD012007B0BDE8F08F8B
:10068000B0B514460D4626F0B5FAD0F8B80000F51E
:100690001871A94208D0026932B1D0E9BA13C91A57
:1006A000611AD8BF002190470120B0BD80B584B049
:1006B0008DF8040001208DF805000020CDE902002E
:1006C0008DF8081001A8114600F012F804B080BDA2
:1006D00080B584B08DF8040000208DF80510CDE9B8
:1006E000020001A8114600F003F804B080BD00002C
:1006F00080B584B0034640780238032832D8DFE85A
:1007000000F0034D7B9D00BF40F2E800C2F2000004
:10071000027C002902F0FE020274027C02F0FD025B
:1007200002744FF000024274027C02F0FB02027479
:10073000806800F0A9806A461946002395F0D8F831
:100740000098002800F081804EF60450CEF20000A0
:100750004FF080510160BFF34F8FBFF36F8F04B034
:1007600080BD00BF40F2E800C2F2000080680029AE
:1007700000F08A806A461946002395F0B9F800987F
:10078000002862D04EF60450CEF200004FF08051A7
:100790000160BFF34F8FBFF36F8F56E040F2E80068
:1007A000C2F20000027C52074FD5027C002902F001
:1007B000FB0202741A7880688DF800204FF0050261
:1007C0008DF801204FF0000269460292019265D037
:1007D00003AA002395F08CF80398B0B34EF60450AA
:1007E000CEF200004FF080510160BFF34F8FBFF396
:1007F0006F8F04B080BD00BF40F2E800C2F200007D
:10080000027CD20721D0027C002942F0040202744B
:10081000806839D06A461946002395F069F8009837
:1008200098B14EF60450CEF200004FF080510160B6
:10083000BFF34F8FBFF36F8F04B080BD40F2E8006D
:10084000C2F20000027CD20702D104B080BD00BF1A
:10085000027C02F0FB0202748068A9B16A46194664
:10086000002395F045F800980028EED04EF604508D
:10087000CEF200004FF080510160BFF34F8FBFF305
:100880006F8F04B080BD00BF19464FF0FF320023C8
:1008900004B0BDE8804094F0F7BE00BF4FF0FF32D7
:1008A000002394F0F1FE04B080BD000080B584B058
:1008B0008DF8040006208DF8050048680968CDE928
:1008C000021001A81146FFF713FF04B080BD00001D
:1008D00080B584B0DDF818C08DF8040007208DF8CD
:1008E0000500002002908DF8081001A861460392CF
:1008F0008DF80930FFF7FCFE04B080BD2DE9F04F04
:1009000089B040F21808C5F2000858F8041CD8F85D
:10091000002041F2000702EA0104C5F2000702903C
:10092000E004B94616D4A00400F19980200500F136
:10093000E780B4F1FF3F40F3F180600700F1FB80F6
:10094000200700F10781E00600F11681200300F185
:10095000188200E34CF2E4264FF48050C2F2000605
:1009600048F8040C30468021EFF7EDFC40F2D80047
:10097000C2F20000002101704FF60001CFF6FF71B6
:1009800059F801204F4622F4FE6249F801204FF643
:100990000031CFF6FF7159F8012042F0006249F8AA
:1009A00001204FF62031CFF6FF7159F8012042F0B7
:1009B000006249F801204FF64031CFF6FF7159F837
:1009C000012042F0006249F801204FF66031CFF675
:1009D000FF7159F8012042F0006249F801204FF6FA
:1009E0001C01CFF6FF714FF0011249F801204FF6BC
:1009F0001401CFF6FF71092249F801204FF61001CA
:100A0000CFF6FF7149F801203721C8F80C101021EA
:100A1000418040F23010C0F21000C8F810004FF6CC
:100A20000010CFF6FF7059F8001021F0030149F8CB
:100A300000104020708370814FF61030CFF6FF70A9
:100A400059F8001041F0C04149F80010D8F80000F2
:100A500040F44020C8F80000A0047FF567AF4FF4D1
:100A6000005048F8040C4FF60800CFF6FF703858D5
:100A700058F80C2C10F00600B0FA80F04FEA501035
:100A80004FEA400122F4705048F80C0C29D040F293
:100A90001000C2F20000026844F2FF70C0F2E810D9
:100AA000824203D94FF4C0501DE000BF49F6DF5029
:100AB000C0F2A310824203D94FF4E05013E000BF0C
:100AC00043F2FF50C0F26E10824203D94FF400503F
:100AD00009E000BF4AF23F40C0F24C10824240F2AF
:100AE0009D834FF4105058F80C2C104348F80C0C10
:100AF00002980122FFF7DAFD4F4620057FF519AF76
:100B00004FF4006048F8040C029804210122FFF71A
:100B1000DFFD4F46B4F1FF3F3FF70FAF4FF000400E
:100B200048F8040C029805210122FFF7D1FD4F4639
:100B300060077FF505AF58F8145C680705D5029883
:100B400002210122FFF7C4FD4F4648F8145C20073C
:100B50007FF5F9AE082048F8040CD8F8000003210E
:100B600020F00800C8F8000002980122FFF7B0FD4D
:100B70004F46E0067FF5EAAE0894D8F800004EF63E
:100B8000F0574CF2E4244FF6103940F2D80B20F025
:100B90001000CEF20007C2F20004CFF6FF79C2F2D5
:100BA000000BC8F8000004E058F8040CC00640F13F
:100BB000BD80D8F80810C1F343400138052835D866
:100BC00001F00F0ADFE800F010121024320400BF19
:100BD00041F20001C5F200010868CBF8080008687E
:100BE000CBF80C00E0E700BFDEE700BF04EB4A15DE
:100BF000686889B2C1F30A16F0B141F20001C5F28A
:100C0000000132468FF0C6F968898642CCD274E082
:100C100041F20000C5F2000000EB4A1050F8091044
:100C200041F0C04140F80910BEE700BF3868C00776
:100C3000BAD000BEB8E700BF4FEA4A1020585FEABA
:100C4000960C07D0ACF10102032A05D21CF0030375
:100C500021D139E0024637E0A64641F200042CF0EB
:100C600003020027C5F200042368043703602368E9
:100C70004360236883602368C360BBB2934200F182
:100C80001000F1D14EF6F05702467446CEF200073E
:100C90001CF0030318D0A44641F20004C5F200047E
:100CA000BE4627680246012B42F8047B0AD0226820
:100CB000022B426002D100F1080203E02268826048
:100CC00000F10C0264467746080910F003010DD0CC
:100CD00041F20000C5F2000000680129107005D043
:100CE000030A0329537004BF000C90702868304435
:100CF000286068898642BFF457AF41F20000C5F210
:100D0000000000EB4A1050F8090035F8081FBAF14E
:100D1000000FA1EB000028807FF446AFBBF8041061
:100D2000401A28800020ABF804003DE79BF8000043
:100D3000012818D16089618DB4F84A20884288BFA3
:100D40000146B4F86A00914298BF1146814298BFAB
:100D500001466FF0010000EA51001730C8F80C009E
:100D600000208BF80000D8F8000041F2000740F0A6
:100D70001000C8F80000089CC5F20007200340F1ED
:100D8000EA804FF61806CFF6FF76B859B846C0038A
:100D900061D54FF60835CFF6FF75785900070CD5A9
:100DA0000820785140F2D800C2F2000000F108019A
:100DB00002980122FFF77AFD47467859C0074AD0CA
:100DC0004FF0010C40F2D80147F805C0C2F2000113
:100DD0008A884CF2E420C2F200009AB343899A4216
:100DE00038BF1346D21A8A804FF61031CFF6FF7102
:100DF0007A5802F060427A507A581A4342F400223C
:100E00007A504FF60031CFF6FF717A5842F0044223
:100E10007A507A5802F44022B2F5802F1BD1007B21
:100E2000012818D14FF60800CFF6FF7038587A58CD
:100E3000C0054FF0805058BF4FF00050104378501D
:100E400009E000BF0289029800210023CDF800C00C
:100E5000FFF73EFD4746B859800327D54FF62835A2
:100E6000CFF6FF75785900070CD50820785140F26D
:100E7000D800C2F2000000F1080102980122FFF739
:100E800015FD47467859C00710D04FF0010C4CF2C1
:100E9000E42047F805C0C2F20000028D029801214B
:100EA0000023CDF800C0FFF713FD4746B8594003B3
:100EB00028D54FF64835CFF6FF75785900070CD581
:100EC0000820785140F2D800C2F2000000F1080179
:100ED00002980122FFF7EAFC47467859C00711D073
:100EE0004FF0010C4CF2E42047F805C0C2F20000BC
:100EF000B0F84820029802210023CDF800C0FFF787
:100F0000E7FC4746B859000325D54FF66835CFF6BC
:100F1000FF75785900070CD50820785140F2D800A9
:100F2000C2F2000000F1080102980122FFF7BEFCA6
:100F300047467859C0070ED001264CF2E4207E5176
:100F4000C2F20000B0F86820029803210023009646
:100F5000FFF7BEFC4746600302D409B0BDE8F08F3E
:100F60004FF618054FF6081C4FF6340E4FF00008E8
:100F7000CFF6FF750124CFF6FF7CCFF6FF7E1CE095
:100F8000386841F200074FF618054FF6081C4FF677
:100F9000340E05994003C5F20007CFF6FF754FF0F8
:100FA0000104CFF6FF7CCFF6FF7E00F0318100BF59
:100FB00008F10108B8F1040FCFD0785904FA08F904
:100FC00010EA090FF4D007EB481A5AF80C00AAF5FA
:100FD000DF66C00752D0B8F1000FCDF8149034602E
:100FE00050D140F2D800C2F20000C188002949D097
:100FF0004CF2E420C2F20000408B40F2D802814261
:1010000038BF0846091AC2F20002D1804FF610120A
:1010100000F50021CFF6FF72B9504FF60012CFF65F
:10102000FF72B95841F00441B950B95801F4402158
:10103000B1F5802F18D14CF2E421C2F20001097FF2
:10104000012911D14FF60801CFF6FF7179584FF6FB
:101050000013C905CFF6FF734FF08051FA5858BFFF
:101060004FF000511143F950DDF8149030B157F8AA
:101070000E0040EA090047F80E0000BF3068000685
:1010800096D518E04CF2E420C2F2000000EB4810C4
:10109000028B48F08000C1B2029800230094E3461E
:1010A000F146FFF715FCCE46DDF81490DC463068BB
:1010B00000067FF57DAF57F80E0010EA090F3FF4E8
:1010C00077AF4FF61010CDF81490CFF6FF705AF8A6
:1010D00000004FF6FC74C0F3C945002DAAF5DE6789
:1010E000C0F203043FF44CAF4CF2E420C2F2000023
:1010F00000EB481000F11A0900F1100214300890BA
:1011000041F20000C5F20000AAF5DD6B00EB0836E5
:101110004FF0000A0792CDE90375CDF818B007E04B
:1011200031468EF009FF0AF1010AAA453FF428AFC3
:101130003868B9F8001082B2914288BF0146DBF8E6
:1011400000008AB204EA80009042FFF419AF0898C8
:1011500000680028E4D10798C1F38D07D0F800C0DB
:1011600060466FB3781ECE460328634611D327F03E
:1011700003000025634600BF1C68043534605C68CA
:1011800034609C683460DC6810333460ACB28442F4
:10119000F2D14FF6FC7417F003071846C0F20304AF
:1011A000F1460DD0184650F8045B012FF14635602A
:1011B00006D05868022F306020D103F1080000BF2C
:1011C000DDF818B011F003030DD00178012B09D020
:1011D0004778DDF818B041EA0721032B04BF807877
:1011E00041EA004131600799DDE903750CEB02002B
:1011F00008600AF1010AAA459AD1C1E698683060F0
:1012000003F10C00DDF818B011F00303DDD1EAE7BB
:1012100057F80E00884347F80E00C9E642F6FF4033
:10122000C0F23110824203D94FF42050FFF75BBC6B
:1012300044F69F10C0F21A10824203D94FF4305086
:10124000FFF751BC47F27F30C0F20610824203D94B
:101250004FF44050FFF747BC42F2FF30C0F2F400B9
:10126000824203D94FF45050FFF73DBC4EF2BF13FA
:10127000C0F2E4034FF470509A4288BF4FF46050BC
:10128000FFF731BCF0B581B00D46012110221C469C
:10129000064630F085FB35F8041B074608BA000CFB
:1012A000388035F8020C00BA010C30467980B960FC
:1012B00030F08AFABA682946F860EFF71DF8002086
:1012C000276001B0F0BD0000B0B50D460121042239
:1012D0001C4630F065FB298809BA090C0180698831
:1012E000090409BA0029418007BF206000204AF2A2
:1012F0006650C0F20500B0BDF0B583B00E460121C6
:1013000010221C46054630F04BFB36F8081B0746FA
:1013100008BA000C388036F8060C6423000400BAC2
:10132000788016F8021C16F8012C043811FB0321F2
:101330007960019638BF0020029007F1080101AAE8
:10134000284634F00BFC0020276003B0F0BD0000FD
:1013500070B50D46012118221C4630F021FB29886A
:10136000064608BA000C30806888000400BA1428C9
:10137000708007D1301D291D1422EEF7BDFF00201B
:10138000266070BD4AF26650C0F2050070BD0000D4
:101390002DE9F04381B00D464AF26657012124221F
:1013A0009946C0F2050730F0FBFA2988064608BACC
:1013B000000C30806888000400BA1428708001D0C6
:1013C00008282ED1697902290AD001292ED10828AE
:1013D00027D14FF60C704FF00408C0F60A0007E062
:1013E00014281ED14FF60E704FF01008C0F60A00F8
:1013F000008806F10804214600220023002733F06C
:101400002FFCE88800BA010C204633F0D9FF2046B3
:1014100033F062F905F108014246EEF76DFFC9F8B5
:101420000060384601B0BDE8F08300BF143738468D
:1014300001B0BDE8F0830000F0B583B00D46012196
:101440000C221C46064630F0ABFA35F8041B074662
:1014500008BA000C388035F8020C391D00BA000CAF
:101460007880CDE9015001AA304634F077FB0020A6
:10147000276003B0F0BD0000B0B50D460121102279
:101480001C4630F08DFA298809BA090C0180698858
:10149000090409BA0829418008D1696809BAC160FC
:1014A000A96809BA816020600020B0BD4AF2665088
:1014B000C0F20500B0BD0000B0B50D460121082204
:1014C0001C4630F06DFA298809BA090C0180698838
:1014D000090409BA41806A68042912BA426007BF48
:1014E000206000204AF26650C0F20500B0BD000046
:1014F0002DE9F0410E4601212822984630F050FA9D
:101500003188054608BA000C28807088000400BAAB
:10151000410821286880696006D941F27A10C0F23A
:101520000100BDE8F08100BF02280DD3043605F1AB
:101530000807002436F8140030F060F827F814008B
:10154000686801348442F5D30020C8F80050BDE833
:10155000F0810000F0B581B01C461546FFF718FF7A
:1015600010B101B0F0BD00BF27684FF60C71C0F696
:101570000A0138890988012288427A6014D142F22E
:1015800012102AF097F97989484078814AF242404E
:10159000C2F212102AF086F9F9684840F86000207B
:1015A000276001B0F0BD00BF4FF60E71C0F60A0112
:1015B0000988884250D14AF24240C2F212102AF001
:1015C00071F9064642F212102AF074F97989BA7C50
:1015D00048407881387C797C7040FB7C387481EAA3
:1015E0001620787482EA1640B87483EA1660F8749C
:1015F000287A397D48403875687A797D4840787511
:10160000A87AB97D4840B875E87AF97D4840F87500
:10161000287B397E48403876687B797E48407876EA
:10162000A87BB97E4840B876E87BF97E4840F876DA
:10163000287C397F48403877687C797F48407877C4
:10164000A87CB97F4840B877E87CF97F4840F877B4
:101650000020276001B0F0BD4AF27A50C0F20500C8
:1016600001B0F0BD80B582B001900198806800683B
:101670002EF08EFE01988068D0F884022FF0FAFDDB
:101680000199D1F8AC000138C1F8AC000198D0F84C
:10169000AC0080BBFFE70198D0F8B000012801D171
:1016A000FFE70BE04CF6E630C0F60B004CF6E641E7
:1016B000C0F60B014FF4E272F7F716FD0198B43053
:1016C00029F042FC0199D1F8B80000F5FA70C1F890
:1016D000B8000198B4303AF09BFC01982EF040FD20
:1016E0000199886800F522702EF0F6FD0198806857
:1016F0007DF0A4FAFFE701988068D0F884022FF00B
:10170000EFFE0198806800682EF0D4FE02B080BD24
:1017100080B586B0049003910498C06960B1FFE77A
:101720000498C269039990470190019818B9FFE79E
:101730000020059015E0FFE703987BF00DF802907C
:10174000029850B9FFE70498006A28B1FFE70498AF
:10175000026A03999047FFE700E0FFE702980590CF
:10176000FFE7059806B080BD80B584B00390029174
:1017700001920398006A28B1FFE70398026A019971
:101780009047FFE7029892F0A7F804B080BD0000F0
:1017900080B582B00190009140F6F450CCF2000088
:1017A00000683AF0BDFB000070B528F0C7FB40F6BA
:1017B000B054CCF2000420680138206004D0BDE8A9
:1017C00070402EF09BBC00BF42F2C410CCF200006F
:1017D0004FF4B451EEF7B7FD002504F10C003021B1
:1017E0006560EEF7B0FD40F20C06CCF20006306802
:1017F000A56028F097FD70684FF0FF31316028F048
:1018000091FD6FF001007060BDE870402EF076BC75
:1018100080B54EF2180140F21002CEF20001C2F281
:10182000000251F804CC12684DF68363C4F21B33F6
:10183000A2FB03239A0C02FB00FE0868002309E0C8
:1018400003449B1A904298BF63447345104628BFD7
:1018500080BD00BF0A689042F2D10A689042EFD181
:101860000A689042ECD10A689042F3D0E8E70000A1
:10187000B0B504462FF0CCF9042808DBA06A6568EF
:1018800029F0D4FC02464FA128462FF073F9A06A34
:1018900029F0A0FB606A28B1A06ABDE8B04029F039
:1018A000CFBC00BFA06801210028616218BF3CF0D6
:1018B000BFF8D4F8D401002818BF24F0B7FFD4F83B
:1018C000200304F53D75002818BF24F0AFFF28461B
:1018D00030F0EAFA2846BC21EEF735FDD4F8DC03F7
:1018E00004F56C75002818BF24F0A0FF284630F0DE
:1018F000DBFA2846BC21EEF726FDD4F8980404F262
:101900006C45002818BF24F091FF284630F0CCFA2F
:101910002846BC21EEF717FDD4F8540504F5A5655B
:10192000002818BF24F082FF284630F0BDFA284670
:10193000BC21EEF708FDD4F8100604F2E4550028A7
:1019400018BF24F073FF284630F0AEFA2846BC21B9
:10195000EEF7F9FCD4F8CC0604F5D465002818BFDE
:1019600024F064FF284630F09FFA2846BC21EEF7A9
:10197000EAFCD4F8880704F25C75002818BF24F04C
:1019800055FF284630F090FA2846BC21EEF7DBFCE4
:10199000D4F8440804F61805002818BF24F046FFC0
:1019A000284630F081FA2846BC21EEF7CCFCA06A2C
:1019B0000021C4F8F01229F0FDFBA06ABDE8B04098
:1019C00029F03EBC5455524E20736F636B657420F2
:1019D00064657374726F7920726571756573742CA8
:1019E000207265665F636E743D256400F0B581B05A
:1019F000044641B92FF00CF9042804DB20A120464D
:101A000022462FF0B7F8A06A29F0E4FA606D28B1F9
:101A1000A06A01B0BDE8F04029F012BC0120606569
:101A2000D4F89C0004F16401002200253AF0A4FBE4
:101A3000D4F8E41091B104F1F006002705E000BFEE
:101A400001378F4206F10C0608D230680028F7D023
:101A500038F0A6FBD4F8E4103560F1E7D4F89C0028
:101A600041F2EC61214400223AF086FBA06A29F0A1
:101A7000A1FBA06A01B0BDE8F04029F0E1BB00BFC6
:101A800044657374726F79696E67204943452073AA
:101A9000657373696F6E2025700000002DE9F043B7
:101AA00081B004462FF0B4F8052804DB20683EA17D
:101AB00022462FF073F82FF0FFF8D4F84C080021DD
:101AC000C4F84818C4F84418C4F84018C4F83C18BE
:101AD000C4F83818E16029F07DFAD4F89C0838B1D0
:101AE000D4F84C0801B0BDE8F04329F0A9BB00BF11
:101AF000D4F854080121C4F89C1820B10021C4F87E
:101B000054182AF041FBD4F8680800283ED04FF062
:101B10000008002605E000BFD4F8680801368642B8
:101B200034D2D4F86C0850F82690B9F1000FF3D0F5
:101B3000D4F8A81091B109F10805002703E000BF0F
:101B400001378F420AD255F827000028F8D039F023
:101B500057FBD4F8A81045F82780F1E7D4F8141300
:101B60000029D9D009F11007002504E001358D4284
:101B700007F10C07D0D238680028F7D03CF0A4F960
:101B8000D4F81413C7F80080F0E700BFD4F84C086D
:101B900029F010FBD4F84C0829F052FB01B0BDE845
:101BA000F0432FF083B800BF49434520737472653A
:101BB000616D207472616E73706F72742025702075
:101BC00064657374726F7920726571756573742EB4
:101BD0002E00000080B5006B3EF0F6FD002080BDB9
:101BE00008687CF02DBC000070B584B00E46044639
:101BF0002FF00EF805280CDBE0696569009044F6CB
